:100000000C94FA000C9422010C9422010C9422010D
:100010000C9422010C9422010C9422010C942201D4
:100020000C9422010C9422010C94AF080C94220130
:100030000C94040E0C9422010C9422010C942201C5
:100040000C9422010C9422010C9422010C942201A4
:100050000C9422010C9422010C9422010C94870729
:100060000C9422010C9422010C9422010C94220184
:100070000C9422010C9422010C9422010C94220174
:100080000C9498030C9422010C9422010C94C50248
:100090000C9422010C9422010C9422010C94220154
:1000A0000C9422010C9422010C9422010000000007
:1000B000240027002A002D00300000000000250049
:1000C00028002B002E003100000000002300260035
:1000D00029002C002F000404040204040304040279
:1000E00002020202060606060606020503020405CF
:1000F0000408014020804002408001040802804042
:10010000201002011040802010040000000C000E9E
:1001100000000001000000000000000000000000DE
:100120000B000000070605040100080E0F10000177
:10013000000004050607202122232425271E1F0670
:1001400000FF0901A1010902150025FF75089508A6
:1001500081020903150025FF750895089102C01258
:1001600001100100000008EB034F20010001020014
:100170000109022900010100C03209040000020344
:100180000000000921110100012220000705810360
:10019000080001070502030800010403090418030D
:1001A0004400650061006E002000430061006D00A6
:1001B00065007200610000002C034C0055004600F1
:1001C00041002000470065006E0065007200690074
:1001D00063002000480049004400200044006500FE
:1001E0006D006F0000008802B8028B034E062907DD
:1001F0006107810211241FBECFEFDAE0DEBFCDBF61
:1002000011E0A0E0B1E0E4E8F2E202C005900D9256
:10021000A031B107D9F713E0A0E1B1E001C01D9210
:10022000A238B107E1F711E0C2EFD1E004C0229794
:10023000FE010E94FA10C63ED107C9F70E94360798
:100240000C9435110C940000A0E0B0E0EAE2F1E07B
:100250000C940611EC01A880B980CA80DB80A1143F
:10026000B104C104D10441F484E2A82E89EDB82E72
:100270008BE5C82E87E0D82EC601B5012DE133EFFE
:1002800041E050E00E94C91027EA31E440E050E02C
:100290000E9475107B018C01C601B5012DE133EF81
:1002A00041E050E00E94C910CA01B9012CEE34EFC0
:1002B0004FEF5FEF0E9475106E0D7F1D801F911F25
:1002C00097FF04C0615070408040904868837983F4
:1002D0008A839B839B01AC015F77B901CA01CDB7CB
:1002E000DEB7EAE00C9422110E942401089580E018
:1002F00091E00E9424010895609300017093010130
:100300008093020190930301089508950F931F9322
:10031000CF93DF93EC018B018130910509F0ECC0A4
:100320008FEF6F3F780709F0E7C080E090E0A8EC1E
:10033000B2EC8093660190936701A0936801B0933B
:10034000690180E191E00E946D0385E191E00E94E6
:100350006D038AE191E06EE070E00E94B1021092BC
:100360001F0110921E01D0932101C093200125E0AE
:100370002093220110934201009341018DE292EB00
:10038000A6E6B1E48093230190932401A093250174
:10039000B093260184E299EBACEDBFE38093270193
:1003A00090932801A0932901B0932A0180E090E066
:1003B000A0EAB1E480932B0190932C01A0932D012E
:1003C000B0932E0184EB98ECA1E9B1E480932F0166
:1003D00090933001A0933101B093320183E49CE10A
:1003E000ADEAB0E48093330190933401A0933501DA
:1003F000B093360180E090E0ACE8B2E4809337013E
:1004000090933801A0933901B0933A018EEF91E0B7
:1004100090933C0180933B0189EB90E090933E01E7
:1004200080933D0185E690E09093400180933F01E9
:10043000D0934401C093430120934501109365017B
:100440000093640186EE9FE3A8ECB0E4809346013C
:1004500090934701A0934801B09349018FE29DED2D
:10046000ACEEBFE380934A0190934B01A0934C0103
:10047000B0934D0180E090E0A0E2B1E480934E01A2
:1004800090934F01A0935001B09351018AEA92E8F2
:10049000ACE0B1E48093520190935301A0935401D6
:1004A000B09355018AE191E5A2ECB0E48093560146
:1004B00090935701A0935801B093590180E090E0C8
:1004C000ACE0B2E480935A0190935B01A0935C018D
:1004D000B0935D0183E092E090935F0180935E01B1
:1004E00087EA90E090936101809360018AE590E053
:1004F0009093630180936201DF91CF911F910F91DF
:10050000089580E090E06FEF7FEF0E9486010895EC
:1005100081E090E06FEF7FEF0E948601089582EE08
:1005200092E040E052EC61E070E00E94600780E001
:100530000E9455040E94460880E190E090931101CA
:100540008093100181E190E0909316018093150152
:1005500086E492E060E00E941C0708950E948F02EA
:100560000895FC01138260936A0110926C01089552
:1005700080E090E0A8ECB2EC80930802909309022E
:10058000A0930A02B0930B0208951F920F920FB628
:100590000F9211242F933F934F935F936F937F9309
:1005A0008F939F93AF93BF93EF93FF9381EA9FEF56
:1005B000909395008093940080916A010E94E505D4
:1005C000482F80916D0190916E01019690936E017C
:1005D00080936D01809107028C3418F085E0809340
:1005E0006B0180916B018330D1F0843020F4823034
:1005F00009F059C006C0843071F1853009F053C04C
:100600004CC0442309F04FC080916D0190916E0160
:100610008436910508F443C0109207021EC0413091
:1006200009F041C080910702E82FF0E020916D01B0
:1006300030916E01EE0FFF1FE659FE4F3683258382
:100640008F5F8093070210926E0110926D0184E01B
:1006500080936B0128C04423B9F480910702E82FEE
:10066000F0E020916D0130916E01EE0FFF1FE65911
:10067000FE4F368325838F5F8093070210926E01B1
:1006800010926D0183E0E4CF80916D0190916E0135
:100690008536910540F085E0DBCF442321F41092AC
:1006A0006E0110926D0180916C01882329F0442322
:1006B00011F42D9A01C02D98FF91EF91BF91AF9148
:1006C0009F918F917F916F915F914F913F912F916A
:1006D0000F900FBE0F901F901895FC018FEF9FEFAA
:1006E0009183808380910C028C3090F482838F5FA1
:1006F00080930C02815090E0FC01EE0FFF1FE80F89
:10070000F91FEF5EFD4F88EB9BE092838183089594
:100710008FEF8283089580E090E0A8ECB2EC8093A4
:100720000D0290930E02A0930F02B0931002089551
:100730001F920F920FB60F9211242F933F934F9356
:100740005F936F937F938F939F93AF93BF93EF9339
:10075000FF938091350287FF05C01092950010929B
:1007600094002BC020913502332727FD30958091CE
:100770000C0290E02817390704F58091350299277B
:1007800087FD9095FC01EE0FFF1FE80FF91FEF5E4C
:10079000FD4F808186FF11C080913502992787FD2A
:1007A0009095FC01EE0FFF1FE80FF91FEF5EFD4F64
:1007B00080818F7360E00E94B005809135028F5F69
:1007C0008093350220913502332727FD30958091A3
:1007D0000C0290E0281739070CF04EC080913502CA
:1007E0008C300CF049C0209194003091950080919C
:1007F0003502992787FD9095FC01EE0FFF1FE80F4A
:10080000F91FEF5EFD4F81819281280F391F3093D0
:1008100099002093980080913502992787FD909543
:10082000FC01EE0FFF1FE80FF91FEF5EFD4F808107
:1008300086FF2AC080913502992787FD9095FC019B
:10084000EE0FFF1FE80FF91FEF5EFD4F80818F73E2
:1008500061E00E94B00518C080E49CE905C0809169
:10086000940090919500049690939900809398003D
:100870008FEF8093350208C080919400909195008D
:1008800084549C4948F3EBCFFF91EF91BF91AF9116
:100890009F918F917F916F915F914F913F912F9198
:1008A0000F900FBE0F901F901895E82FF0E0EC5DB1
:1008B000FE4FE491F0E0E25DFE4FE491809104018F
:1008C00090E026E0880F991F2A95E1F780937C003D
:1008D00090917C008E2F8F71892B80937C00E5FF97
:1008E00004C080917B00806203C080917B008F7D7B
:1008F00080937B0080917A00806480937A0080915D
:100900007A0086FDFCCF2091780040917900942FE9
:1009100080E030E0282B392BC90108951F93CF9335
:10092000DF93182FEB0161E00E943305209709F453
:100930008FC0CF3FD10509F48EC0E12FF0E0E65F14
:10094000FE4F8491873009F44AC0883080F48330A8
:1009500051F1843030F48130E1F0823009F075C01B
:100960001DC0843051F1863009F06FC030C08A302C
:1009700009F451C08B3030F48830C9F1893009F066
:1009800064C03FC08B3009F450C08C3009F05DC0AA
:1009900054C084B5806884BDC7BD61C084B5806221
:1009A00084BDC8BD5CC08091800080688093800059
:1009B000D0938900C093880052C0809180008062EB
:1009C00080938000D0938B00C0938A0048C08091B0
:1009D000B00080688093B000C093B30040C08091A5
:1009E000B00080628093B000C093B40038C08091A2
:1009F0009000806880939000D0939900C0939800F5
:100A00002EC080919000806280939000D0939B00D4
:100A1000C0939A0024C080919000886080939000D9
:100A2000D0939D00C0939C001AC08091C000806844
:100A30008093C000C093CF0012C08091C00080623C
:100A40008093C000C093D0000AC0C038D1051CF408
:100A5000812F60E002C0812F61E00E94B005DF912C
:100A6000CF911F910895482F50E0CA0180519F4FA8
:100A7000FC0124914A525F4FFA0184918823C1F00E
:100A8000E82FF0E0EE0FFF1FE455FF4FA591B49162
:100A9000662341F49FB7F8948C91209582238C9320
:100AA0009FBF08959FB7F8948C91822B8C939FBF22
:100AB00008958730A9F1883080F48330E1F08430E4
:100AC00030F4813011F1823009F049C021C0843006
:100AD000B1F0863009F043C01FC08A3079F18B3005
:100AE00028F4883019F18930D1F524C08B3061F1B8
:100AF0008C30A9F52FC0809180008F7703C0809142
:100B000080008F7D80938000089584B58F7702C028
:100B100084B58F7D84BD08958091B0008F7703C028
:100B20008091B0008F7D8093B000089580919000F7
:100B30008F7707C0809190008F7D03C080919000D7
:100B4000877F8093900008958091C0008F77809375
:100B5000C00008958091C0008F7D8093C0000895EB
:100B6000FF920F931F93F62E482F50E0CA01865F25
:100B70009E4FFC012491CA0180519F4FFC011491AA
:100B80004A525F4FFA0104910023D9F0222319F051
:100B9000822F0E945905E02FF0E0EE0FFF1FE65470
:100BA000FF4FA591B491FF2031F49FB7F8948C9139
:100BB0001095812304C09FB7F8948C91812B8C935E
:100BC0009FBF1F910F91FF9008950F931F93482F80
:100BD00050E0CA01865F9E4FFC012491CA018051FA
:100BE0009F4FFC0104914A525F4FFA011491112367
:100BF00019F420E030E015C0222319F0822F0E9462
:100C00005905812F90E0880F991F88539F4FFC0151
:100C1000A591B4918C9120E030E0802311F021E087
:100C200030E0C9011F910F910895EF92FF920F9349
:100C30001F93FC01162FF42EE22E0083118280E018
:100C400090E0A0E0B0E082839383A483B5838683A1
:100C50009783A087B18762877387448755872687E4
:100C60003787862F61E00E9433058F2D61E00E9457
:100C700033058E2D61E00E943305812F60E00E94D4
:100C8000B0058F2D60E00E94B0058E2D60E00E94BF
:100C9000B0051F910F91FF90EF9008950F9380E0A2
:100CA00090E0A8ECB2EC8093560290935702A09388
:100CB0005802B093590286E392E066E170E044E1A5
:100CC00050E025E130E001E00E94150686E492E064
:100CD00063E070E044E050E028E030E00E94150658
:100CE0000F910895AF92BF92CF92DF92EF92FF9251
:100CF0000F931F93CF93DF93EC01D42EC52EB62E06
:100D0000A72EE0905602F0905702009158021091E1
:100D10005902642F752F8B2D9A2DA80197010E94DF
:100D2000FC0E87FD1DC06D2D7C2D8B2D9A2D20E096
:100D300030E048EC52E40E940E1018165CF40F2EBE
:100D4000F0E0EF2EF0E0FF2EF8EC0F2FF2E41F2F73
:100D5000F02D06C08D2D9C2DAB2DBA2D7C018D0163
:100D60008A819B81AC81BD818E839F83A887B9874F
:100D7000EA82FB820C831D838881882321F417FB80
:100D8000109517F91095C801B70120E030E048EC44
:100D900052E40E94000F20E030E04FE753E40E944D
:100DA00012107B018C0120E030E040E050E00E9416
:100DB0000E1018165CF48C8561E00E94B0058E85DB
:100DC00060E00E94B005C801B70115C0C801B701B5
:100DD00020E030E040E050E00E94FC0E8823A4F4C4
:100DE0008C8560E00E94B0058E8561E00E94B005B0
:100DF000C801B70190580E94680F9B01AC018A8519
:100E0000B9010E948E040CC08A8560E00E94B00582
:100E10008E8560E00E94B0058E8560E00E94B0057E
:100E20001982DF91CF911F910F91FF90EF90DF908A
:100E3000CF90BF90AF900895FC016083818188239B
:100E400039F44281538164817581CF010E94720619
:100E5000089580E090E0A8ECB2EC80935A02909361
:100E60005B02A0935C02B0935D0208950E94CF07DD
:100E700082EE92E040E855E260E070E00E94600798
:100E80000E94AE020E948501FDCF462FE091DE0256
:100E9000F091DF02CF01019660E870E00E949410AB
:100EA0009C018091E0029091E1022817390739F006
:100EB000E25AFD4F40833093DF022093DE02089513
:100EC000089589E091E09093E3028093E2028EE539
:100ED00092E09093E6028093E5020895CB010E9490
:100EE000DB0C0895CB010E94DB0C0895DF93CF93B8
:100EF00000D0CDB7DEB71A8219826983CE01019680
:100F00000E94DB0C0F900F90CF91DF9108951F92FC
:100F10000F920FB60F9211242F933F938F939F93AD
:100F2000AF93BF938091EB029091EC02A091ED0200
:100F3000B091EE023091EF020196A11DB11D232F59
:100F40002D5F2D3720F02D570196A11DB11D209347
:100F5000EF028093EB029093EC02A093ED02B0932A
:100F6000EE028091E7029091E802A091E902B0912F
:100F7000EA020196A11DB11D8093E7029093E80259
:100F8000A093E902B093EA02BF91AF919F918F9134
:100F90003F912F910F900FBE0F901F90189584B71F
:100FA000877F84BF88E10FB6F89480936000109229
:100FB00060000FBE80E090E020E80FB6F894209328
:100FC0006100809361000FBE0E949508789484B5FB
:100FD000826084BD84B5816084BD85B58B7F85BD0D
:100FE00085B5826085BD85B5816085BDEEE6F0E0A2
:100FF00080818160808384B58F7B84BD85B5877F48
:1010000085BDE0ECF0E080818F7B808380818F7EE6
:101010008083808182608083808181608083E1EC35
:10102000F0E08081877F808380818B7F80838081D7
:101030008D7F8083808181608083E3ECF0E080811C
:101040008B7F8083A2ECB0E08C9181608C93808157
:101050008D7F8083808181608083EAE7F0E08081FA
:1010600084608083808182608083808181608083CE
:1010700080818068808390EC88E10FB6F894A89511
:1010800080936000909360000FBE0895009729F050
:10109000BC0180E090E00E947C010895EF92FF92F5
:1010A0000F931F930E94A2080E94AA0808ED10E067
:1010B000F8018081982F9F7790838068808380815A
:1010C0008F7D808319BC1092790310927703109260
:1010D00076031092750380EEE82EF12CF7018081E3
:1010E0008B7F8083F80180818160808380E060E075
:1010F00042E00E94740EE1EEF0E080818E7F8083FA
:10110000E2EEF0E08081816080838081886080836E
:10111000F70180818E7F8083F801808180618083E8
:101120001F910F91FF90EF900895E7EDF0E080811F
:10113000816080838AE482BF81E0809378030E948B
:101140004E080895E8EDF0E080818E7F8083109254
:10115000E20008951092DA001092E10008951F92C3
:101160000F920FB60F9211242F933F934F935F93DB
:101170006F937F938F939F93AF93BF93EF93FF935F
:101180008091E10082FF0BC08091E20082FF07C0E6
:101190008091E1008B7F8093E1000E94C60C8091DA
:1011A000DA0080FF20C08091D80080FF1CC08091B1
:1011B000DA008E7F8093DA008091D90080FF0EC024
:1011C00080E189BD89B5826089BD09B400FEFDCF8B
:1011D00081E0809379030E94080D05C019BC10922C
:1011E00079030E94090D8091E10080FF19C0809170
:1011F000E20080FF15C08091E2008E7F8093E200C4
:101200008091E20080618093E2008091D80080624A
:101210008093D80019BC85E0809379030E94C60CA6
:101220008091E10084FF2FC08091E20084FF2BC0F9
:1012300080E189BD89B5826089BD09B400FEFDCF1A
:101240008091D8008F7D8093D8008091E1008F7EBF
:101250008093E1008091E2008F7E8093E200809194
:10126000E20081608093E20080917703882331F46B
:101270008091E30087FD02C081E001C084E080939B
:1012800079030E94C60C8091E10083FF24C0809105
:10129000E20083FF20C08091E100877F8093E1001E
:1012A00082E080937903109277038091E1008E7F32
:1012B0008093E1008091E2008E7F8093E200809134
:1012C000E20080618093E20080E060E042E00E9402
:1012D000740E0E94C60CFF91EF91BF91AF919F9148
:1012E0008F917F916F915F914F913F912F910F90CF
:1012F0000FBE0F901F9018950F931F93DF93CF93FE
:10130000CDB7DEB7AC970FB6F894DEBF0FBECDBF3A
:101310008091F10080937A038091F10080937B03A8
:101320008091F1009091F100ECE7F3E080937C0371
:1013300090937D038091F1009091F10080937E0362
:1013400093838091F1009091F100809380039583C5
:101350000E94A80D8091E80083FF41C180917A032B
:1013600030917B03353009F487C0363040F431309A
:10137000C9F1313070F0333009F031C133C0383049
:1013800009F4FCC0393009F40CC1363009F027C12A
:101390009AC0803821F0823809F021C108C09091AC
:1013A000750380917603882399F0926011C0809133
:1013B0007E0387708093E9008091EB0090E025E048
:1013C000969587952A95E1F7982F91701092E900EC
:1013D0008091E800877F8093E8009093F10010925D
:1013E000F100D7C0882319F0823009F0F8C090E0EE
:1013F0008F719070009721F0029709F0F0C00CC037
:1014000080917C03813009F0EAC01092760333307A
:1014100069F5809376032AC080917C03882331F597
:1014200020917E03277009F4DAC02093E9008091AF
:10143000EB0080FF1BC0333021F48091EB00806211
:1014400013C08091EB0080618093EB0081E090E01D
:1014500002C0880F991F2A95E2F78093EA00109244
:10146000EA008091EB0088608093EB001092E90025
:101470008091E800877F90C0882309F0B0C0109168
:101480007C031F770FB7F8948091E800877F8093E3
:10149000E8000E94A90E8091E80080FFFCCF8091B7
:1014A000E3008078812B8093E3008091E3008068E3
:1014B0008093E300112311F482E001C083E0809364
:1014C00079030FBF8CC08058823008F088C08091AB
:1014D0007C0390917D0323E08C3D920709F034C09A
:1014E00083E08C838AE28B837FB7F894DE011596C4
:1014F0006EE040E050E011E2E62FF0E0109357007C
:10150000849140FF03C082958F706F5F8F70282F8A
:1015100030E08A3018F0C901C79602C0C901C096F0
:101520008D939D934F5F5F4F4431510529F77FBFE6
:101530008091E800877F8093E800CE0103966AE2FD
:1015400070E00E94080B14C060917E03AE014F5FF3
:101550005F4F0E94340EBC01009709F440C0809197
:10156000E800877F8093E80089819A810E94B40B0C
:101570008091E8008B778093E80031C0803879F55E
:101580008091E800877F8093E800809177038093C3
:10159000F1008091E8008E778093E8000E94A90E08
:1015A0001EC08823E1F490917C039230C0F48091B6
:1015B000E800877F8093E800909377030E94A90E4C
:1015C00080917703882331F48091E30087FD02C086
:1015D00081E001C084E0809379030E94F90D80913D
:1015E000E80083FF0AC08091EB0080628093EB00EB
:1015F0008091E800877F8093E800AC960FB6F8945E
:10160000DEBF0FBECDBFCF91DF911F910F91089527
:101610009C0140918003509181034617570718F4AD
:10162000F90190E045C06115710511F0AB01F8CFEB
:101630008091E8008E778093E80040E050E0F0CFA2
:1016400080917903882309F445C0853009F444C0AA
:101650008091E80083FF02C081E008958091E80056
:1016600082FD32C08091E80080FF22C08091F300AB
:101670009091F200782F60E0292F30E0262B372B55
:1016800007C081918093F100415050402F5F3F4F40
:101690004115510519F02830310598F390E02830B4
:1016A000310509F491E08091E8008E778093E8009D
:1016B0004115510529F6992319F606C08091790341
:1016C000882341F0853041F08091E80082FFF6CF19
:1016D00080E0089582E0089583E008959C016115FB
:1016E000710529F48091E8008B778093E800F90177
:1016F00027C080917903882399F1853099F18091F1
:10170000E80083FF02C081E008958091E80082FF35
:10171000F0CF06C08091F10081936150704059F084
:101720002091F3008091F200322F20E090E0822B94
:10173000932B892B79F78091E8008B778093E800D1
:1017400061157105B1F606C080917903882341F0D7
:10175000853041F08091E80080FFF6CF80E0089569
:1017600082E0089583E008959C01409180035091A8
:1017700081034617570718F4F90190E046C0611538
:10178000710511F0AB01F8CF8091E8008E7780935E
:10179000E80040E050E0F0CF80917903882309F41D
:1017A00047C0853009F446C08091E80083FF02C03D
:1017B00081E008958091E80082FD34C08091E800C6
:1017C00080FF23C08091F3009091F200782F60E0B9
:1017D000292F30E0262B372B08C084918093F1000D
:1017E0003196415050402F5F3F4F4115510519F040
:1017F0002830310590F390E02830310509F491E06C
:101800008091E8008E778093E8004115510521F61C
:10181000992309F0C1CF06C080917903882341F054
:10182000853041F08091E80082FFF6CF80E0089596
:1018300082E0089583E00895BF92CF92DF92EF9205
:10184000FF920F931F93CF93DF93182F092F7B01E4
:101850006A010E94CA0EB82E8823C1F5812F902FED
:101860009C01E901C114D10439F0F6018081918114
:10187000E81AF90AC80FD91F00E010E024C08091CF
:10188000E80085FD18C08091E8008B778093E80020
:10189000C114D10449F0F60180819181800F911F1C
:1018A0009183808385E013C00E94C70C0E94CA0EFA
:1018B000882349F00CC08091F10089930894E108D5
:1018C000F1080F5F1F4FE114F104C9F68B2DDF9172
:1018D000CF911F910F91FF90EF90DF90CF90BF902D
:1018E0000895BF92CF92DF92EF92FF920F931F93D2
:1018F000CF93DF93182F092F7B016A010E94CA0E34
:10190000B82E8823C1F5812F902F9C01E901C114C5
:10191000D10439F0F60180819181E81AF90AC80FE3
:10192000D91F00E010E024C08091E80085FD18C0B8
:101930008091E8008E778093E800C114D10449F0CB
:10194000F60180819181800F911F9183808385E0D2
:1019500013C00E94C70C0E94CA0E882349F00CC015
:1019600089918093F1000894E108F1080F5F1F4FFF
:10197000E114F104C9F68B2DDF91CF911F910F91E6
:10198000FF90EF90DF90CF90BF90089508951F9340
:1019900080917903882369F01091E9001092E900A1
:1019A0008091E80083FF02C00E947C0917701093A9
:1019B000E9001F910895EF92FF921F93CF93DF9359
:1019C0007C01C0917203D091730340E015C0E09197
:1019D0007003F0917103CF01019660E870E00E94FE
:1019E00094108C179D0739F0E051FD4F10839093B0
:1019F0007103809370034F5FF701E40FF11D1081B5
:101A0000112329F7DF91CF911F91FF90EF90089557
:101A100008950895CF93DF93EC0181EB888321E053
:101A200030E0E0917203F091730380917003909124
:101A30007103DE01A20FB31F8E179F0711F41C92D2
:101A400016C0E051FD4F80818C938091720390917C
:101A50007303019660E870E00E9494109093730302
:101A6000809372032F5F3F4F28303105D1F6DF910D
:101A7000CF910895FC018081813A19F0813BA9F44E
:101A80000FC08181813089F4F89498E088E10FB625
:101A9000F894A89580936000909360000FBEFFCFEC
:101AA00082EE92E061810E94450708950F931F9393
:101AB000DF93CF93CDB7DEB728970FB6F894DEBF8C
:101AC0000FBECDBF82E08093E9008091E80082FFE5
:101AD00019C08091E80085FF10C08E010F5F1F4F75
:101AE000C80168E070E040E050E00E941C0CC801B2
:101AF0000E943A0D81E0809374038091E8008B7717
:101B00008093E80081E08093E9008091E80080FF05
:101B100014C08E010F5F1F4FC8010E940A0DC8013B
:101B200068E070E040E050E00E94710C8091E800B5
:101B30008E778093E8001092740328960FB6F8947D
:101B4000DEBF0FBECDBFCF91DF911F910F910895E2
:101B50000F931F93DF93CF93CDB7DEB728970FB6C0
:101B6000F894DEBF0FBECDBF80917B03813019F0AA
:101B70008930A1F51AC080917A03813A79F58E01F6
:101B80000F5F1F4FC8010E940A0D8091E800877FF8
:101B90008093E800C80168E070E00E94080B809123
:101BA000E8008B778093E80019C080917A03813236
:101BB000A9F48091E800877F8093E8008E010F5F91
:101BC0001F4FC80168E070E00E946E0B8091E80032
:101BD0008E778093E800C8010E943A0D28960FB6D0
:101BE000F894DEBF0FBECDBFCF91DF911F910F9153
:101BF000089581E061EC42E00E94740E82E060ECA6
:101C000042E00E94740E08951F920F920FB60F9239
:101C100011242F933F934F935F936F937F938F93F1
:101C20009F93AF93BF93EF93FF930E94560D0E9433
:101C3000C70C90EC88E10FB6F894A89580936000EB
:101C4000909360000FBEFF91EF91BF91AF919F9174
:101C50008F917F916F915F914F913F912F910F9055
:101C60000FBE0F901F901895DA019330B1F09430A9
:101C700028F4913041F0923079F50AC0913211F197
:101C8000923251F524C0EFE5F1E022E130E028C0C6
:101C9000E1E7F1E029E230E023C0813049F0813012
:101CA00018F08230C9F40AC0EAE9F1E0849103C077
:101CB000EEE9F1E08491282F30E012C0E8EBF1E08A
:101CC0008491F9CFE3E8F1E029E030E009C0EFE3E7
:101CD000F1E020E230E004C0E0E0F0E020E030E0BD
:101CE000ED93FC93C9010895382F282F2CC0209321
:101CF000E900231721F4762F942F50E006C070914D
:101D0000EC009091ED005091F00091FF1BC080918C
:101D1000EB008E7F8093EB008091ED0082708093CA
:101D2000ED008091EB0081608093EB007093EC00FC
:101D30009093ED005093F0008091EE0087FD02C07B
:101D400080E008952F5F273090F23093E90081E022
:101D5000089580917A0388239CF404C080917903CC
:101D60008823B9F08091E80082FFF8CF8091E800E5
:101D70008B778093E800089580917903882349F058
:101D80008091E80080FFF8CF8091E8008E77809303
:101D9000E80008954091E4005091E50024E6809128
:101DA000EC0080FF05C08091E80080FF05C022C0E4
:101DB0008091E80082FD1EC080917903882311F490
:101DC00082E00895853011F483E008958091EB005E
:101DD00085FF02C081E008958091E4009091E500C4
:101DE00084179507E1F2222311F484E0089521502D
:101DF000AC01D5CF80E008959CD008F481E008952F
:101E00000CD0D2C0CAD040F0C1D030F021F45F3F36
:101E100019F0B3C05111FCC0B6C0D7D098F39923C4
:101E2000C9F35523B1F3951B550BBB27AA2762179E
:101E30007307840738F09F5F5F4F220F331F441FE3
:101E4000AA1FA9F333D00E2E3AF0E0E830D091501B
:101E50005040E695001CCAF729D0FE2F27D0660F08
:101E6000771F881FBB1F261737074807AB07B0E847
:101E700009F0BB0B802DBF01FF2793585F4F2AF05D
:101E80009E3F510568F079C0C3C05F3FECF3983EB8
:101E9000DCF3869577956795B795F7959F5FC9F7BA
:101EA000880F911D9695879597F90895E1E0660F43
:101EB000771F881FBB1F621773078407BA0720F0BC
:101EC000621B730B840BBA0BEE1F88F7E095089525
:101ED00004D06894B1119CC008957FD088F09F57BA
:101EE00090F0B92F9927B751A0F0D1F0660F771F66
:101EF000881F991F1AF0BA95C9F712C0B13081F046
:101F000086D0B1E0089583C0672F782F8827B85F07
:101F100039F0B93FCCF3869577956795B395D9F7A6
:101F20003EF490958095709561957F4F8F4F9F4FB0
:101F30000895990F0008550FAA0BE0E8FEEF16165A
:101F40001706E807F907C0F012161306E407F507AD
:101F500098F0621B730B840B950B39F40A2661F021
:101F6000232B242B252B21F408950A2609F4A140C4
:101F7000A6958FEF811D811D089597F99F6780E8D1
:101F800070E060E008959FEF80EC089500240A94CB
:101F90001616170618060906089500240A94121644
:101FA0001306140605060895092E0394000C11F477
:101FB000882352F0BB0F40F4BF2B11F460FF04C024
:101FC0006F5F7F4F8F4F9F4F089557FD9058440F7D
:101FD000551F59F05F3F71F04795880F97FB991F88
:101FE00061F09F3F79F08795089512161306140645
:101FF000551FF2CF4695F1DF08C0161617061806D2
:10200000991FF1CF86957105610508940895E894AC
:10201000BB2766277727CB0197F908958ADF08F455
:102020008FEF08950BD0C0CFB1DF28F0B6DF18F0E6
:10203000952309F0A2CFA7CF1124EACFC6DFA0F3E2
:10204000959FD1F3950F50E0551F629FF001729F4D
:10205000BB27F00DB11D639FAA27F00DB11DAA1F6C
:10206000649F6627B00DA11D661F829F2227B00DB9
:10207000A11D621F739FB00DA11D621F839FA00D44
:10208000611D221F749F3327A00D611D231F849F94
:10209000600D211D822F762F6A2F11249F575040EB
:1020A0008AF0E1F088234AF0EE0FFF1FBB1F661F86
:1020B000771F881F91505040A9F79E3F510570F03F
:1020C0005CCFA6CF5F3FECF3983EDCF38695779527
:1020D0006795B795F795E7959F5FC1F7FE2B880F3A
:1020E000911D9695879597F90895629FD001739FEA
:1020F000F001829FE00DF11D649FE00DF11D929FA4
:10210000F00D839FF00D749FF00D659FF00D9927E2
:10211000729FB00DE11DF91F639FB00DE11DF91F06
:10212000BD01CF011124089597FB092E07260AD07F
:1021300077FD04D049D006D000201AF4709561953F
:102140007F4F0895F6F7909581959F4F0895A1E2EE
:102150001A2EAA1BBB1BFD010DC0AA1FBB1FEE1F21
:10216000FF1FA217B307E407F50720F0A21BB30B6C
:10217000E40BF50B661F771F881F991F1A9469F7E8
:1021800060957095809590959B01AC01BD01CF0144
:10219000089597FB092E05260ED057FD04D0D7DFF2
:1021A0000AD0001C38F450954095309521953F4F4A
:1021B0004F4F5F4F0895F6F7909580957095619514
:1021C0007F4F8F4F9F4F0895AA1BBB1B51E107C044
:1021D000AA1FBB1FA617B70710F0A61BB70B881FB7
:1021E000991F5A95A9F780959095BC01CD01089546
:1021F000EE0FFF1F0590F491E02D09942F923F926E
:102200004F925F926F927F928F929F92AF92BF9206
:10221000CF92DF92EF92FF920F931F93CF93DF93B2
:10222000CDB7DEB7CA1BDB0B0FB6F894DEBF0FBE0F
:10223000CDBF09942A88398848885F846E847D845C
:102240008C849B84AA84B984C884DF80EE80FD805E
:102250000C811B81AA81B981CE0FD11D0FB6F894D4
:10226000DEBF0FBECDBFED01089511E0C2EFD1E09A
:1022700004C0FE010E94FA102296C43FD107C9F79C
:04228000F894FFCF00
:1022840001000000010000000076076E07720700DD
:00000001FF
