:10000000A60010E0A0E6B0E0ECE5F2E003C0C89581
:1000100031960D92A037B107D1F711E0A0E7B0E01B
:1000200001C01D92A231B107E1F710E0C2E0D0E0BB
:1000300004C02297FD2FEC2F0BD1C030D107C9F798
:10004000FC01268D878D30E0205C3F4F281B310955
:100050002F733070C9010895FC01968D878D981714
:1000600019F42FEF3FEF06C0878DE80FF11D82A135
:10007000282F30E0C9010895DC015E969C915E97BF
:100080005F968C915F97981719F42FEF3FEF10C090
:100090005F968C915F97FD01E80FF11D92A15F962D
:1000A0008C915F978F5F8F735F968C93292F30E0D1
:1000B000C9010895DC015D968C915D97882339F024
:1000C0005096ED91FC915197808186FFF9CF5D9616
:1000D0001C920895DC0190968C919097282F30E027
:1000E0002F5F3F4F2F73307091968C91919790E0D6
:1000F00028173907C9F390968C919097FD01E80F66
:10010000F11DEE59FF4F608390962C939097529675
:10011000ED91FC915397208181E090E05B960C90EB
:100120005B9702C0880F991F0A94E2F7282B20835F
:1001300081E05D968C935D975096ED91FC9151977F
:1001400080818064808381E090E008951092730044
:100150001092720088EE93E0A0E0B0E0809374000B
:1001600090937500A0937600B093770084E690E0BA
:100170009093710080937000109291008091910093
:100180008093900010928F0080918F0080938E005A
:1001900085EC90E090937D0080937C0084EC90E06F
:1001A00090937F0080937E0080EC90E0909381009C
:1001B0008093800081EC90E0909383008093820094
:1001C00082EC90E0909385008093840086EC90E030
:1001D000909387008093860084E08093880083E07A
:1001E0008093890087E080938A0085E080938B006C
:1001F00081E080938C000895CF92DF92EF92FF927E
:100200000F931F93CF93DF937C016B018A01C0E0B2
:10021000D0E00FC0D6016D916D01D701ED91FC9139
:100220000190F081E02DC7010995C80FD91F015039
:1002300010400115110571F7CE01DF91CF911F918B
:100240000F91FF90EF90DF90CF900895EE0FFF1F7A
:0C025000C89531960F92C8950F92089542
:10025C00000000006A00FC0020003C002C005A004A
:00000001FF
