:1000000000000000240027002A002D00300000001E
:100010000000250028002B002E0031000000000009
:100020002300260029002C002F00040404040403EC
:100030000405020202020403020202020606060688
:100040000606040402020204040802011040804073
:1000500010204080408008020401804020100201EE
:100060001080102040400000000200080E00000335
:100070000401000B00000000000000000000000070
:1000800000000000070605040100080A0B0C0D091A
:1000900005010902A1010901A10085010509190154
:1000A0002903150025019503750181029501750548
:1000B000810305010930093109381581257F75084B
:1000C00095038106C0C005010906A1018502050747
:1000D00019E029E7150025017501950881029501B0
:1000E0007508810395067508150025650507190033
:1000F00029658100C00904020001030000000921F4
:100100000101000122650007058403400001000091
:100110000000000000002A2B280000000000000062
:1001200000000000000000000000000000002C9E05
:10013000B4A0A1A2A434A6A7A5AE362D3738271E99
:100140001F20212223242526B333B62EB7B89F843F
:1001500085868788898A8B8C8D8E8F9091929394D7
:1001600095969798999A9B9C9D2F3130A3AD350415
:1001700005060708090A0B0C0D0E0F1011121314B7
:1001800015161718191A1B1C1DAFB1B0B500ED00DC
:100190007D028402F303DE04A305760210E0A0E6EC
:1001A000B0E0E6E5FDE003C0C89531960D92A838B1
:1001B000B107D1F712E0A8E8B0E001C01D92AC335E
:1001C000B107E1F711E0CAE9D1E004C02297FD2FA1
:1001D000EC2FB0D5CE38D107C9F780E090E0A8EC7D
:1001E000B2EC8093880090938900A0938A00B0932A
:1001F0008B000895FC01138260938C0010928E0096
:100200000895FC018FEF9FEF9183808380912A01F5
:100210008C3090F482838F5F80932A01815090E02C
:10022000FC01EE0FFF1FE80FF91FE55DFE4F88EBA5
:100230009BE09283818308958FEF82830895EF92EC
:10024000FF920F931F93FC01162FF42EE22E0083D2
:10025000118280E090E0A0E0B0E082839383A483E9
:10026000B58386839783A087B1878DEC9CECACEC3B
:10027000BDE382879387A487B58766877787408B9E
:10028000518B228B338B862F61E00E94F9028F2DD8
:1002900061E00E94F9028E2D61E00E94F902812F37
:1002A00060E00E9486038F2D60E00E9486038E2D01
:1002B00060E00E9486031F910F91FF90EF900895D8
:1002C000EF92FF920F93CF93DF93EC017B0181308C
:1002D000910509F005C18FEF6F3F780709F000C164
:1002E00080E090E0A8ECB2EC8093D2019093D3012F
:1002F000A093D401B093D5018FE491E063E070E066
:1003000044E050E025E030E001E00E941F0183E678
:1003100091E06BE070E04AE050E029E030E00E94BC
:100320001F0187E791E00E9401018CE791E00E94A4
:10033000010181E891E00E94010186E891E062E01C
:1003400070E00E94FA0010928B0110928A01D09303
:100350008D01C0938C0125E020938E01F092AE01B7
:10036000E092AD018DE292EBA6E6B1E480938F01BD
:1003700090939001A0939101B093920184E299EB44
:10038000ACEDBFE38093930190939401A09395010A
:10039000B093960180E090E0A0EAB1E480939701E9
:1003A00090939801A0939901B0939A0184EB98ECF3
:1003B000A1E9B1E480939B0190939C01A0939D01DE
:1003C000B0939E0183E49CE1ADEAB0E480939F0189
:1003D0009093A001A093A101B093A20180E090E0CE
:1003E000ACE8B2E48093A3019093A401A093A5018B
:1003F000B093A6018EEF91E09093A8018093A7019E
:1004000089EB90E09093AA018093A90185E690E0A2
:100410009093AC018093AB01D093B001C093AF0136
:100420002093B101F092D101E092D00186EE9FE3DA
:10043000A8ECB0E48093B2019093B301A093B4010F
:10044000B093B5018FE29DEDACEEBFE38093B601B2
:100450009093B701A093B801B093B90180E090E008
:10046000A0E2B1E48093BA019093BB01A093BC01D8
:10047000B093BD018AEA92E8ACE0B1E48093BE019A
:100480009093BF01A093C001B093C1018AE191E5AF
:10049000A2ECB0E48093C2019093C301A093C40185
:1004A000B093C50180E090E0ACE0B2E48093C60177
:1004B0009093C701A093C801B093C90183E092E073
:1004C0009093CB018093CA0187EA90E09093CD018D
:1004D0008093CC018AE590E09093CF018093CE0188
:1004E000DF91CF910F91FF90EF90089580E090E021
:1004F0006FEF7FEF0E946001089581E090E06FEF61
:100500007FEF0E946001089580E090E0A8ECB2ECDB
:100510008093D6019093D701A093D801B093D901CD
:100520000895EF92FF920F931F93CF93DF937B0178
:100530008C013FB7F8948091DA019091DB01A09192
:10054000DC01B091DD0126B5A89B05C02F3F19F055
:100550000196A11DB11D3FBFBA2FA92F982F882743
:10056000820F911DA11DB11D52E0880F991FAA1F76
:10057000BB1F5A95D1F7EC0130C00E9484053FB7EC
:10058000F8948091DA019091DB01A091DC01B091A7
:10059000DD0126B5A89B05C02F3F19F00196A11DCE
:1005A000B11D3FBFBA2FA92F982F8827820F911D09
:1005B000A11DB11D32E0880F991FAA1FBB1F3A95DC
:1005C000D1F78C1B9D0B885E9340B8F20894E1082C
:1005D000F10801091109C851DC4FE114F1040105CA
:1005E000110559F6DF91CF911F910F91FF90EF9078
:1005F0000895CF93DF93482F50E0CA01885B9F4F47
:10060000FC013491465D5F4FFA018491882369F1C2
:1006100090E0880F991FFC01E050F040A591B49143
:10062000FC01E25FFF4FC591D491662351F42FB7CF
:10063000F8948C91932F909589238C9388818923AA
:100640000BC0623061F42FB7F8948C91932F909582
:1006500089238C938881832B88832FBF06C09FB703
:10066000F8948C91832B8C939FBFDF91CF91089549
:10067000883071F1893068F4823031F1833020F4B0
:10068000813009F042C01DC0833089F08430E9F523
:1006900012C08B3059F18C3028F48930E9F08A305F
:1006A000A1F51EC08C3031F18E3079F529C08091D2
:1006B00080008F7703C0809180008F7D80938000C1
:1006C000089584B58F7702C084B58F7D84BD089569
:1006D000809190008F7707C0809190008F7D03C03C
:1006E00080919000877F8093900008958091C00052
:1006F0008F7703C08091C0008F7D8093C0000895E4
:100700008091C200877F8093C2000895FF920F936B
:100710001F93F62E482F50E0CA018A599F4FFC01C3
:100720002491CA01885B9F4FFC011491465D5F4F85
:10073000FA0104910023C9F0222319F0822F0E94AC
:100740003803E02FF0E0EE0FFF1FE25FFF4FA591AF
:10075000B4919FB7F894FF2021F48C9110958123D8
:1007600002C08C91812B8C939FBF1F910F91FF90A2
:100770000895FC012485858530E0205C3F4F281BCF
:1007800031092F733070C9010895FC019485858566
:10079000981719F42FEF3FEF06C08585E80FF11D7C
:1007A0008685282F30E0C9010895DC011C969C91B4
:1007B0001C971D968C911D97981719F42FEF3FEFFA
:1007C00010C01D968C911D97FD01E80FF11D9685B7
:1007D0001D968C911D978F5F8F731D968C93292F7B
:1007E00030E0C90108951092E1011092E00188EE15
:1007F00093E0A0E0B0E08093E2019093E301A09346
:10080000E401B093E5018CE690E09093DF018093E2
:10081000DE0108950F931F93DF93CF930F92CDB70F
:10082000DEB78C01698380916700882369F083E0DB
:10083000BE016F5F7F4F41E050E00E94DF04181659
:10084000190614F49C0107C081E090E0F80193833D
:10085000828320E030E0C9010F90CF91DF911F919A
:100860000F91089583E00E94D40408950F931F937D
:10087000CF93DF938C01FC010FC082E00E94BB0488
:100880009C01FFEF8F3F9F0799F0F8018485E80FE7
:10089000F11D2687F801C4878485C82FD0E02196F2
:1008A000CF73D070F801858590E0C817D90729F774
:1008B000DF91CF911F910F910895CF92DF92EF9228
:1008C000FF920F931F93CF93DF937C016B018A01FB
:1008D000C0E0D0E00FC0D6016D916D01D701ED9160
:1008E000FC910190F081E02DC7010995C80FD91F37
:1008F000015010400115110571F7CE01DF91CF9124
:100900001F910F91FF90EF90DF90CF900895282FC7
:1009100080912E028823C1F057FF1AC015C0289875
:1009200090932D028091F1008193E217F307B9F7BC
:100930004115510539F08091F200882319F48BE6B6
:100940008093E800AFBF02C04FEF5FEFCA01089588
:10095000AFB7F89427702093E9008091F200282F18
:1009600030E0241735070CF4A901FB019B01240F8B
:10097000311D94E6DACFDF93CF930F92CDB7DEB778
:10098000BE016F5F7F4F41E050E00E9487040197F6
:1009900019F02FEF3FEF03C08981282F30E0C90104
:1009A0000F90CF91DF9108958093E9008091F2003C
:1009B000882319F08AE38093E800089508955F92F0
:1009C0006F927F928F929F92AF92BF92CF92DF925F
:1009D000EF92FF920F931F93CF93DF93E82E842E15
:1009E000752E80912E02882371F18B01242F352FD3
:1009F000C901EC01AAEFFA2EF7E09F2E9E20E0E459
:100A00005E2E8E2D90E070E2A72EB12CA822B92286
:100A10006AE3662E50E4C52ED12CC822D92258C0D4
:100A20009FB7F8949092E9008091E80085FD02C09C
:100A300020E004C08091F200252D281B9FBF2223B7
:100A400061F4FA9419F42FEF3FEF4DC061E070E0CC
:100A500080E090E00E9491023BC0822F90E0C81796
:100A6000D9070CF42C2FC21BD1094FB7F8949092E0
:100A7000E900A114B10421F406C01092F100215044
:100A80002223D9F719C0E7FC03C0F801922F10C048
:100A9000C801322F06C0FC010196E491E093F100F9
:100AA00031503323C1F706C081918093F1009150FA
:100AB0009923D1F7020F111D8091E80085FF05C031
:100AC000209729F4C114D10411F06092E8004FBFBF
:100AD000209709F0A5CF5D9884E680932C02282DFD
:100AE000372DC9019C01C901DF91CF911F910F9151
:100AF000FF90EF90DF90CF90BF90AF909F908F903E
:100B00007F906F905F9008950895EF92FF920F93FA
:100B10001F938C01E62EDC01ED91FC910480F581A0
:100B2000E02D0995F82ED801ED91FC910680F78112
:100B3000E02DC8016E2D09958F2D90E01F910F912A
:100B4000FF90EF90089510922F02109233021092AE
:100B500032028EE790E09093310280933002089544
:100B6000EF92FF920F931F93DF93CF930F92CDB726
:100B7000DEB789838B017A0184E0BE016F5F7F4F0E
:100B800041E050E00E94DF0484E4B801A7010E9424
:100B9000DF040F90CF91DF911F910F91FF90EF90A5
:100BA000089582E048E050E00E94B0050895FC01FD
:100BB0001682178210861186128613861482349646
:100BC000BF010E94D1050895DC01683810F0685813
:100BD00029C0E62FF0E067FF13C0E058F04081E045
:100BE00090E002C0880F991FEA95E2F7809514966D
:100BF0002C911497282314962C93149760E012C01C
:100C0000E25FFE4F6491662319F420E030E01DC0DE
:100C100067FF08C014968C9114978D7F14968C935F
:100C200014976F77FD0190E0662321F08681861787
:100C300009F416829F5F31969630B1F7CD01149674
:100C4000BD010E94D10521E030E0C9010895CF9394
:100C5000DF93DC01683810F0685825C0E62FF0E01B
:100C600067FF12C0E058F04081E090E002C0880FBA
:100C7000991FEA95E2F714962C911497282B149655
:100C80002C93149760E00FC0E25FFE4F64916623DF
:100C9000D9F167FF08C014968C911497826014965E
:100CA0008C9314976F7716968C9116978617A9F1E7
:100CB00017968C911797861781F118968C91189733
:100CC000861759F119968C911997861731F11A9652
:100CD0008C911A97861709F11B968C911B97861792
:100CE000E1F0ED01E0E0F0E09E2F8E81882321F419
:100CF000EA0FFB1F668306C09F5F31962196E630A0
:100D0000F10591F7963049F481E090E013969C93B9
:100D10008E93129720E030E007C0CD011496BD01FC
:100D20000E94D10521E030E0C901DF91CF91089503
:100D3000EE0FFF1FC89531960F92C8950F92089538
:100D400011E0CAE9D1E004C0FD2FEC2FF3DF2296B9
:060D5000CC39D107C9F700
:100D560000E1000000000000000000000A045D043D
:100D6600B903D503C5033204360400000000850527
:080D76005D042706E405D70522
:00000001FF
