:100000000C94FA000C9422010C9422010C9422010D
:100010000C9422010C9422010C9422010C942201D4
:100020000C9422010C9422010C940B0B0C942201D1
:100030000C9460100C9422010C9422010C94220167
:100040000C9422010C9422010C9422010C942201A4
:100050000C9422010C9422010C9422010C943D0971
:100060000C9422010C9422010C9422010C94220184
:100070000C9422010C9422010C9422010C94220174
:100080000C941C030C9422010C9422010C94560233
:100090000C9422010C9422010C9422010C94220154
:1000A0000C9422010C9422010C9422010000000007
:1000B000240027002A002D00300000000000250049
:1000C00028002B002E003100000000002300260035
:1000D00029002C002F000404040204040304040279
:1000E00002020202060606060606020503020405CF
:1000F0000408014020804002408001040802804042
:10010000201002011040802010040000000C000E9E
:1001100000000001000000000000000000000000DE
:100120000B000000070605040100080E0F10000177
:10013000000004050607202122232425271E1F0670
:1001400000FF0901A1010902150025FF75089508A6
:1001500081020903150025FF750895089102C01258
:1001600001100100000008EB034F20010001020014
:100170000109022900010100C03209040000020344
:100180000000000921110100012220000705810360
:10019000080001070502030800010403090418030D
:1001A0004400650061006E002000430061006D00A6
:1001B00065007200610000002C034C0055004600F1
:1001C00041002000470065006E0065007200690074
:1001D00063002000480049004400200044006500FE
:1001E0006D006F000000850133055A054A071709A5
:1001F0009D0A2C0511241FBECFEFDAE0DEBFCDBF74
:1002000011E0A0E0B1E0E0E8F8E202C005900D9254
:10021000A231B107D9F713E0A2E1B1E001C01D920C
:10022000AC38B107E1F711E0C2EFD1E004C022978A
:10023000FE010E94F813C63ED107C9F70E94570776
:100240000C9433140C940000A0E0B0E0EAE2F1E07A
:100250000C940414EC01A880B980CA80DB80A1143E
:10026000B104C104D10441F484E2A82E89EDB82E72
:100270008BE5C82E87E0D82EC601B5012DE133EFFE
:1002800041E050E00E94C71327EA31E440E050E02B
:100290000E9473137B018C01C601B5012DE133EF80
:1002A00041E050E00E94C713CA01B9012CEE34EFBF
:1002B0004FEF5FEF0E9473136E0D7F1D801F911F24
:1002C00097FF04C0615070408040904868837983F4
:1002D0008A839B839B01AC015F77B901CA01CDB7CB
:1002E000DEB7EAE00C9420140E942401089582E015
:1002F00091E00E942401089560930201709303012C
:100300008093040190930501089580E090E0A8ECAB
:10031000B2EC8093120190931301A0931401B09357
:1003200015010895AF92BF92CF92DF92EF92FF92A4
:100330000F931F93CF93DF93EC01D42EC52EB62ECF
:10034000A72EE0901201F09013010091140110917A
:100350001501642F752F8B2D9A2DA80197010E94EE
:10036000BD1187FD1DC06D2D7C2D8B2D9A2D20E09C
:1003700030E048EC52E40E940C1318165CF40F2E87
:10038000F0E0EF2EF0E0FF2EF8EC0F2FF2E41F2F3D
:10039000F02D06C08D2D9C2DAB2DBA2D7C018D012D
:1003A0008A819B81AC81BD818E839F83A887B98719
:1003B000EA82FB820C831D838881882321F417FB4A
:1003C000109517F91095C801B70120E030E048EC0E
:1003D00052E40E94C11120E030E04FE753E40E9454
:1003E00010135B016C01EA84FB840C851D85A80158
:1003F00097010E940C1318165CF4888961E00E9432
:10040000E5068A8960E00E94E506C601B50114C0D0
:10041000A80197015058C601B5010E94BD1188235B
:10042000A4F4888960E00E94E5068A8961E00E9460
:10043000E506C601B50190580E9429129B01AC0146
:100440008E85B9010E94C30511C08E8560E070E001
:100450000E94C3058E8560E00E94E506888960E001
:100460000E94E5068A8960E00E94E5061982DF9114
:10047000CF911F910F91FF90EF90DF90CF90BF90A1
:10048000AF900895FC0160838181882339F4428113
:10049000538164817581CF010E9492010895FC010E
:1004A0001382609316011092180108951F920F9203
:1004B0000FB60F9211242F933F934F935F936F9337
:1004C0007F938F939F93AF93BF93EF93FF9381EAB3
:1004D0009FEF9093950080939400809116010E9465
:1004E0001A07482F8091190190911A010196909353
:1004F0001A01809319018091B3018C3418F085E0C2
:1005000080931701809117018330D1F0843020F45B
:10051000823009F059C006C0843071F1853009F08D
:1005200053C04CC0442309F04FC0809119019091F1
:100530001A018436910508F443C01092B3011EC01D
:10054000413009F041C08091B301E82FF0E02091E3
:10055000190130911A01EE0FFF1FEA5EFE4F36833C
:1005600025838F5F8093B30110921A0110921901B5
:1005700084E08093170128C04423B9F48091B3012B
:10058000E82FF0E02091190130911A01EE0FFF1FC2
:10059000EA5EFE4F368325838F5F8093B30110920E
:1005A0001A011092190183E0E4CF80911901909112
:1005B0001A018536910540F085E0DBCF442321F414
:1005C00010921A011092190180911801882329F0C4
:1005D000442311F42D9A01C02D98FF91EF91BF9102
:1005E000AF919F918F917F916F915F914F913F91CB
:1005F0002F910F900FBE0F901F901895FC018FEF59
:100600009FEF918380838091B4018C3090F482833A
:100610008F5F8093B401815090E0FC01EE0FFF1FCB
:10062000E80FF91FEB54FE4F88EB9BE09283818328
:1006300008958FEF828308951F920F920FB60F9245
:1006400011242F933F934F935F936F937F938F93D7
:100650009F93AF93BF93EF93FF938091D90187FF4F
:1006600005C010929500109294002BC02091D901E2
:10067000332727FD30958091B40190E02817390782
:1006800004F58091D901992787FD9095FC01EE0F23
:10069000FF1FE80FF91FEB54FE4F808186FF11C04A
:1006A0008091D901992787FD9095FC01EE0FFF1FDE
:1006B000E80FF91FEB54FE4F80818F7360E00E94BA
:1006C000E5068091D9018F5F8093D9012091D901EE
:1006D000332727FD30958091B40190E02817390722
:1006E0000CF04EC08091D9018C300CF049C02091A3
:1006F0009400309195008091D901992787FD9095BC
:10070000FC01EE0FFF1FE80FF91FEB54FE4F818134
:100710009281280F391F309399002093980080917F
:10072000D901992787FD9095FC01EE0FFF1FE80F77
:10073000F91FEB54FE4F808186FF2AC08091D901BA
:10074000992787FD9095FC01EE0FFF1FE80FF91F19
:10075000EB54FE4F80818F7361E00E94E50618C064
:1007600080E49CE905C080919400909195000496E6
:1007700090939900809398008FEF8093D90108C0DF
:10078000809194009091950084549C4948F3EBCF5C
:10079000FF91EF91BF91AF919F918F917F916F9159
:1007A0005F914F913F912F910F900FBE0F901F902F
:1007B0001895EF92FF920F931F93FC01162FF42EC2
:1007C000E22E0083118280E090E0A0E0B0E082831E
:1007D0009383A483B58386839783A087B1878DECA9
:1007E0009CECACECBDE382879387A487B5876687D2
:1007F0007787408B518B228B338B862F61E00E9451
:1008000068068F2D61E00E9468068E2D61E00E94CF
:100810006806812F60E00E94E5068F2D60E00E944F
:10082000E5068E2D60E00E94E5061F910F91FF9076
:10083000EF900895EF92FF920F93CF93DF93EC0127
:100840007B018130910509F001C18FEF6F3F78077F
:1008500009F0FCC080E090E0A8ECB2EC8093580274
:1008600090935902A0935A02B0935B028AED91E0F3
:1008700066E170E044E150E025E130E001E00E94F3
:10088000D9038EEE91E063E070E044E050E028E0B0
:1008900030E00E94D90382E092E00E94FE0287E0ED
:1008A00092E00E94FE028CE092E06EE070E00E9416
:1008B0004F021092110210921002D0931302C093B3
:1008C000120225E020931402F0923402E0923302E7
:1008D0008DE292EBA6E6B1E48093150290931602A6
:1008E000A0931702B093180284E299EBACEDBFE33A
:1008F0008093190290931A02A0931B02B0931C02DA
:1009000080E090E0A0EAB1E480931D0290931E0283
:10091000A0931F02B093200284EB98ECA1E9B1E40C
:100920008093210290932202A0932302B093240289
:1009300083E49CE1ADEAB0E4809325029093260223
:10094000A0932702B093280280E090E0ACE8B2E4E4
:100950008093290290932A02A0932B02B0932C0239
:100960008EEF91E090932E0280932D0289EB90E020
:100970009093300280932F0285E690E090933202AC
:1009800080933102D0933602C09335022093370210
:10099000F0925702E092560286EE9FE3A8ECB0E494
:1009A0008093380290933902A0933A02B0933B02AD
:1009B0008FE29DEDACEEBFE380933C0290933D024D
:1009C000A0933E02B0933F0280E090E0A0E2B1E449
:1009D0008093400290934102A0934202B09343025D
:1009E0008AEA92E8ACE0B1E4809344029093450235
:1009F000A0934602B09347028AE191E5A2ECB0E4ED
:100A00008093480290934902A0934A02B0934B020C
:100A100080E090E0ACE0B2E480934C0290934D0211
:100A2000A0934E02B0934F0283E092E09093510264
:100A30008093500287EA90E0909353028093520291
:100A40008AE590E09093550280935402DF91CF9114
:100A50000F91FF90EF90089580E090E06FEF7FEFAF
:100A60000E941A04089581E090E06FEF7FEF0E94EA
:100A70001A04089588EE92E040E052EC61E070E0E4
:100A80000E94160980E00E948A050E94950A8EEE57
:100A900091E060E00E94420280E190E090930302C6
:100AA0008093020281E190E0909308028093070214
:100AB0000895089580E090E0A8ECB2EC80935C0289
:100AC00090935D02A0935E02B0935F0208950E942E
:100AD0003A0560E070E080E090E020E137E240E03D
:100AE00050E00E94770A0E945C122AE037ED43E250
:100AF0005CE30E941013AB01BC0188EE92E022E09F
:100B000030E00E94F0086CE271E080E090E00E942A
:100B10008509DFCFE82FF0E0EC5DFE4FE491F0E0D7
:100B2000E25DFE4FE4918091060190E026E0880F9F
:100B3000991F2A95E1F780937C0090917C008E2F7D
:100B40008F71892B80937C00E5FF04C080917B002E
:100B5000806203C080917B008F7D80937B008091B9
:100B60007A00806480937A0080917A0086FDFCCFC1
:100B70002091780040917900942F80E030E0282B7C
:100B8000392BC90108951F93CF93DF93182FEB01E1
:100B900061E00E946806209709F48FC0CF3FD1051D
:100BA00009F48EC0E12FF0E0E65FFE4F84918730BC
:100BB00009F44AC0883080F4833051F1843030F435
:100BC0008130E1F0823009F075C01DC0843051F1F0
:100BD000863009F06FC030C08A3009F451C08B30C4
:100BE00030F48830C9F1893009F064C03FC08B30DF
:100BF00009F450C08C3009F05DC054C084B58068E1
:100C000084BDC7BD61C084B5806284BDC8BD5CC001
:100C100080918000806880938000D0938900C09389
:100C2000880052C080918000806280938000D093C1
:100C30008B00C0938A0048C08091B0008068809388
:100C4000B000C093B30040C08091B0008062809338
:100C5000B000C093B40038C0809190008068809349
:100C60009000D0939900C09398002EC0809190007E
:100C7000806280939000D0939B00C0939A0024C020
:100C800080919000886080939000D0939D00C093E5
:100C90009C001AC08091C00080688093C000C093FF
:100CA000CF0012C08091C00080628093C000C093CA
:100CB000D0000AC0C038D1051CF4812F60E002C00A
:100CC000812F61E00E94E506DF91CF911F91089589
:100CD000482F50E0CA0180519F4FFC0124914A5295
:100CE0005F4FFA0184918823C1F0E82FF0E0EE0F06
:100CF000FF1FE455FF4FA591B491662341F49FB7C0
:100D0000F8948C91209582238C939FBF08959FB770
:100D1000F8948C91822B8C939FBF08958730A9F112
:100D2000883080F48330E1F0843030F4813011F188
:100D3000823009F049C021C08430B1F0863009F01A
:100D400043C01FC08A3079F18B3028F4883019F104
:100D50008930D1F524C08B3061F18C30A9F52FC0DA
:100D6000809180008F7703C0809180008F7D809379
:100D70008000089584B58F7702C084B58F7D84BDCF
:100D800008958091B0008F7703C08091B0008F7D6F
:100D90008093B0000895809190008F7707C0809174
:100DA00090008F7D03C080919000877F809390009A
:100DB00008958091C0008F778093C000089580913E
:100DC000C0008F7D8093C0000895FF920F931F9302
:100DD000F62E482F50E0CA01865F9E4FFC012491F9
:100DE000CA0180519F4FFC0114914A525F4FFA0192
:100DF00004910023D9F0222319F0822F0E948E063D
:100E0000E02FF0E0EE0FFF1FE654FF4FA591B491E5
:100E1000FF2031F49FB7F8948C911095812304C082
:100E20009FB7F8948C91812B8C939FBF1F910F914A
:100E3000FF9008950F931F93482F50E0CA01865FDB
:100E40009E4FFC012491CA0180519F4FFC010491E7
:100E50004A525F4FFA011491112319F420E030E057
:100E600015C0222319F0822F0E948E06812F90E058
:100E7000880F991F88539F4FFC01A591B4918C91C5
:100E800020E030E0802311F021E030E0C9011F9123
:100E90000F91089580E090E0A8ECB2EC809360029E
:100EA00090936102A0936202B093630208950E943E
:100EB000DE0988EE92E040E855E260E070E00E94D2
:100EC00016090E9467050E945905FDCFDC01ED91CE
:100ED000FC910280F381E02D099508952F923F92B5
:100EE0004F925F926F927F928F929F92AF92BF923A
:100EF000CF92DF92EF92FF920F931F93DF93CF93E6
:100F0000CDB7DEB7A0970FB6F894DEBF0FBECDBF4A
:100F10001C016A017B01411551056105710549F408
:100F200040E350E060E070E020E030E00E9417080D
:100F300056C0882499245401422E552466247724CF
:100F400001E010E00C0F1D1F080D191DC701B601AF
:100F5000A30192010E94A513F80160830894811CEB
:100F6000911CA11CB11CC701B601A30192010E94F2
:100F7000A513C901DA016C017D01C114D104E1049A
:100F8000F104F1F681E0E82EF12CEC0EFD1EE80CE8
:100F9000F91C3E010894611C711CD501C401019724
:100FA000A109B1096C01C818D90816C0F601EE0DE7
:100FB000FF1D40814A3010F4405D01C0495C552757
:100FC00047FD5095652F752FC10120E030E00E944C
:100FD00017080894E108F1086E147F0439F7A09609
:100FE0000FB6F894DEBF0FBECDBFCF91DF911F913A
:100FF0000F91FF90EF90DF90CF90BF90AF909F90B8
:101000008F907F906F905F904F903F902F900895BA
:10101000DC012115310541F4ED91FC910190F08145
:10102000E02D642F099508950E946E070895EF92B0
:10103000FF920F931F93CF93DF93EC017A018B0103
:101040002115310541F4E881F9810190F081E02D0D
:10105000642F09951BC02A303105B1F477FF10C009
:101060004DE250E060E070E020E030E00E941708C0
:1010700010950095F094E094E11CF11C011D111DE8
:10108000CE01B801A7012AE00E946E07DF91CF913F
:101090001F910F91FF90EF9008950F931F938C0174
:1010A0004DE050E060E070E020E030E00E94170882
:1010B000C8014AE050E060E070E020E030E00E94CB
:1010C00017081F910F9108959F92AF92BF92CF92F0
:1010D000DF92EF92FF920F931F93CF93DF93EC0178
:1010E0007A018B01922ECB01BA0120E030E040E082
:1010F00050E00E94BD1188236CF4CE014DE250E017
:1011000060E070E020E030E00E94170817FB1095C7
:1011100017F9109520E030E040E05FE3AA240BC00F
:10112000CA01B90120E030E040E251E40E94C1115F
:101130009B01AC01A394A91498F3C801B7010E94C4
:1011400059115B016C010E942E127B018C01CE01B2
:10115000B801A7012AE030E00E940808992029F090
:10116000CE0160E071E00E946607C801B7010E94ED
:101170005A129B01AC01C601B5010E94581122C050
:1011800020E030E040E251E40E9410137B018C012A
:101190000E9429125B016C01CC24B7FCC094DC2CAA
:1011A000CE01B601A5012AE030E00E941708C60171
:1011B000B5010E945C129B01AC01C801B7010E94FD
:1011C00058119A949920E1F6DF91CF911F910F91D8
:1011D000FF90EF90DF90CF90BF90AF909F900895D9
:1011E0000F931F938C010E946408C8010E944D0850
:1011F0001F910F910895462FE091E402F091E502CE
:10120000CF01019660E870E00E9492139C018091EA
:10121000E6029091E7022817390739F0EC59FD4FA3
:1012200040833093E5022093E402089508958BE013
:1012300091E09093E9028093E80284E692E0909333
:10124000EC028093EB020895CB010E94370F0895C2
:10125000CB010E94370F0895DF93CF9300D0CDB715
:10126000DEB71A8219826983CE0101960E94370F78
:101270000F900F90CF91DF9108951F920F920FB6AC
:101280000F9211242F933F938F939F93AF93BF930C
:101290008091F1029091F202A091F302B091F402D8
:1012A0003091F5020196A11DB11D232F2D5F2D3721
:1012B00020F02D570196A11DB11D2093F5028093BA
:1012C000F1029093F202A093F302B093F4028091A2
:1012D000ED029091EE02A091EF02B091F002019622
:1012E000A11DB11D8093ED029093EE02A093EF0239
:1012F000B093F002BF91AF919F918F913F912F9149
:101300000F900FBE0F901F9018959B01AC017FB7F7
:10131000F8948091ED029091EE02A091EF02B091CD
:10132000F00266B5A89B05C06F3F19F00196A11D9C
:10133000B11D7FBFBA2FA92F982F8827860F911D27
:10134000A11DB11D62E0880F991FAA1FBB1F6A95DE
:10135000D1F7BC012DC0FFB7F8948091ED029091B8
:10136000EE02A091EF02B091F002E6B5A89B05C095
:10137000EF3F19F00196A11DB11DFFBFBA2FA92F94
:10138000982F88278E0F911DA11DB11DE2E0880FB7
:10139000991FAA1FBB1FEA95D1F7861B970B885E82
:1013A0009340C8F2215030404040504068517C4F3B
:1013B000211531054105510571F6089584B7877FE0
:1013C00084BF88E10FB6F8948093600010926000AB
:1013D0000FBE80E090E020E80FB6F8942093610003
:1013E000809361000FBE0E94F10A789484B58260F8
:1013F00084BD84B5816084BD85B58B7F85BD85B591
:10140000826085BD85B5816085BDEEE6F0E08081B6
:101410008160808384B58F7B84BD85B5877F85BDE2
:10142000E0ECF0E080818F7B808380818F7E808301
:10143000808182608083808181608083E1ECF0E044
:101440008081877F808380818B7F808380818D7F77
:101450008083808181608083E3ECF0E080818B7FFA
:101460008083A2ECB0E08C9181608C9380818D7F31
:101470008083808181608083EAE7F0E080818460FE
:10148000808380818260808380818160808380818D
:101490008068808390EC88E10FB6F894A8958093DB
:1014A0006000909360000FBE0895EF92FF920F933B
:1014B0001F937B018C01611571058105910529F44C
:1014C00020E030E040E050E00BC00E947701A8012E
:1014D00097010E94C713AC01CB01DA019C01AD0159
:1014E000B901CA011F910F91FF90EF900895EF92FB
:1014F000FF920F931F937B018C0162177307840780
:10150000950764F4261B370B480B590BCA01B90128
:101510000E94550AE60EF71E081F191FB701C801E1
:101520001F910F91FF90EF900895009729F0BC0153
:1015300080E090E00E947C01089580E090E0A8ECBB
:10154000B2EC8093F6029093F702A093F802B09366
:10155000F9020895EF92FF920F931F930E94FE0AE3
:101560000E94060B08ED10E0F8018081982F9F770C
:1015700090838068808380818F7D808319BC1092E6
:101580008303109281031092800310927F0380EEF8
:10159000E82EF12CF70180818B7F8083F801808118
:1015A0008160808380E060E042E00E94D010E1EE44
:1015B000F0E080818E7F8083E2EEF0E080818160C8
:1015C0008083808188608083F70180818E7F808323
:1015D000F8018081806180831F910F91FF90EF90CF
:1015E0000895E7EDF0E08081816080838AE482BF26
:1015F00081E0809382030E94AA0A0895E8EDF0E05A
:1016000080818E7F80831092E20008951092DA002C
:101610001092E10008951F920F920FB60F921124BD
:101620002F933F934F935F936F937F938F939F93EA
:10163000AF93BF93EF93FF938091E10082FF0BC0C4
:101640008091E20082FF07C08091E1008B7F809350
:10165000E1000E94220F8091DA0080FF20C080917B
:10166000D80080FF1CC08091DA008E7F8093DA0062
:101670008091D90080FF0EC080E189BD89B582606C
:1016800089BD09B400FEFDCF81E0809383030E94F1
:10169000640F05C019BC109283030E94650F8091EE
:1016A000E10080FF19C08091E20080FF15C08091A9
:1016B000E2008E7F8093E2008091E200806180935F
:1016C000E2008091D80080628093D80019BC85E048
:1016D000809383030E94220F8091E10084FF2FC03A
:1016E0008091E20084FF2BC080E189BD89B58260D2
:1016F00089BD09B400FEFDCF8091D8008F7D809315
:10170000D8008091E1008F7E8093E1008091E2001B
:101710008F7E8093E2008091E20081608093E200FE
:1017200080918103882331F48091E30087FD02C01A
:1017300081E001C084E0809383030E94220F8091A6
:10174000E10083FF24C08091E20083FF20C08091EC
:10175000E100877F8093E10082E080938303109211
:1017600081038091E1008E7F8093E1008091E2000F
:101770008E7F8093E2008091E20080618093E2009E
:1017800080E060E042E00E94D0100E94220FFF91B2
:10179000EF91BF91AF919F918F917F916F915F91E9
:1017A0004F913F912F910F900FBE0F901F90189562
:1017B0000F931F93DF93CF93CDB7DEB7AC970FB6E0
:1017C000F894DEBF0FBECDBF8091F10080938403FB
:1017D0008091F100809385038091F1009091F10058
:1017E000E6E8F3E080938603909387038091F1000D
:1017F0009091F1008093880393838091F100909100
:10180000F10080938A0395830E9404108091E80080
:1018100083FF41C18091840330918503353009F401
:1018200087C0363040F43130C9F1313070F0333098
:1018300009F031C133C0383009F4FCC0393009F443
:101840000CC1363009F027C19AC0803821F08238A7
:1018500009F021C108C090917F0380918003882303
:1018600099F0926011C08091880387708093E9009D
:101870008091EB0090E025E0969587952A95E1F719
:10188000982F91701092E9008091E800877F8093F3
:10189000E8009093F1001092F100D7C0882319F06E
:1018A000823009F0F8C090E08F719070009721F0BD
:1018B000029709F0F0C00CC080918603813009F0D6
:1018C000EAC010928003333069F5809380032AC008
:1018D00080918603882331F520918803277009F4CD
:1018E000DAC02093E9008091EB0080FF1BC0333009
:1018F00021F48091EB00806213C08091EB00806145
:101900008093EB0081E090E002C0880F991F2A9538
:10191000E2F78093EA001092EA008091EB00886081
:101920008093EB001092E9008091E800877F90C0DF
:10193000882309F0B0C0109186031F770FB7F89481
:101940008091E800877F8093E8000E9405118091D4
:10195000E80080FFFCCF8091E3008078812B8093AA
:10196000E3008091E30080688093E300112311F489
:1019700082E001C083E0809383030FBF8CC0805856
:10198000823008F088C0809186039091870323E01D
:101990008C3D920709F034C083E08C838AE28B830C
:1019A0007FB7F894DE0115966EE040E050E011E25A
:1019B000E62FF0E010935700849140FF03C082951A
:1019C0008F706F5F8F70282F30E08A3018F0C90158
:1019D000C79602C0C901C0968D939D934F5F5F4F1C
:1019E0004431510529F77FBF8091E800877F8093BC
:1019F000E800CE0103966AE270E00E94640D14C014
:101A000060918803AE014F5F5F4F0E949010BC0150
:101A1000009709F440C08091E800877F8093E80038
:101A200089819A810E94100E8091E8008B778093C3
:101A3000E80031C0803879F58091E800877F809395
:101A4000E800809181038093F1008091E8008E7717
:101A50008093E8000E9405111EC08823E1F4909154
:101A600086039230C0F48091E800877F8093E8007D
:101A7000909381030E94051180918103882331F4A2
:101A80008091E30087FD02C081E001C084E0809383
:101A900083030E9455108091E80083FF0AC0809163
:101AA000EB0080628093EB008091E800877F809359
:101AB000E800AC960FB6F894DEBF0FBECDBFCF9155
:101AC000DF911F910F9108959C0140918A035091DD
:101AD0008B034617570718F4F90190E045C06115CC
:101AE000710511F0AB01F8CF8091E8008E778093FB
:101AF000E80040E050E0F0CF80918303882309F4B0
:101B000045C0853009F444C08091E80083FF02C0DD
:101B100081E008958091E80082FD32C08091E80064
:101B200080FF22C08091F3009091F200782F60E056
:101B3000292F30E0262B372B07C081918093F100AD
:101B4000415050402F5F3F4F4115510519F028304B
:101B5000310598F390E02830310509F491E0809147
:101B6000E8008E778093E8004115510529F6992306
:101B700019F606C080918303882341F0853041F037
:101B80008091E80082FFF6CF80E0089582E008951A
:101B900083E008959C016115710529F48091E800A6
:101BA0008B778093E800F90127C080918303882315
:101BB00099F1853099F18091E80083FF02C081E0BE
:101BC00008958091E80082FFF0CF06C08091F10077
:101BD00081936150704059F02091F3008091F200A0
:101BE000322F20E090E0822B932B892B79F7809184
:101BF000E8008B778093E80061157105B1F606C0A7
:101C000080918303882341F0853041F08091E80082
:101C100080FFF6CF80E0089582E0089583E0089584
:101C20009C0140918A0350918B034617570718F483
:101C3000F90190E046C06115710511F0AB01F8CFD4
:101C40008091E8008E778093E80040E050E0F0CF8C
:101C500080918303882309F447C0853009F446C086
:101C60008091E80083FF02C081E008958091E80040
:101C700082FD34C08091E80080FF23C08091F30092
:101C80009091F200782F60E0292F30E0262B372B3F
:101C900008C084918093F1003196415050402F5FED
:101CA0003F4F4115510519F02830310590F390E070
:101CB0002830310509F491E08091E8008E77809317
:101CC000E8004115510521F6992309F0C1CF06C05E
:101CD00080918303882341F0853041F08091E800B2
:101CE00082FFF6CF80E0089582E0089583E00895B2
:101CF000BF92CF92DF92EF92FF920F931F93CF93F9
:101D0000DF93182F092F7B016A010E942611B82E3C
:101D10008823C1F5812F902F9C01E901C114D104C2
:101D200039F0F60180819181E81AF90AC80FD91FAC
:101D300000E010E024C08091E80085FD18C080918B
:101D4000E8008B778093E800C114D10449F0F601D4
:101D500080819181800F911F9183808385E013C0E2
:101D60000E94230F0E942611882349F00CC0809105
:101D7000F10089930894E108F1080F5F1F4FE11407
:101D8000F104C9F68B2DDF91CF911F910F91FF9038
:101D9000EF90DF90CF90BF900895BF92CF92DF92E7
:101DA000EF92FF920F931F93CF93DF93182F092F7A
:101DB0007B016A010E942611B82E8823C1F5812F6C
:101DC000902F9C01E901C114D10439F0F601808102
:101DD0009181E81AF90AC80FD91F00E010E024C069
:101DE0008091E80085FD18C08091E8008E7780938F
:101DF000E800C114D10449F0F60180819181800F7F
:101E0000911F9183808385E013C00E94230F0E945D
:101E10002611882349F00CC089918093F100089421
:101E2000E108F1080F5F1F4FE114F104C9F68B2D93
:101E3000DF91CF911F910F91FF90EF90DF90CF90A6
:101E4000BF90089508951F9380918303882369F0BC
:101E50001091E9001092E9008091E80083FF02C030
:101E60000E94D80B17701093E9001F910895EF920C
:101E7000FF921F93CF93DF937C01C0917C03D0919D
:101E80007D0340E015C0E0917A03F0917B03CF0120
:101E9000019660E870E00E9492138C179D0739F05C
:101EA000E650FD4F108390937B0380937A034F5F3E
:101EB000F701E40FF11D1081112329F7DF91CF9174
:101EC0001F91FF90EF90089508950895CF93DF93A9
:101ED000EC0181EB888321E030E0E0917C03F0911C
:101EE0007D0380917A0390917B03DE01A20FB31FE3
:101EF0008E179F0711F41C9216C0E650FD4F80818B
:101F00008C9380917C0390917D03019660E870E052
:101F10000E94921390937D0380937C032F5F3F4F29
:101F200028303105D1F6DF91CF910895FC018081F1
:101F3000813A19F0813BA9F40FC08181813089F485
:101F4000F89498E088E10FB6F894A8958093600023
:101F5000909360000FBEFFCF88EE92E061810E94F7
:101F6000FB0808950F931F93DF93CF93CDB7DEB790
:101F700028970FB6F894DEBF0FBECDBF82E08093E6
:101F8000E9008091E80082FF19C08091E80085FF98
:101F900010C08E010F5F1F4FC80168E070E040E085
:101FA00050E00E94780EC8010E94960F81E0809355
:101FB0007E038091E8008B778093E80081E0809336
:101FC000E9008091E80080FF14C08E010F5F1F4F71
:101FD000C8010E94660FC80168E070E040E050E070
:101FE0000E94CD0E8091E8008E778093E8001092D9
:101FF0007E0328960FB6F894DEBF0FBECDBFCF91FB
:10200000DF911F910F9108950F931F93DF93CF934B
:10201000CDB7DEB728970FB6F894DEBF0FBECDBFA1
:1020200080918503813019F08930A1F51AC0809123
:102030008403813A79F58E010F5F1F4FC8010E941A
:10204000660F8091E800877F8093E800C80168E010
:1020500070E00E94640D8091E8008B778093E80027
:1020600019C0809184038132A9F48091E800877FB0
:102070008093E8008E010F5F1F4FC80168E070E099
:102080000E94CA0D8091E8008E778093E800C80115
:102090000E94960F28960FB6F894DEBF0FBECDBFF4
:1020A000CF91DF911F910F91089581E061EC42E0A3
:1020B0000E94D01082E060EC42E00E94D0100895AF
:1020C0001F920F920FB60F9211242F933F934F93AD
:1020D0005F936F937F938F939F93AF93BF93EF9390
:1020E000FF930E94B20F0E94230F90EC88E10FB67D
:1020F000F894A89580936000909360000FBEFF91C4
:10210000EF91BF91AF919F918F917F916F915F916F
:102110004F913F912F910F900FBE0F901F901895E8
:10212000DA019330B1F0943028F4913041F09230DC
:1021300079F50AC0913211F1923251F524C0EFE5E0
:10214000F1E022E130E028C0E1E7F1E029E230E00F
:1021500023C0813049F0813018F08230C9F40AC0C0
:10216000EAE9F1E0849103C0EEE9F1E08491282FDF
:1021700030E012C0E8EBF1E08491F9CFE3E8F1E060
:1021800029E030E009C0EFE3F1E020E230E004C0F4
:10219000E0E0F0E020E030E0ED93FC93C901089529
:1021A000382F282F2CC02093E900231721F4762FF5
:1021B000942F50E006C07091EC009091ED0050918A
:1021C000F00091FF1BC08091EB008E7F8093EB00AD
:1021D0008091ED0082708093ED008091EB00816032
:1021E0008093EB007093EC009093ED005093F0001F
:1021F0008091EE0087FD02C080E008952F5F2730B8
:1022000090F23093E90081E008958091840388235F
:102210009CF404C0809183038823B9F08091E80086
:1022200082FFF8CF8091E8008B778093E8000895D3
:1022300080918303882349F08091E80080FFF8CFE4
:102240008091E8008E778093E80008954091E40043
:102250005091E50024E68091EC0080FF05C080915C
:10226000E80080FF05C022C08091E80082FD1EC00A
:1022700080918303882311F482E00895853011F45E
:1022800083E008958091EB0085FF02C081E008950E
:102290008091E4009091E50084179507E1F22223F4
:1022A00011F484E008952150AC01D5CF80E0089569
:1022B0005058BB27AA270ED075C166D130F06BD11C
:1022C00020F031F49F3F11F41EF45BC10EF4E09551
:1022D000E7FB51C1E92F77D180F3BA176207730783
:1022E0008407950718F071F49EF58FC10EF4E09500
:1022F0000B2EBA2FA02D0B01B90190010C01CA01C0
:10230000A0011124FF27591B99F0593F50F4503E6A
:1023100068F11A16F040A22F232F342F4427585F5C
:10232000F3CF469537952795A795F0405395C9F774
:102330007EF41F16BA0B620B730B840BBAF091502C
:10234000A1F0FF0FBB1F661F771F881FC2F70EC0CB
:10235000BA0F621F731F841F48F48795779567959E
:10236000B795F7959E3F08F0B3CF9395880F08F087
:102370009927EE0F979587950895D9D008F481E0B5
:1023800008950CD00FC107D140F0FED030F021F4F9
:102390005F3F19F0F0C0511139C1F3C014D198F367
:1023A0009923C9F35523B1F3951B550BBB27AA27D6
:1023B00062177307840738F09F5F5F4F220F331F48
:1023C000441FAA1FA9F333D00E2E3AF0E0E830D014
:1023D00091505040E695001CCAF729D0FE2F27D017
:1023E000660F771F881FBB1F261737074807AB07E5
:1023F000B0E809F0BB0B802DBF01FF2793585F4F5A
:102400002AF09E3F510568F0B6C000C15F3FECF373
:10241000983EDCF3869577956795B795F7959F5F1E
:10242000C9F7880F911D9695879597F90895E1E072
:10243000660F771F881FBB1F621773078407BA07D1
:1024400020F0621B730B840BBA0BEE1F88F7E0952C
:10245000089504D06894B111D9C00895BCD088F013
:102460009F5790F0B92F9927B751A0F0D1F0660F80
:10247000771F881F991F1AF0BA95C9F712C0B1309B
:1024800081F0C3D0B1E00895C0C0672F782F8827AE
:10249000B85F39F0B93FCCF3869577956795B395DA
:1024A000D9F73EF490958095709561957F4F8F4F49
:1024B0009F4F0895E89409C097FB3EF4909580954E
:1024C000709561957F4F8F4F9F4F9923A9F0F92FFA
:1024D00096E9BB279395F695879577956795B79578
:1024E000F111F8CFFAF4BB0F11F460FF1BC06F5F5E
:1024F0007F4F8F4F9F4F16C0882311F096E911C070
:10250000772321F09EE8872F762F05C0662371F090
:1025100096E8862F70E060E02AF09A95660F771FA4
:10252000881FDAF7880F9695879597F90895990F80
:102530000008550FAA0BE0E8FEEF16161706E8078D
:10254000F907C0F012161306E407F50798F0621BAE
:10255000730B840B950B39F40A2661F0232B242B83
:10256000252B21F408950A2609F4A140A6958FEFA2
:10257000811D811D089597F99F6780E870E060E0F4
:1025800008959FEF80EC089500240A94161617060C
:1025900018060906089500240A9412161306140654
:1025A00005060895092E0394000C11F4882352F0B7
:1025B000BB0F40F4BF2B11F460FF04C06F5F7F4F6F
:1025C0008F4F9F4F089557FD9058440F551F59F056
:1025D0005F3F71F04795880F97FB991F61F09F3F10
:1025E00079F087950895121613061406551FF2CF39
:1025F0004695F1DF08C0161617061806991FF1CF89
:1026000086957105610508940895E894BB276627AF
:102610007727CB0197F908958ADF08F48FEF0895A3
:102620000BD0C0CFB1DF28F0B6DF18F0952309F04A
:10263000A2CFA7CF1124EACFC6DFA0F3959FD1F395
:10264000950F50E0551F629FF001729FBB27F00D60
:10265000B11D639FAA27F00DB11DAA1F649F6627B5
:10266000B00DA11D661F829F2227B00DA11D621F04
:10267000739FB00DA11D621F839FA00D611D221FBE
:10268000749F3327A00D611D231F849F600D211DA2
:10269000822F762F6A2F11249F5750408AF0E1F045
:1026A00088234AF0EE0FFF1FBB1F661F771F881F8E
:1026B00091505040A9F79E3F510570F05CCFA6CFD6
:1026C0005F3FECF3983EDCF3869577956795B79579
:1026D000F795E7959F5FC1F7FE2B880F911D9695A3
:1026E000879597F90895629FD001739FF001829FAB
:1026F000E00DF11D649FE00DF11D929FF00D839F91
:10270000F00D749FF00D659FF00D9927729FB00D2D
:10271000E11DF91F639FB00DE11DF91FBD01CF0140
:102720001124089597FB092E07260AD077FD04D0BF
:1027300049D006D000201AF4709561957F4F089516
:10274000F6F7909581959F4F0895A1E21A2EAA1B46
:10275000BB1BFD010DC0AA1FBB1FEE1FFF1FA21751
:10276000B307E407F50720F0A21BB30BE40BF50B4E
:10277000661F771F881F991F1A9469F760957095D7
:10278000809590959B01AC01BD01CF01089597FB09
:10279000092E05260ED057FD04D0D7DF0AD0001C25
:1027A00038F450954095309521953F4F4F4F5F4FEE
:1027B0000895F6F790958095709561957F4F8F4FAE
:1027C0009F4F0895AA1BBB1B51E107C0AA1FBB1F47
:1027D000A617B70710F0A61BB70B881F991F5A95AD
:1027E000A9F780959095BC01CD010895EE0FFF1FCC
:1027F0000590F491E02D09942F923F924F925F92B1
:102800006F927F928F929F92AF92BF92CF92DF9200
:10281000EF92FF920F931F93CF93DF93CDB7DEB765
:10282000CA1BDB0B0FB6F894DEBF0FBECDBF0994F9
:102830002A88398848885F846E847D848C849B8450
:10284000AA84B984C884DF80EE80FD800C811B815E
:10285000AA81B981CE0FD11D0FB6F894DEBF0FBE8D
:10286000CDBFED01089511E0C2EFD1E004C0FE013B
:102870000E94F8132296C43FD107C9F7F894FFCFFE
:102880002E000100000001000000002C092409288E
:0228900009003D
:00000001FF
