:100000000C9462000C948A000C948A000C948A0070
:100010000C948A000C948A000C948A000C948A0038
:100020000C948A000C948A000C948A000C948A0028
:100030000C948A000C948A000C948A000C948A0018
:100040000C9437010C948A000C9484020C94CB021B
:100050000C948A000C948A000C948A000C948A00F8
:100060000C948A000C948A000000000024002700F1
:100070002A0000000000250028002B0000000000DE
:1000800023002600290004040404040404040202DA
:100090000202020203030303030301020408102007
:1000A0004080010204081020010204081020000012
:1000B0000007000201000003040600000000000029
:1000C0000000080411241FBECFEFD8E0DEBFCDBF73
:1000D00011E0A0E0B1E0E0E0F3E102C005900D9294
:1000E000A432B107D9F711E0A4E2B1E001C01D923A
:1000F000AF3CB107E1F710E0C4ECD0E004C02297B8
:10010000FE010E944309C23CD107C9F70E945E0468
:100110000C947E090C940000A0E0B0E0E2E9F0E06D
:100120000C944F09EC01A880B980CA80DB80A1142F
:10013000B104C104D10441F484E2A82E89EDB82EA3
:100140008BE5C82E87E0D82EC601B5012DE133EF2F
:1001500041E050E00E94260927EA31E440E050E007
:100160000E94E5087B018C01C601B5012DE133EF4A
:1001700041E050E00E942609CA01B9012CEE34EF9B
:100180004FEF5FEF0E94E5086E0D7F1D801F911FEE
:1001900097FF04C061507040804090486883798325
:1001A0008A839B839B01AC015F77B901CA01CDB7FC
:1001B000DEB7EAE00C946B090E948C0008958EE093
:1001C00091E00E948C00089560930E0170930F01DE
:1001D000809310019093110108958DE291E040E029
:1001E00052EC61E070E00E94FB028EE060E00E9451
:1001F00044028FE060E00E94440280E160E00E94DF
:10020000440281E160E00E94440282E160E00E94D9
:10021000440283E160E00E94440280E00E942202E6
:100220000E94BD06089508950E94ED0060E070E010
:1002300080E090E020E137E240E050E00E949F063D
:100240000E94CA072AE037ED43E25CE30E947E0881
:10025000AB01BC018DE291E022E030E00E946A0631
:100260006CE271E080E090E00E94BA01DFCF1F9263
:100270000F920FB60F9211242F933F938F939F935A
:10028000AF93BF938091280190912901A0912A01F9
:10029000B0912B0130912C010196A11DB11D232F8E
:1002A0002D5F2D3720F02D570196A11DB11D2093F4
:1002B0002C018093280190932901A0932A01B093E7
:1002C0002B018091240190912501A0912601B091EC
:1002D00027010196A11DB11D809324019093250152
:1002E000A0932601B0932701BF91AF919F918F9169
:1002F0003F912F910F900FBE0F901F9018957894FB
:1003000084B5826084BD84B5816084BD85B582601A
:1003100085BD85B5816085BDEEE6F0E080818160B8
:100320008083E1E8F0E010828081826080838081B8
:1003300081608083E0E8F0E0808181608083E1EB90
:10034000F0E0808184608083E0EBF0E08081816078
:100350008083EAE7F0E0808184608083808182602E
:100360008083808181608083808180688083109217
:10037000C1000895EF92FF920F931F93CF93DF93E5
:100380007B018C013FB7F894809124019091250165
:10039000A0912601B091270126B5A89B05C02F3F4B
:1003A00019F00196A11DB11D3FBFBA2FA92F982F9B
:1003B0008827820F911DA11DB11D52E0880F991F42
:1003C000AA1FBB1F5A95D1F7EC0130C00E94C50689
:1003D0003FB7F8948091240190912501A0912601C6
:1003E000B091270126B5A89B05C02F3F19F00196B3
:1003F000A11DB11D3FBFBA2FA92F982F8827820FAB
:10040000911DA11DB11D32E0880F991FAA1FBB1FAE
:100410003A95D1F78C1B9D0B885E9340B8F20894F7
:10042000E108F10801091109C851DC4FE114F10498
:100430000105110559F6DF91CF911F910F91FF90A2
:10044000EF900895982F8E3008F09E50977080910D
:1004500012018295880F880F807C892B80937C0005
:1004600080917A00806480937A0080917A0086FD82
:10047000FCCF2091780040917900942F80E030E00B
:10048000282B392BC9010895CF93DF93482F50E0D3
:10049000CA0186569F4FFC0134914A575F4FFA01BB
:1004A0008491882369F190E0880F991FFC01E85935
:1004B000FF4FA591B491FC01EE58FF4FC591D49127
:1004C000662351F42FB7F8948C91932F909589233C
:1004D0008C93888189230BC0623061F42FB7F89424
:1004E0008C91932F909589238C938881832B88837B
:1004F0002FBF06C09FB7F8948C91832B8C939FBF1E
:10050000DF91CF91089508951F920F920FB60F9229
:1005100011242F933F934F938F939F93EF93FF93C8
:100520008091C00082FD19C04091C60080914B01AE
:10053000282F30E02F5F3F4F2F73307080914C0198
:1005400090E02817390759F0E0914B01F0E0E35DA6
:10055000FE4F42A320934B0102C08091C600FF9141
:10056000EF919F918F914F913F912F910F900FBEDF
:100570000F901F90189580914B0120914C0190E0B5
:10058000805C9F4F821B91098F739070892B11F0B3
:100590000E94830208951F920F920FB60F921124AA
:1005A0002F938F939F93EF93FF9390914D018091A1
:1005B0004E01981731F48091C1008F7D8093C10066
:1005C00010C0E0914E01F0E0E157FE4F2081809194
:1005D0004E0190E001968F73907080934E012093AE
:1005E000C600FF91EF919F918F912F910F900FBEB9
:1005F0000F901F901895AF92BF92DF92EF92FF92EB
:100600000F931F93CF93DF93EC017A018B01DD24CD
:10061000403081EE580780E0680780E0780711F0ED
:10062000DD24D39491E0A92EB12CE889F989DD204D
:1006300069F0C5010C8C02C0880F991F0A94E2F77B
:10064000808360E079E08DE390E005C0108260E88F
:1006500074E88EE190E0A80197010E9404092150FE
:10066000304040405040569547953795279580E15A
:100670002030380720F0DD2011F0DD24D6CFEC85C6
:10068000FD853083EE85FF8520831D8EEA89FB89F9
:10069000408121E030E0C901088C02C0880F991F19
:1006A0000A94E2F7482B4083EA89FB894081C9011B
:1006B000098C02C0880F991F0A94E2F7482B4083E7
:1006C000EA89FB894081C9010A8C02C0880F991F01
:1006D0000A94E2F7482B4083EA89FB8980810B8CDE
:1006E00002C0220F331F0A94E2F7209528232083AB
:1006F000DF91CF911F910F91FF90EF90DF90BF900E
:10070000AF900895FC01268D878D30E0205C3F4F2F
:10071000281B31092F733070C9010895FC01968D93
:10072000878D981719F42FEF3FEF06C0878DE80FDC
:10073000F11D82A1282F30E0C9010895DC015E96E9
:100740009C915E975F968C915F97981719F42FEFA5
:100750003FEF10C05F968C915F97FD01E80FF11D90
:1007600092A15F968C915F978F5F8F735F968C934A
:10077000292F30E0C9010895DC015D968C915D97C9
:10078000882339F05096ED91FC915197808186FF36
:10079000F9CF5D961C920895DC0190968C9190970C
:1007A000282F30E02F5F3F4F2F73307091968C9140
:1007B000919790E028173907C9F390968C919097FC
:1007C000FD01E80FF11DEE59FF4F608390962C93C9
:1007D00090975296ED91FC915397208181E090E0A3
:1007E0005B960C905B9702C0880F991F0A94E2F702
:1007F000282B208381E05D968C935D975096ED9138
:10080000FC91519780818064808381E090E008951D
:100810001092300110922F0188EE93E0A0E0B0E03A
:100820008093310190933201A0933301B09334014E
:1008300087E191E090932E0180932D0110924E015B
:1008400080914E0180934D0110924C0180914C019A
:1008500080934B0185EC90E090933A0180933901AD
:1008600084EC90E090933C0180933B0180EC90E01D
:1008700090933E0180933D0181EC90E09093400184
:1008800080933F0182EC90E090934201809341017C
:1008900086EC90E0909344018093430184E0809340
:1008A000450183E08093460187E08093470185E01E
:1008B0008093480181E0809349010895CF93DF93AD
:1008C0000E947F010E941401CBEBD2E00E94130131
:1008D0002097E1F30E94BB02F9CFCF92DF92EF9213
:1008E000FF920F931F93CF93DF937C016B018A01DB
:1008F000C0E0D0E00FC0D6016D916D01D701ED9140
:10090000FC910190F081E02DC7010995C80FD91F16
:10091000015010400115110571F7CE01DF91CF9103
:100920001F910F91FF90EF90DF90CF900895EF927D
:10093000FF920F931F938C01DC01ED91FC910190CC
:10094000F081E02D6DE009957C01D801ED91FC91DD
:100950000190F081E02DC8016AE009959C012E0DFF
:100960003F1DC9011F910F91FF90EF900895CF9304
:10097000DF93EC016115710519F420E030E00FC040
:10098000DB010D900020E9F71197A61BB70BE8815A
:10099000F9810280F381E02DAD0109959C01C90127
:1009A000DF91CF9108954F925F927F928F929F92A5
:1009B000AF92BF92CF92DF92EF92FF920F931F936D
:1009C000DF93CF93CDB7DEB7A1970FB6F894DEBF14
:1009D0000FBECDBF2C01742ECB01223008F42AE0CB
:1009E00019A231E2C32ED12CCC0EDD1E822E992409
:1009F000AA24BB24672D752FA50194010E94040928
:100A000079018A01C801B701A50194010E94E50896
:100A1000472D461B0894C108D1084A3014F4405DA4
:100A200001C0495CF6014083E114F10401051105A0
:100A300021F07E2C5F2DC801DDCFC201B6010E94DE
:100A4000B704A1960FB6F894DEBF0FBECDBFCF910D
:100A5000DF911F910F91FF90EF90DF90CF90BF90AB
:100A6000AF909F908F907F905F904F900895DC01A2
:100A70002115310541F4ED91FC910190F081E02DBB
:100A8000642F099508950E94D3040895CF92DF92B0
:100A9000EF92FF920F931F93CF93DF93EC016A01C4
:100AA0007B012115310541F4E881F9810190F08144
:100AB000E02D642F09951FC02A303105D1F477FF4E
:100AC00017C0E881F9810190F081E02D6DE2099570
:100AD0008C0144275527BA014C195D096E097F091D
:100AE000CE012AE00E94D3049801280F391F04C0C8
:100AF0002AE00E94D3049C01C901DF91CF911F918C
:100B00000F91FF90EF90DF90CF9008957F928F929A
:100B10009F92AF92BF92CF92DF92EF92FF920F938C
:100B20001F93CF93DF934C017A018B01722ECB017F
:100B3000BA01A80197010E94E108882321F0C401AD
:100B400060E071E021C0C0E0D0E057016801E894A6
:100B5000D7F8C601B5012FEF3FEF4FE75FE70E94DF
:100B6000E108882351F4C601B5012FEF3FEF4FE7AD
:100B70005FE70E942B07181614F0C1E0D0E0219720
:100B800039F0C40164E071E00E94B704EC0193C045
:100B9000C801B7012FEF3FEF4FE75FE40E947A08EB
:100BA000181654F0C801B7012FEF3FEF4FE75FEC85
:100BB0000E942B07882324F4C40168E071E0E4CF8D
:100BC000C801B70120E030E040E050E00E942B0770
:100BD00087FD03C0C0E0D0E00EC0D401ED91FC91D0
:100BE0000190F081E02DC4016DE20995EC0117FB45
:100BF000109517F9109520E030E040E05FE3DD2428
:100C00000BC0CA01B90120E030E040E251E40E948B
:100C10002F079B01AC01D394D71498F3C801B701F7
:100C20000E94C7065B016C010E949C077B018C013E
:100C3000C401B801A7012AE030E00E943705C80FBF
:100C4000D91F772039F0C4016CE071E00E94B7042D
:100C5000C80FD91FC801B7010E94C8079B01AC018A
:100C6000C601B5010E94C60624C020E030E040E283
:100C700051E40E947E087B018C010E9497075B0172
:100C80006C01CC24B7FCC094DC2CC401B601A501D6
:100C90002AE030E00E944605C80FD91FC601B50101
:100CA0000E94CA079B01AC01C801B7010E94C60699
:100CB0007A947720D1F6CE01DF91CF911F910F91D9
:100CC000FF90EF90DF90CF90BF90AF909F908F906C
:100CD0007F900895EF92FF920F931F937C010E94E3
:100CE00086058C01C7010E949704080F191FC801CF
:100CF0001F910F91FF90EF900895EF92FF920F9345
:100D00001F937B018C01611571058105910529F403
:100D100020E030E040E050E00BC00E94DF00A8017E
:100D200097010E942609AC01CB01DA019C01AD01BB
:100D3000B901CA011F910F91FF90EF900895EF92B2
:100D4000FF920F931F937B018C0162177307840737
:100D5000950764F4261B370B480B590BCA01B901E0
:100D60000E947D06E60EF71E081F191FB701C80175
:100D70001F910F91FF90EF900895009729F0BC010B
:100D800080E090E00E94E400089508955058BB2749
:100D9000AA270ED075C166D130F06BD120F031F4A6
:100DA0009F3F11F41EF45BC10EF4E095E7FB51C1C7
:100DB000E92F77D180F3BA17620773078407950785
:100DC00018F071F49EF58FC10EF4E0950B2EBA2F3A
:100DD000A02D0B01B90190010C01CA01A001112441
:100DE000FF27591B99F0593F50F4503E68F11A16ED
:100DF000F040A22F232F342F4427585FF3CF46957E
:100E000037952795A795F0405395C9F77EF41F169F
:100E1000BA0B620B730B840BBAF09150A1F0FF0F69
:100E2000BB1F661F771F881FC2F70EC0BA0F621F55
:100E3000731F841F48F4879577956795B795F79545
:100E40009E3F08F0B3CF9395880F08F09927EE0FD7
:100E5000979587950895D9D008F481E008950CD02E
:100E60000FC107D140F0FED030F021F45F3F19F000
:100E7000F0C0511139C1F3C014D198F39923C9F3CB
:100E80005523B1F3951B550BBB27AA276217730790
:100E9000840738F09F5F5F4F220F331F441FAA1F44
:100EA000A9F333D00E2E3AF0E0E830D09150504004
:100EB000E695001CCAF729D0FE2F27D0660F771FB2
:100EC000881FBB1F261737074807AB07B0E809F094
:100ED000BB0B802DBF01FF2793585F4F2AF09E3F29
:100EE000510568F0B6C000C15F3FECF3983EDCF3FB
:100EF000869577956795B795F7959F5FC9F7880FA2
:100F0000911D9695879597F90895E1E0660F771FF3
:100F1000881FBB1F621773078407BA0720F0621B84
:100F2000730B840BBA0BEE1F88F7E095089504D07D
:100F30006894B111D9C00895BCD088F09F5790F043
:100F4000B92F9927B751A0F0D1F0660F771F881FEE
:100F5000991F1AF0BA95C9F712C0B13081F0C3D009
:100F6000B1E00895C0C0672F782F8827B85F39F0A7
:100F7000B93FCCF3869577956795B395D9F73EF44D
:100F800090958095709561957F4F8F4F9F4F0895F5
:100F9000E89409C097FB3EF4909580957095619513
:100FA0007F4F8F4F9F4F9923A9F0F92F96E9BB27C9
:100FB0009395F695879577956795B795F111F8CF45
:100FC000FAF4BB0F11F460FF1BC06F5F7F4F8F4FB0
:100FD0009F4F16C0882311F096E911C0772321F0A6
:100FE0009EE8872F762F05C0662371F096E8862F3E
:100FF00070E060E02AF09A95660F771F881FDAF795
:10100000880F9695879597F90895990F0008550FC1
:10101000AA0BE0E8FEEF16161706E807F907C0F07E
:1010200012161306E407F50798F0621B730B840B86
:10103000950B39F40A2661F0232B242B252B21F460
:1010400008950A2609F4A140A6958FEF811D811D00
:10105000089597F99F6780E870E060E008959FEF3A
:1010600080EC089500240A9416161706180609063F
:10107000089500240A94121613061406050608950E
:10108000092E0394000C11F4882352F0BB0F40F496
:10109000BF2B11F460FF04C06F5F7F4F8F4F9F4FD6
:1010A000089557FD9058440F551F59F05F3F71F058
:1010B0004795880F97FB991F61F09F3F79F08795BF
:1010C0000895121613061406551FF2CF4695F1DF48
:1010D00008C0161617061806991FF1CF86957105D8
:1010E000610508940895E894BB2766277727CB010C
:1010F00097F908958ADF08F48FEF08950BD0C0CFD9
:10110000B1DF28F0B6DF18F0952309F0A2CFA7CF02
:101110001124EACFC6DFA0F3959FD1F3950F50E0DD
:10112000551F629FF001729FBB27F00DB11D639F99
:10113000AA27F00DB11DAA1F649F6627B00DA11D3F
:10114000661F829F2227B00DA11D621F739FB00DE5
:10115000A11D621F839FA00D611D221F749F332755
:10116000A00D611D231F849F600D211D822F762FEE
:101170006A2F11249F5750408AF0E1F088234AF0EB
:10118000EE0FFF1FBB1F661F771F881F9150504037
:10119000A9F79E3F510570F05CCFA6CF5F3FECF3FF
:1011A000983EDCF3869577956795B795F795E79523
:1011B0009F5FC1F7FE2B880F911D9695879597F934
:1011C000089523DF880B990B0895629FD001739FC8
:1011D000F001829FE00DF11D649FE00DF11D929FD3
:1011E000F00D839FF00D749FF00D659FF00D992712
:1011F000729FB00DE11DF91F639FB00DE11DF91F36
:10120000BD01CF0111240895A1E21A2EAA1BBB1B18
:10121000FD010DC0AA1FBB1FEE1FFF1FA217B307C2
:10122000E407F50720F0A21BB30BE40BF50B661FD8
:10123000771F881F991F1A9469F76095709580959C
:1012400090959B01AC01BD01CF01089597FB092E3C
:1012500005260ED057FD04D0D7DF0AD0001C38F485
:1012600050954095309521953F4F4F4F5F4F0895D2
:10127000F6F790958095709561957F4F8F4F9F4FB2
:101280000895EE0FFF1F0590F491E02D09942F9221
:101290003F924F925F926F927F928F929F92AF9206
:1012A000BF92CF92DF92EF92FF920F931F93CF9353
:1012B000DF93CDB7DEB7CA1BDB0B0FB6F894DEBFEA
:1012C0000FBECDBF09942A88398848885F846E8410
:1012D0007D848C849B84AA84B984C884DF80EE805A
:1012E000FD800C811B81AA81B981CE0FD11D0FB663
:1012F000F894DEBF0FBECDBFED010895F894FFCF87
:101300006E616E00696E66006F7666002E000100E9
:1013100000000100000000CC036D0482039E038ED8
:0413200003BC030007
:00000001FF
