:100000000C9466000C948E000C948E000C948E0060
:100010000C948E000C948E000C948E000C948E0028
:100020000C948E000C948E000C948E000C94CB01DA
:100030000C948E000C9405010C948E000C948E0090
:100040000C942E040C948E000C94A4050C948E0039
:100050000C948E000C948E000C948E000C948E00E8
:100060000C948E000C948E000000000024002700E9
:100070002A0000000000250028002B0000000000DE
:1000800023002600290004040404040404040202DA
:100090000202020203030303030301020408102007
:1000A0004080010204081020010204081020000012
:1000B0000007000201000003040600000000000029
:1000C0000000F100DE031E04A006D70311241FBEAA
:1000D000CFEFD4E0DEBFCDBF11E0A0E0B1E0ECE8AF
:1000E000FFE002C005900D92A831B107D9F713E0E7
:1000F000A8E1B1E001C01D92A330B107E1F710E023
:10010000CAECD0E004C02297FE010E947E07C23CE8
:10011000D107C9F70E94DA060C94B9070C940000C5
:10012000A0E0B0E0E6E9F0E00C948A07EC01A880DA
:10013000B980CA80DB80A114B104C104D10441F4A8
:1001400084E2A82E89EDB82E8BE5C82E87E0D82E44
:10015000C601B5012DE133EF41E050E00E94610797
:1001600027EA31E440E050E00E9420077B018C0147
:10017000C601B5012DE133EF41E050E00E94610777
:10018000CA01B9012CEE34EF4FEF5FEF0E94200758
:100190006E0D7F1D801F911F97FF04C0615070403E
:1001A00080409048688379838A839B839B01AC015C
:1001B0005F77B901CA01CDB7DEB7EAE00C94A607B4
:1001C0000E949000089580E091E00E9490000895C0
:1001D00060930001709301018093020190930301E9
:1001E000089580E090E0A8ECB2EC80931801909321
:1001F0001901A0931A01B0931B010895FC01138209
:1002000060931C0110921E0108951F920F920FB669
:100210000F9211242F933F934F935F936F937F938C
:100220008F939F93AF93BF93EF93FF9381EA9FEFD9
:10023000909385008093840080911C010E94510559
:10024000482F80911F0190912001019690932001E9
:1002500080931F018091B9018C3418F085E0809360
:100260001D0180911D018330D1F0843020F4823053
:1002700009F059C006C0843071F1853009F053C0CF
:100280004CC0442309F04FC080911F019091200180
:100290008436910508F443C01092B9011EC0413064
:1002A00009F041C08091B901E82FF0E020911F01D1
:1002B00030912001EE0FFF1FE45EFE4F3683258351
:1002C0008F5F8093B9011092200110921F0184E08A
:1002D00080931D0128C04423B9F48091B901E82F0F
:1002E000F0E020911F0130912001EE0FFF1FE45E2E
:1002F000FE4F368325838F5F8093B90110922001D2
:1003000010921F0183E0E4CF80911F0190912001A2
:100310008536910540F085E0DBCF442321F410922F
:10032000200110921F0180911E01882329F044238F
:1003300011F42D9A01C02D98FF91EF91BF91AF91CB
:100340009F918F917F916F915F914F913F912F91ED
:100350000F900FBE0F901F901895FC018FEF9FEF2D
:10036000918380838091BA018C3090F482838F5F77
:100370008093BA01815090E0FC01EE0FFF1FE80F5F
:10038000F91FE554FE4F88EB9BE09283818308952B
:100390008FEF828308951F920F920FB60F92112450
:1003A0002F933F934F935F936F937F938F939F937D
:1003B000AF93BF93EF93FF938091DF0187FF05C059
:1003C00010928500109284002BC02091DF0133270A
:1003D00027FD30958091BA0190E02817390704F580
:1003E0008091DF01992787FD9095FC01EE0FFF1F9B
:1003F000E80FF91FE554FE4F808186FF11C0809100
:10040000DF01992787FD9095FC01EE0FFF1FE80F94
:10041000F91FE554FE4F80818F7360E00E94F9045C
:100420008091DF018F5F8093DF012091DF0133270F
:1004300027FD30958091BA0190E0281739070CF01C
:100440004EC08091DF018C300CF049C020918400B7
:10045000309185008091DF01992787FD9095FC01FF
:10046000EE0FFF1FE80FF91FE554FE4F81819281C7
:10047000280F391F30938900209388008091DF0175
:10048000992787FD9095FC01EE0FFF1FE80FF91FDC
:10049000E554FE4F808186FF2AC08091DF019927B5
:1004A00087FD9095FC01EE0FFF1FE80FF91FE55443
:1004B000FE4F80818F7361E00E94F90418C080E4D0
:1004C0009CE905C0809184009091850004969093EA
:1004D0008900809388008FEF8093DF0108C08091AE
:1004E00084009091850084549C4948F3EBCFFF91A0
:1004F000EF91BF91AF919F918F917F916F915F919C
:100500004F913F912F910F900FBE0F901F90189514
:10051000EF92FF920F931F93FC01162FF42EE22E01
:100520000083118280E090E0A0E0B0E082839383BA
:10053000A483B58386839783A087B18762877387F7
:100540004487558726873787862F61E00E94D3042A
:100550008F2D61E00E94D3048E2D61E00E94D304B0
:10056000812F60E00E94F9048F2D60E00E94F90461
:100570008E2D60E00E94F9041F910F91FF90EF9083
:100580000895EF92FF920F93CF93DF93EC017B01DD
:100590008130910509F005C18FEF6F3F780709F0B1
:1005A00000C180E090E0A8ECB2EC80935B029093F5
:1005B0005C02A0935D02B0935E0280EE91E063E086
:1005C00070E044E050E025E030E001E00E94880265
:1005D00080EF91E06BE070E04AE050E029E030E02D
:1005E0000E94880280E092E00E94AD0185E092E0E6
:1005F0000E94AD018AE092E00E94AD018FE092E09E
:1006000062E070E00E94FE00109214021092130249
:10061000D0931602C093150225E020931702F092A2
:100620003702E09236028DE292EBA6E6B1E48093C7
:10063000180290931902A0931A02B0931B0284E24D
:1006400099EBACEDBFE380931C0290931D02A09345
:100650001E02B0931F0280E090E0A0EAB1E4809314
:10066000200290932102A0932202B093230284EBF4
:1006700098ECA1E9B1E48093240290932502A09321
:100680002602B093270283E49CE1ADEAB0E48093B4
:10069000280290932902A0932A02B0932B0280E0B3
:1006A00090E0ACE8B2E480932C0290932D02A093EA
:1006B0002E02B0932F028EEF91E09093310280933F
:1006C000300289EB90E0909333028093320285E60A
:1006D00090E09093350280933402D0933902C09316
:1006E000380220933A02F0925A02E092590286EEC2
:1006F0009FE3A8ECB0E480933B0290933C02A0936C
:100700003D02B0933E028FE29DEDACEEBFE38093DD
:100710003F0290934002A0934102B093420280E0D6
:1007200090E0A0E2B1E48093430290934402A0934E
:100730004502B09346028AEA92E8ACE0B1E48093C5
:10074000470290934802A0934902B0934A028AE17B
:1007500091E5A2ECB0E480934B0290934C02A093FD
:100760004D02B0934E0280E090E0ACE0B2E48093A2
:100770004F0290935002A0935102B093520283E033
:1007800092E0909354028093530287EA90E0909312
:100790005602809355028AE590E090935802809328
:1007A0005702DF91CF910F91FF90EF90089580E075
:1007B00090E06FEF7FEF0E94C102089581E090E02A
:1007C0006FEF7FEF0E94C102089580EF92E040E05A
:1007D00052EC61E070E00E94D5058EE060E00E947E
:1007E000D3048FE060E00E94D30480E160E00E94C7
:1007F000D30481E160E00E94D30482E160E00E94C2
:10080000D30483E160E00E94D30480E00E94B1043D
:100810000E94180786E090E0909301028093000206
:1008200087E090E0909306028093050288E090E0D4
:1008300090930B0280930A020895089580E090E05F
:10084000A8ECB2EC80935F0290936002A0936102E7
:10085000B093620208950E94E50308951F920F92DB
:100860000FB60F9211242F933F938F939F93AF93C3
:10087000BF938091670290916802A0916902B09144
:100880006A0230916B020196A11DB11D232F2D5FCD
:100890002D3720F02D570196A11DB11D20936B021D
:1008A0008093670290936802A0936902B0936A02F2
:1008B0008091630290916402A0916502B0916602FA
:1008C0000196A11DB11D8093630290936402A093D1
:1008D0006502B0936602BF91AF919F918F913F9156
:1008E0002F910F900FBE0F901F901895789484B59C
:1008F000826084BD84B5816084BD85B5826085BD1C
:1009000085B5816085BDEEE6F0E080818160808301
:10091000E1E8F0E0108280818260808380818160E4
:100920008083E0E8F0E0808181608083E1EBF0E0AB
:10093000808184608083E0EBF0E08081816080834F
:10094000EAE7F0E080818460808380818260808338
:100950008081816080838081806880831092C10063
:100960000895982F8E3008F09E5097708091040162
:100970008295880F880F807C892B80937C008091E2
:100980007A00806480937A0080917A0086FDFCCFA3
:100990002091780040917900942F80E030E0282B5E
:1009A000392BC9010895482F50E0CA0186569F4F40
:1009B000FC0124914A575F4FFA0184918823C1F0CA
:1009C000E82FF0E0EE0FFF1FE859FF4FA591B4911B
:1009D000662341F49FB7F8948C91209582238C93E1
:1009E0009FBF08959FB7F8948C91822B8C939FBFE3
:1009F0000895482F50E0CA0182559F4FFC01249171
:100A0000CA0186569F4FFC0134914A575F4FFA0145
:100A10009491992309F444C0222351F1233071F0B9
:100A2000243028F42130A1F0223011F514C02630F2
:100A3000B1F02730C1F02430D9F404C08091800097
:100A40008F7703C0809180008F7D8093800010C0DD
:100A500084B58F7702C084B58F7D84BD09C0809135
:100A6000B0008F7703C08091B0008F7D8093B0007D
:100A7000E92FF0E0EE0FFF1FEE58FF4FA591B49164
:100A8000662341F49FB7F8948C91309583238C931F
:100A90009FBF08959FB7F8948C91832B8C939FBF31
:100AA0000895682F70E0CB0182559F4FFC0124917F
:100AB000CB0186569F4FFC0144916A577F4FFB0143
:100AC0009491992319F420E030E03CC0222351F1A5
:100AD000233071F0243028F42130A1F0223011F5B8
:100AE00014C02630B1F02730C1F02430D9F404C04E
:100AF000809180008F7703C0809180008F7D8093EC
:100B0000800010C084B58F7702C084B58F7D84BD0E
:100B100009C08091B0008F7703C08091B0008F7DB5
:100B20008093B000892F90E0880F991F84589F4FC1
:100B3000FC01A591B4918C9120E030E0842311F068
:100B400021E030E0C90108951F920F920FB60F9275
:100B500011242F933F934F938F939F93EF93FF9382
:100B60004091C600E091EC02F091ED0231969F01B8
:100B70002F77307031978091EE029091EF02281715
:100B8000390739F0E459FD4F40833093ED0220934B
:100B9000EC02FF91EF919F918F914F913F912F9197
:100BA0000F900FBE0F901F901895CF93DF93EC011D
:100BB0009A01AB01E885F985203081EE380780E0A5
:100BC000480780E0580709F449C081E090E00A88AE
:100BD00002C0880F991F0A94E2F7808360E079E0F1
:100BE0008DE390E00E94610721503040404050402A
:100BF000CA01B90122E030E040E050E00E94610704
:100C0000EC81FD813083EE81FF812083EA85FB85C5
:100C1000208141E050E0CA010E8402C0880F991F74
:100C20000A94E2F7282B2083EA85FB852081CA01FC
:100C30000F8402C0880F991F0A94E2F7282B2083A3
:100C4000EA85FB858081088802C0440F551F0A94FD
:100C5000E2F7842B8083DF91CF910895108220E109
:100C600030E0CECFDC011296ED91FC911397E05865
:100C7000FF4F2191319180819181281B390B2F7772
:100C80003070C9010895DC011296ED91FC91139723
:100C9000EE57FF4F2081318192918291E058F040D0
:100CA0008217930719F42FEF3FEF05C0E20FF31FF0
:100CB0008081282F30E0C9010895DC011296ED9162
:100CC000FC911397DF01AE57BF4F2D913C911197C7
:100CD000E058FF4F80819181E058F04082179307E0
:100CE00019F42FEF3FEF0BC0E20FF31F80812F5F4E
:100CF0003F4F2F7730702D933C93282F30E0C90160
:100D00000895DC011296ED91FC911397EE57FF4F79
:100D100080819181929382930895FC01A085B18591
:100D200021898C9190E0022E02C0959587950A94B6
:100D3000E2F780FFF6CF0484F585E02D6083089507
:100D400089E091E09093F1028093F0028CE692E0CA
:100D50009093F3028093F20285EC90E09093F50279
:100D60008093F40284EC90E09093F7028093F60273
:100D700080EC90E09093F9028093F80281EC90E08F
:100D80009093FB028093FA0286EC90E09093FD0230
:100D90008093FC0284E08093FE0283E08093FF0254
:100DA00087E08093000385E08093010381E08093D6
:100DB000020308950E9476040E942B040E941D04E1
:100DC000FDCF0F931F93CF93DF938C01EB0109C0ED
:100DD0002196D801ED91FC910190F081E02DC801A0
:100DE000099568816623A1F7DF91CF911F910F913B
:100DF0000895EF92FF920F931F93CF93DF938C018F
:100E00007B01EA010CC0D7016D917D01D801ED9104
:100E1000FC910190F081E02DC80109952197209760
:100E200091F7DF91CF911F910F91FF90EF9008956F
:100E3000009729F0BC0180E090E00E94E80008954E
:100E4000629FD001739FF001829FE00DF11D649FAE
:100E5000E00DF11D929FF00D839FF00D749FF00D3A
:100E6000659FF00D9927729FB00DE11DF91F639FDB
:100E7000B00DE11DF91FBD01CF0111240895A1E2BC
:100E80001A2EAA1BBB1BFD010DC0AA1FBB1FEE1F04
:100E9000FF1FA217B307E407F50720F0A21BB30B4F
:100EA000E40BF50B661F771F881F991F1A9469F7CB
:100EB00060957095809590959B01AC01BD01CF0127
:100EC000089597FB092E05260ED057FD04D0D7DFD5
:100ED0000AD0001C38F450954095309521953F4F2D
:100EE0004F4F5F4F0895F6F79095809570956195F7
:100EF0007F4F8F4F9F4F0895EE0FFF1F0590F49186
:100F0000E02D09942F923F924F925F926F927F92C1
:100F10008F929F92AF92BF92CF92DF92EF92FF9209
:100F20000F931F93CF93DF93CDB7DEB7CA1BDB0BB5
:100F30000FB6F894DEBF0FBECDBF09942A8839885A
:100F400048885F846E847D848C849B84AA84B98461
:100F5000C884DF80EE80FD800C811B81AA81B9816D
:100F6000CE0FD11D0FB6F894DEBF0FBECDBFED0181
:100F7000089510E0CAECD0E004C0FE010E947E0794
:0C0F80002296CC3CD107C9F7F894FFCFB3
:100F8C000100000001000000008D06E106F90632A8
:080F9C00065D06430681060014
:00000001FF
