:100000000C946A010C9492010C9492010C9492014C
:100010000C9492010C9492010C9492010C94920114
:100020000C9492010C9492010C94D20C0C94590DE6
:100030000C9492010C9492010C9492010C949201F4
:100040000C9492010C9492010C9492010C949201E4
:100050000C9492010C9492010C9492010C945E0504
:100060000C9492010C9492010C9492010C949201C4
:100070000C9492010C9492010C9492010C949201B4
:100080000C94CF020C9492010C9492010C940902EE
:100090000C9492010C9492010C9492010C94920194
:1000A0000C9492010C9492010C94920100000000B7
:1000B000240027002A002D00300000000000250049
:1000C00028002B002E003100000000002300260035
:1000D00029002C002F000404040404030405020278
:1000E00002020403020202020606060606060404D1
:1000F00002020204040802011040804010204080E7
:10010000408008020401804020100201108010206D
:1001100040400000000200080E0000030401000B34
:1001200000000000000000000000000000000000CF
:10013000070605040100080A0B0C0D09080B000254
:10014000020201000904000001020200000524006F
:100150001001052401010104240206052406000102
:100160000705810310004009040100020A00000095
:100170000705020240000007058302400000040357
:10018000090441726475696E6F204C656F6E61720F
:10019000646F0041726475696E6F204C4C430012AD
:1001A00001000200000040412336800001010200EE
:1001B00001120100020200004041233680000101CB
:1001C00002000100C18081C105010902A1010901EC
:1001D000A1008501050919012903150025019503D1
:1001E0007501810295017505810305010930093109
:1001F00009381581257F750895038106C0C0050162
:100200000906A1018502050719E029E71500250166
:100210007501950881029501750881039506750899
:10022000150025650507190029658100C00904022C
:1002300000010300000009210101000122650007FF
:1002400005840340000100000000000000002A2B8C
:100250002800000000000000000000000000000076
:100260000000000000002C9EB4A0A1A2A434A6A708
:10027000A5AE362D3738271E1F2021222324252600
:10028000B333B62EB7B89F8485868788898A8B8CCE
:100290008D8E8F909192939495969798999A9B9C16
:1002A0009D2F3130A3AD350405060708090A0B0C54
:1002B0000D0E0F101112131415161718191A1B1CF6
:1002C0001DAFB1B0B500F501EA042805C7070E0C53
:1002D000EA0EE30411241FBECFEFDAE0DEBFCDBF8C
:1002E00011E0A0E0B1E0E0E7F5E202C005900D9278
:1002F000AE33B107D9F712E0AEE3B1E001C01D9211
:10030000AE3FB107E1F712E0C2EDD2E004C02297A0
:10031000FE010E947012C63CD107C9F70E949308E3
:100320000C94AB120C940000A0E0B0E0EAE9F1E01C
:100330000C947C12EC01A880B980CA80DB80A114E7
:10034000B104C104D10441F484E2A82E89EDB82E91
:100350008BE5C82E87E0D82EC601B5012DE133EF1D
:1003600041E050E00E94531227EA31E440E050E0BF
:100370000E9412127B018C01C601B5012DE133EF01
:1003800041E050E00E945312CA01B9012CEE34EF53
:100390004FEF5FEF0E9412126E0D7F1D801F911FA5
:1003A00097FF04C061507040804090486883798313
:1003B0008A839B839B01AC015F77B901CA01CDB7EA
:1003C000DEB7EAE00C9498120E94940108958EE042
:1003D00091E00E949401089560930E0170930F01C3
:1003E0008093100190931101089580E090E0A8ECB3
:1003F000B2EC80933E0190933F01A0934001B093F3
:1004000041010895FC01138260934201109244015E
:1004100008951F920F920FB60F9211242F933F93BE
:100420004F935F936F937F938F939F93AF93BF93FC
:10043000EF93FF9381EA9FEF909395008093940050
:10044000809142010E945C07482F80914501909164
:100450004601019690934601809345018091DF010A
:100460008C3418F085E08093430180914301833000
:10047000D1F0843020F4823009F059C006C08430B5
:1004800071F1853009F053C04CC0442309F04FC0CE
:1004900080914501909146018436910508F443C04E
:1004A0001092DF011EC0413009F041C08091DF0190
:1004B000E82FF0E02091450130914601EE0FFF1F3B
:1004C000EE5BFE4F368325838F5F8093DF011092B2
:1004D00046011092450184E08093430128C04423E3
:1004E000B9F48091DF01E82FF0E0209145013091CF
:1004F0004601EE0FFF1FEE5BFE4F368325838F5FB5
:100500008093DF01109246011092450183E0E4CF11
:1005100080914501909146018536910540F085E036
:10052000DBCF442321F410924601109245018091C3
:100530004401882329F0442311F42D9A01C02D98F9
:10054000FF91EF91BF91AF919F918F917F916F91AB
:100550005F914F913F912F910F900FBE0F901F9081
:100560001895FC018FEF9FEF918380838091E001CC
:100570008C3090F482838F5F8093E001815090E013
:10058000FC01EE0FFF1FE80FF91FEF51FE4F88EB44
:100590009BE09283818308958FEF828308951F9259
:1005A0000F920FB60F9211242F933F934F935F93A7
:1005B0006F937F938F939F93AF93BF93EF93FF932B
:1005C0008091050287FF05C010929500109294005B
:1005D0002BC020910502332727FD30958091E00143
:1005E00090E02817390704F580910502992787FDC7
:1005F0009095FC01EE0FFF1FE80FF91FEF51FE4F22
:10060000808186FF11C080910502992787FD909512
:10061000FC01EE0FFF1FE80FF91FEF51FE4F808125
:100620008F7360E00E942907809105028F5F80939D
:10063000050220910502332727FD30958091E001C6
:1006400090E0281739070CF04EC0809105028C30DD
:100650000CF049C0209194003091950080910502E2
:10066000992787FD9095FC01EE0FFF1FE80FF91FFA
:10067000EF51FE4F81819281280F391F30939900ED
:100680002093980080910502992787FD9095FC01A1
:10069000EE0FFF1FE80FF91FEF51FE4F808186FF1D
:1006A0002AC080910502992787FD9095FC01EE0FE5
:1006B000FF1FE80FF91FEF51FE4F80818F7361E03C
:1006C0000E94290718C080E49CE905C0809194002D
:1006D00090919500049690939900809398008FEFE5
:1006E0008093050208C080919400909195008454F5
:1006F0009C4948F3EBCFFF91EF91BF91AF919F9150
:100700008F917F916F915F914F913F912F910F90BA
:100710000FBE0F901F901895EF92FF920F931F93AB
:10072000FC01162FF42EE22E0083118280E090E06F
:10073000A0E0B0E082839383A483B583868397830C
:10074000A087B1878DEC9CECACECBDE382879387EE
:10075000A487B58766877787408B518B228B338B35
:10076000862F61E00E949C068F2D61E00E949C060E
:100770008E2D61E00E949C06812F60E00E94290777
:100780008F2D60E00E9429078E2D60E00E942907CE
:100790001F910F91FF90EF900895EF92FF920F93AA
:1007A000CF93DF93EC017B018130910509F005C106
:1007B0008FEF6F3F780709F000C180E090E0A8EC70
:1007C000B2EC8093890290938A02A0938B02B0933B
:1007D0008C0286E092E063E070E044E050E025E0C7
:1007E00030E001E00E948C038AE192E06BE070E06F
:1007F0004AE050E029E030E00E948C038EE292E073
:100800000E94B10283E392E00E94B10288E392E089
:100810000E94B1028DE392E062E070E00E94020269
:100820001092420210924102D0934402C0934302BC
:1008300025E020934502F0926502E09264028DE289
:1008400092EBA6E6B1E48093460290934702A09310
:100850004802B093490284E299EBACEDBFE3809388
:100860004A0290934B02A0934C02B0934D0280E059
:1008700090E0A0EAB1E480934E0290934F02A093DF
:100880005002B093510284EB98ECA1E9B1E480935B
:10089000520290935302A0935402B093550283E402
:1008A0009CE1ADEAB0E48093560290935702A09386
:1008B0005802B093590280E090E0ACE8B2E4809333
:1008C0005A0290935B02A0935C02B0935D028EEF9C
:1008D00091E090935F0280935E0289EB90E09093A9
:1008E00061028093600285E690E0909363028093BA
:1008F0006202D0936702C093660220936802F0926E
:100900008802E092870286EE9FE3A8ECB0E4809331
:10091000690290936A02A0936B02B0936C028FE21B
:100920009DEDACEEBFE380936D0290936E02A093B9
:100930006F02B093700280E090E0A0E2B1E4809397
:10094000710290937202A0937302B09374028AEAC8
:1009500092E8ACE0B1E48093750290937602A093A4
:100960007702B09378028AE191E5A2ECB0E480933B
:10097000790290937A02A0937B02B0937C0280E08C
:1009800090E0ACE0B2E480937D0290937E02A0936D
:100990007F02B093800283E092E090938202809382
:1009A000810287EA90E090938402809383028AE533
:1009B00090E09093860280938502DF91CF910F9112
:1009C000FF90EF90089580E090E06FEF7FEF0E943E
:1009D000CD03089581E090E06FEF7FEF0E94CD039B
:1009E00008958AE992E060E072EC0E948C0782E14F
:1009F00060E00E949C0683E160E00E949C0684E126
:100A000060E00E949C0685E160E00E949C0686E111
:100A100060E00E949C0687E160E00E949C0680E006
:100A20000E9464060E94A70E86E090E090932F0239
:100A300080932E0287E090E09093340280933302FB
:100A400088E090E0909339028093380208950895E9
:100A500080E090E0A8ECB2EC80938D0290938E023F
:100A6000A0938F02B09390020895EF92FF920F939C
:100A70001F930E94F1040F2EF0E0EF2EF0E0FF2E06
:100A8000F0E00F2FF0E01F2FF02D8AE992E0B8017F
:100A9000A70122E030E00E94A30AC801B70120E0CC
:100AA00030E040E85FE30E94F40F7B018C016CE2D0
:100AB00071E080E090E00E94FC05E7CF1F920F926A
:100AC0000FB60F9211242F933F938F939F93AF9361
:100AD000BF938091950290919602A0919702B09158
:100AE0009802309199020196A11DB11D232F2D5F0F
:100AF0002D3720F02D570196A11DB11D209399028D
:100B00008093950290939602A0939702B0939802D7
:100B10008091910290919202A0919302B0919402DF
:100B20000196A11DB11D8093910290939202A09312
:100B30009302B0939402BF91AF919F918F913F9197
:100B40002F910F900FBE0F901F901895789484B539
:100B5000826084BD84B5816084BD85B5826085BDB9
:100B600085B5816085BDEEE6F0E08081816080839F
:100B7000E1E8F0E010828081826080838081816082
:100B80008083E0E8F0E0808181608083E1E9F0E04B
:100B9000808182608083808181608083E0E9F0E0F1
:100BA000808181608083E1ECF0E0808184608083DB
:100BB000808182608083808181608083E3ECF0E0CB
:100BC000808181608083E0ECF0E0808182608083BE
:100BD000E2ECF0E0808181608083EAE7F0E08081F0
:100BE0008460808380818260808380818160808353
:100BF0008081806880830895EF92FF920F931F9306
:100C0000CF93DF937B018C013FB7F89480919102E1
:100C100090919202A0919302B091940226B5A89B64
:100C200005C02F3F19F00196A11DB11D3FBFBA2F7E
:100C3000A92F982F8827820F911DA11DB11D52E069
:100C4000880F991FAA1FBB1F5A95D1F7EC0130C01E
:100C50000E94AF0E3FB7F89480919102909192025A
:100C6000A0919302B091940226B5A89B05C02F3F96
:100C700019F00196A11DB11D3FBFBA2FA92F982FC2
:100C80008827820F911DA11DB11D32E0880F991F89
:100C9000AA1FBB1F3A95D1F78C1B9D0B885E934012
:100CA000B8F20894E108F10801091109C851DC4FB4
:100CB000E114F1040105110559F6DF91CF911F915F
:100CC0000F91FF90EF900895823108F08251E82F44
:100CD000F0E0E05DFE4FE49120917B008E2F869541
:100CE0008695869590E08170907035E0880F991F09
:100CF0003A95E1F72F7D282B20937B00E7708091B8
:100D000012018295880F880F807C8E2B80937C0047
:100D100080917A00806480937A0080917A0086FDC9
:100D2000FCCF2091780040917900942F80E030E052
:100D3000282B392BC9010895CF93DF93482F50E01A
:100D4000CA018C509F4FFC0134914A525F4FFA0107
:100D50008491882369F190E0880F991FFC01E45584
:100D6000FF4FA591B491FC01E654FF4FC591D4917A
:100D7000662351F42FB7F8948C91932F9095892383
:100D80008C93888189230BC0623061F42FB7F8946B
:100D90008C91932F909589238C938881832B8883C2
:100DA0002FBF06C09FB7F8948C91832B8C939FBF65
:100DB000DF91CF910895883071F1893068F48230E5
:100DC00031F1833020F4813009F042C01DC08330FE
:100DD00089F08430E9F512C08B3059F18C3028F459
:100DE0008930E9F08A30A1F51EC08C3031F18E30A7
:100DF00079F529C0809180008F7703C080918000B1
:100E00008F7D80938000089584B58F7702C084B56C
:100E10008F7D84BD0895809190008F7707C0809169
:100E200090008F7D03C080919000877F8093900019
:100E300008958091C0008F7703C08091C0008F7D9E
:100E40008093C00008958091C200877F8093C20084
:100E50000895FF920F931F93F62E482F50E0CA017A
:100E60008E5E9E4FFC012491CA018C509F4FFC0165
:100E700014914A525F4FFA0104910023C9F02223D2
:100E800019F0822F0E94DB06E02FF0E0EE0FFF1F2B
:100E9000E654FF4FA591B4919FB7F894FF2021F439
:100EA0008C911095812302C08C91812B8C939FBFD4
:100EB0001F910F91FF9008950F931F93482F50E0BB
:100EC000CA018E5E9E4FFC012491CA018C509F4F37
:100ED000FC0104914A525F4FFA011491112319F455
:100EE00020E030E015C0222319F0822F0E94DB069B
:100EF000812F90E0880F991F88539F4FFC01A59187
:100F0000B4918C9120E030E0802311F021E030E0BA
:100F1000C9011F910F9108950895FC0124858585CD
:100F200030E0205C3F4F281B31092F733070C9011E
:100F30000895FC0194858585981719F42FEF3FEFEC
:100F400006C08585E80FF11D8685282F30E0C90190
:100F50000895DC011C969C911C971D968C911D9701
:100F6000981719F42FEF3FEF10C01D968C911D9725
:100F7000FD01E80FF11D96851D968C911D978F5FE1
:100F80008F731D968C93292F30E0C901089510921C
:100F90009D0210929C0288EE93E0A0E0B0E0809366
:100FA0009E0290939F02A093A002B093A10281E2BF
:100FB00091E090939B0280939A0208950F931F9360
:100FC000DF93CF930F92CDB7DEB78C016983809109
:100FD0001A01882369F083E0BE016F5F7F4F41E013
:100FE00050E00E942D0C1816190614F49C0107C03D
:100FF00081E090E0F8019383828320E030E0C90132
:101000000F90CF91DF911F910F91089583E00E947F
:10101000040C08950F931F93CF93DF938C01FC0171
:101020000FC082E00E94EA0A9C01FFEF8F3F9F07FA
:1010300099F0F8018485E80FF11D2687F801C4872F
:101040008485C82FD0E02196CF73D070F8018585B4
:1010500090E0C817D90729F7DF91CF911F910F9121
:101060000895FC0180818E5F808380E86CE371E0ED
:1010700042E450E00E94030B0895FC0181819081BD
:10108000913A59F4813209F04CC080E063E171E09B
:1010900047E050E00E94030B42C0913209F041C08A
:1010A000803239F483E191E067E070E00E94EC0B5C
:1010B00036C0823209F035C0828180931A01809156
:1010C000130190911401A0911501B0911601805B5C
:1010D0009440A040B04019F580911A0180FD12C0E3
:1010E00087E797E790930108809300082BE088E159
:1010F00090E00FB6F894A895809360000FBE2093FF
:1011000060000DC088E10FB6F894809360001092E3
:1011100060000FBEA895109201081092000881E0AF
:10112000089580E00895CF93DF930E94A60580EF95
:1011300092E00E940F0C0E943505C0E0D0E00E94B2
:1011400027052097E1F30E940000F9CFCF92DF92AC
:10115000EF92FF920F931F93CF93DF937C016B016C
:101160008A01C0E0D0E00FC0D6016D916D01D701BA
:10117000ED91FC910190F081E02DC7010995C80F18
:10118000D91F015010400115110571F7CE01DF91F3
:10119000CF911F910F91FF90EF90DF90CF90089526
:1011A000EF92FF920F931F938C01DC01ED91FC9164
:1011B0000190F081E02D6DE009957C01D801ED9161
:1011C000FC910190F081E02DC8016AE009959C0135
:1011D0002E0D3F1DC9011F910F91FF90EF900895B3
:1011E000CF93DF93EC016115710519F420E030E035
:1011F0000FC0DB010D900020E9F71197A61BB70B7C
:10120000E881F9810280F381E02DAD0109959C010F
:10121000C901DF91CF9108954F925F927F928F9293
:101220009F92AF92BF92CF92DF92EF92FF920F9375
:101230001F93DF93CF93CDB7DEB7A1970FB6F89486
:10124000DEBF0FBECDBF2C01742ECB01223008F4BF
:101250002AE019A231E2C32ED12CCC0EDD1E822E43
:101260009924AA24BB24672D752FA50194010E94FF
:10127000311279018A01C801B701A50194010E94C8
:101280001212472D461B0894C108D1084A3014F4A5
:10129000405D01C0495CF6014083E114F1040105A1
:1012A000110521F07E2C5F2DC801DDCFC201B601F2
:1012B0000E94F008A1960FB6F894DEBF0FBECDBF16
:1012C000CF91DF911F910F91FF90EF90DF90CF9022
:1012D000BF90AF909F908F907F905F904F900895B8
:1012E000DC012115310541F4ED91FC910190F08173
:1012F000E02D642F099508950E940C090895CF925E
:10130000DF92EF92FF920F931F93CF93DF93EC0145
:101310006A017B012115310541F4E881F9810190D1
:10132000F081E02D642F09951FC02A303105D1F4DA
:1013300077FF17C0E881F9810190F081E02D6DE21F
:1013400009958C0144275527BA014C195D096E098E
:101350007F09CE012AE00E940C099801280F391F4D
:1013600004C02AE00E940C099C01C901DF91CF91C1
:101370001F910F91FF90EF90DF90CF9008957F9293
:101380008F929F92AF92BF92CF92DF92EF92FF9295
:101390000F931F93CF93DF934C017A018B01722E31
:1013A000CB01BA01A80197010E940E12882321F0F7
:1013B000C40160E071E021C0C0E0D0E057016801E5
:1013C000E894D7F8C601B5012FEF3FEF4FE75FE78D
:1013D0000E940E12882351F4C601B5012FEF3FEF92
:1013E0004FE75FE70E945810181614F0C1E0D0E0F4
:1013F000219739F0C40164E071E00E94F008EC012B
:1014000093C0C801B7012FEF3FEF4FE75FE40E94A1
:10141000A711181654F0C801B7012FEF3FEF4FE79F
:101420005FEC0E945810882324F4C40168E071E046
:10143000E4CFC801B70120E030E040E050E00E9476
:10144000581087FD03C0C0E0D0E00EC0D401ED917C
:10145000FC910190F081E02DC4016DE20995EC0151
:1014600017FB109517F9109520E030E040E05FE39E
:10147000DD240BC0CA01B90120E030E040E251E4B4
:101480000E945C109B01AC01D394D71498F3C8015F
:10149000B7010E94F40F5B016C010E94C9107B012F
:1014A0008C01C401B801A7012AE030E00E94700954
:1014B000C80FD91F772039F0C4016CE071E00E9499
:1014C000F008C80FD91FC801B7010E94F5109B0191
:1014D000AC01C601B5010E94F30F24C020E030E04A
:1014E00040E251E40E94AB117B018C010E94C410C8
:1014F0005B016C01CC24B7FCC094DC2CC401B601A8
:10150000A5012AE030E00E947F09C80FD91FC6015B
:10151000B5010E94F7109B01AC01C801B7010E9400
:10152000F30F7A947720D1F6CE01DF91CF911F91FE
:101530000F91FF90EF90DF90CF90BF90AF909F9072
:101540008F907F900895EF92FF920F931F937C01ED
:101550000E94BF098C01C7010E94D008080F191F03
:10156000C8011F910F91FF90EF900895282F80914F
:10157000EA028823C1F057FF1AC015C0289890933B
:10158000E9028091F1008193E217F307B9F7411561
:10159000510539F08091F200882319F48BE680938D
:1015A000E800AFBF02C04FEF5FEFCA010895AFB7C9
:1015B000F89427702093E9008091F200282F30E002
:1015C000241735070CF4A901FB019B01240F311DE1
:1015D00094E6DACFDF93CF930F92CDB7DEB7BE019B
:1015E0006F5F7F4F41E050E00E94B60A019719F00B
:1015F0002FEF3FEF03C08981282F30E0C9010F9002
:10160000CF91DF910895FF920F931F93F82E142F1F
:10161000052F4091ED025091EE02212F302FC9018C
:10162000DC01FB016EEF29C0F7FE02C0949101C0FE
:1016300090812091EB023091EC0224173507ACF435
:101640008091E8008570E1F38091E80082FF03C09B
:101650002FEF3FEF17C09093F100C90101968F73F0
:101660009070892B11F46093E8002F5F3F4F309307
:10167000EC022093EB02119731961097A9F6812F77
:10168000902F9C01C9011F910F91FF9008951F9306
:10169000782FE92F162F2091EB023091EC02A091C8
:1016A000ED02B091EE022A173B07C4F48091E800E6
:1016B0008570E1F38091E80082FD16C0812F90E0F3
:1016C0000196880F991F8093F100C90101968F73CD
:1016D0009070892B19F48EEF8093E8002F5F3F4FB5
:1016E0003093EC022093EB022091EB023091EC025C
:1016F0002A173B07A4F48091E8008570E1F38091FC
:10170000E80082FD12C083E08093F100C9010196D8
:101710008F739070892B19F48EEF8093E8002F5F00
:101720003F4F3093EC022093EB024091EB0250913B
:10173000EC02872F9E2FFC0170E06EEF43C0949166
:101740004A175B07A4F48091E8008570E1F380916B
:10175000E80082FF02C020E00DC09093F100CA01B2
:1017600001968F739070892B11F46093E8004F5F9E
:101770005F4F21E04A175B07A4F48091E800857071
:10178000E1F38091E80082FF02C080E00DC010927A
:10179000F100CA0101968F739070892B11F4609348
:1017A000E8004F5F5F4F81E0319690E030E08223A8
:1017B0009323892B31F45093EC024093EB0280E0A9
:1017C00009C07F5F711708F4BACF5093EC024093C1
:1017D000EB0281E01F9108959C018091E80082FF57
:1017E000FCCFF901260F311D03C08091F1008193D8
:1017F000E217F307D1F7289884E68093E9028BEF8C
:101800008093E800CB0108958093E9008091F20075
:10181000882319F08AE38093E800089508951092D0
:10182000EA0281E08093D70080EA8093D80082E1C9
:1018300089BD09B400FEFDCF61E070E080E090E07A
:101840000E94FC0580E98093D8008CE08093E20040
:101850001092E000559A209A08955F926F927F92BD
:101860008F929F92AF92BF92CF92DF92EF92FF92B0
:101870000F931F93CF93DF93E82E842E752E8091C4
:10188000EA02882371F18B01242F352FC901EC0165
:10189000AAEFFA2EF7E09F2E9E20E0E45E2E8E2D1A
:1018A00090E070E2A72EB12CA822B9226AE3662E3E
:1018B00050E4C52ED12CC822D92258C09FB7F89425
:1018C0009092E9008091E80085FD02C020E004C00C
:1018D0008091F200252D281B9FBF222361F4FA94EA
:1018E00019F42FEF3FEF4DC061E070E080E090E031
:1018F0000E94FC053BC0822F90E0C817D9070CF46A
:101900002C2FC21BD1094FB7F8949092E900A11473
:10191000B10421F406C01092F10021502223D9F71E
:1019200019C0E7FC03C0F801922F10C0C801322F84
:1019300006C0FC010196E491E093F100315033239D
:10194000C1F706C081918093F10091509923D1F79E
:10195000020F111D8091E80085FF05C0209729F432
:10196000C114D10411F06092E8004FBF209709F034
:10197000A5CF5D9884E68093E802282D372DC90114
:101980009C01C901DF91CF911F910F91FF90EF90C2
:10199000DF90CF90BF90AF909F908F907F906F908F
:1019A0005F9008951F920F920FB60F9211242F93FC
:1019B0003F934F935F936F937F938F939F93AF93D7
:1019C000BF93EF93FF938091E1001092E100982F75
:1019D00083FF0FC01092E90081E08093EB0010922A
:1019E000EC0082E38093ED001092EA0288E080939D
:1019F000F00092FF34C083E08093E9008091F20010
:101A0000882319F08AE38093E8008FB7F89492E076
:101A10009093E9009091F2008FBF992321F08AE919
:101A200092E00E940A088091E802882351F0809198
:101A3000E80281508093E8028091E802882309F44B
:101A40005D9A8091E902882351F08091E9028150EA
:101A50008093E9028091E902882309F4289AFF9192
:101A6000EF91BF91AF919F918F917F916F915F9116
:101A70004F913F912F910F900FBE0F901F9018958F
:101A80000F931F93DF93CF930F92CDB7DEB71982D9
:101A90008E010F5F1F4FC8010E943108C8010E94CC
:101AA000E70F898190E00F90CF91DF911F910F9107
:101AB00008951F920F920FB60F921124EF92FF928A
:101AC0001F932F933F934F935F936F937F938F93C6
:101AD0009F93AF93BF93EF93FF93DF93CF93CDB7D4
:101AE000DEB76197DEBFCDBF1092E9008091E800BC
:101AF00083FF14C1FE0131969E01275F3F4F03C053
:101B00008091F1008193E217F307D1F7289884E6DA
:101B10008093E90282EF8093E800998197FF05C0E6
:101B20008091E80080FFFCCF03C08EEF8093E80037
:101B3000292F30E0C90180769070892B09F0C7C049
:101B40008A81882329F41092F1001092F100DBC001
:101B5000813009F4D8C0833009F4D5C0853049F408
:101B60008091E80080FFFCCF8B8180688093E30048
:101B7000CAC0863009F081C01C81EF80F884123021
:101B8000C1F51092E9001092EC021092EB02109253
:101B9000EE021092ED020E94400D99E0FE0139968E
:101BA000DF01292F1D922A95E9F799871A8791E07D
:101BB0009E8790E8988B9AEF998B2091EB02309159
:101BC000EC02275F3F4F3C872B878D871092E900FF
:101BD0001092EC021092EB02F092EE02E092ED0213
:101BE00080E0BF0149E050E00E94030B0E94400DDD
:101BF0008AC01092E9001092EC021092EB02F0926F
:101C0000EE02E092ED02123241F482E290E00E9494
:101C1000DF0F892B09F47BC076C0113079F488E09E
:101C2000E816F10419F481E08093EF028091EF024D
:101C3000882309F070C0EFE9F1E018C0133009F013
:101C400066C08B81882319F4EEE7F1E00FC0823083
:101C500021F482E891E060E106C0813009F057C0CC
:101C600083E991E06BE00E94470B4BC0449180E810
:101C7000BF0150E00E94030B46C0873009F447C003
:101C8000883021F481E08093F1003DC08930D9F59E
:101C900023703070232BD9F5E4ECF1E091E031E0D2
:101CA00026E39093E9003093EB0084918093EC005D
:101CB0002093ED009F5F3196953099F78EE78093E2
:101CC000EA001092EA008B818093EA021CC08F81A7
:101CD00098851092E9001092EC021092EB0290931A
:101CE000EE028093ED028D81882329F4CE010196C6
:101CF0000E943D0806C0823051F4CE0101960E9438
:101D0000B00E882321F08EEF8093E80007C081E2B7
:101D10008093EB0003C0E1EBF1E0A8CF6196DEBF5A
:101D2000CDBFCF91DF91FF91EF91BF91AF919F9187
:101D30008F917F916F915F914F913F912F911F9163
:101D4000FF90EF900F900FBE0F901F901895009787
:101D500029F0BC0180E090E00E94EC010895089514
:101D6000FC0191818081813A31F4913089F080E0E9
:101D7000933089F40DC0813269F49B3021F4828163
:101D800080931B0105C09A3029F4828180931C0145
:101D900081E0089580E00895EF92FF920F931F93E2
:101DA0008C01E62EDC01ED91FC910480F581E02DA3
:101DB0000995F82ED801ED91FC910680F781E02D70
:101DC000C8016E2D09958F2D90E01F910F91FF9006
:101DD000EF9008951092F1021092F5021092F40221
:101DE00083E391E09093F3028093F2020895EF92DF
:101DF000FF920F931F93DF93CF930F92CDB7DEB770
:101E000089838B017A0184E0BE016F5F7F4F41E0DF
:101E100050E00E942D0C84E4B801A7010E942D0C13
:101E20000F90CF91DF911F910F91FF90EF90089548
:101E300082E048E050E00E94F70E0895FC0116820F
:101E40001782108611861286138614823496BF017B
:101E50000E94180F0895DC01683810F0685829C0F6
:101E6000E62FF0E067FF13C0E058F04081E090E01B
:101E700002C0880F991FEA95E2F7809514962C917D
:101E80001497282314962C93149760E012C0EA5BF1
:101E9000FD4F6491662319F420E030E01DC067FF18
:101EA00008C014968C9114978D7F14968C93149778
:101EB0006F77FD0190E0662321F08681861709F493
:101EC00016829F5F31969630B1F7CD011496BD0111
:101ED0000E94180F21E030E0C9010895CF93DF93ED
:101EE000DC01683810F0685825C0E62FF0E067FF85
:101EF00012C0E058F04081E090E002C0880F991FC6
:101F0000EA95E2F714962C911497282B14962C93AB
:101F1000149760E00FC0EA5BFD4F64916623D9F12E
:101F200067FF08C014968C911497826014968C9366
:101F300014976F7716968C9116978617A9F11796B6
:101F40008C911797861781F118968C9118978617A0
:101F500059F119968C911997861731F11A968C912F
:101F60001A97861709F11B968C911B978617E1F03B
:101F7000ED01E0E0F0E09E2F8E81882321F4EA0F4E
:101F8000FB1F668306C09F5F31962196E630F10500
:101F900091F7963049F481E090E013969C938E93EC
:101FA000129720E030E007C0CD011496BD010E94D9
:101FB000180F21E030E0C901DF91CF91089580E84A
:101FC00068EC71E045E650E00E94030B0895FC01C7
:101FD00080818F5F808380E86DE272E049E150E0AC
:101FE0000E94030B08955058BB27AA270ED075C135
:101FF00066D130F06BD120F031F49F3F11F41EF424
:102000005BC10EF4E095E7FB51C1E92F77D180F376
:10201000BA17620773078407950718F071F49EF5E5
:102020008FC10EF4E0950B2EBA2FA02D0B01B90134
:1020300090010C01CA01A0011124FF27591B99F03E
:10204000593F50F4503E68F11A16F040A22F232F4A
:10205000342F4427585FF3CF469537952795A7959A
:10206000F0405395C9F77EF41F16BA0B620B730B41
:10207000840BBAF09150A1F0FF0FBB1F661F771FB2
:10208000881FC2F70EC0BA0F621F731F841F48F467
:10209000879577956795B795F7959E3F08F0B3CFED
:1020A0009395880F08F09927EE0F979587950895D7
:1020B000D9D008F481E008950CD00FC107D140F0C9
:1020C000FED030F021F45F3F19F0F0C0511139C15A
:1020D000F3C014D198F39923C9F35523B1F3951B99
:1020E000550BBB27AA2762177307840738F09F5F39
:1020F0005F4F220F331F441FAA1FA9F333D00E2EA8
:102100003AF0E0E830D091505040E695001CCAF714
:1021100029D0FE2F27D0660F771F881FBB1F2617D9
:1021200037074807AB07B0E809F0BB0B802DBF01AC
:10213000FF2793585F4F2AF09E3F510568F0B6C0C5
:1021400000C15F3FECF3983EDCF386957795679589
:10215000B795F7959F5FC9F7880F911D969587955D
:1021600097F90895E1E0660F771F881FBB1F62177C
:1021700073078407BA0720F0621B730B840BBA0B3A
:10218000EE1F88F7E095089504D06894B111D9C086
:102190000895BCD088F09F5790F0B92F9927B75178
:1021A000A0F0D1F0660F771F881F991F1AF0BA951B
:1021B000C9F712C0B13081F0C3D0B1E00895C0C0FA
:1021C000672F782F8827B85F39F0B93FCCF3869511
:1021D00077956795B395D9F73EF49095809570956E
:1021E00061957F4F8F4F9F4F0895E89409C097FBEB
:1021F0003EF490958095709561957F4F8F4F9F4FDE
:102200009923A9F0F92F96E9BB279395F695879521
:1022100077956795B795F111F8CFFAF4BB0F11F4E4
:1022200060FF1BC06F5F7F4F8F4F9F4F16C088238B
:1022300011F096E911C0772321F09EE8872F762FC1
:1022400005C0662371F096E8862F70E060E02AF002
:102250009A95660F771F881FDAF7880F96958795EE
:1022600097F90895990F0008550FAA0BE0E8FEEFC3
:1022700016161706E807F907C0F012161306E4074A
:10228000F50798F0621B730B840B950B39F40A2643
:1022900061F0232B242B252B21F408950A2609F421
:1022A000A140A6958FEF811D811D089597F99F6725
:1022B00080E870E060E008959FEF80EC08950024CE
:1022C0000A941616170618060906089500240A949B
:1022D00012161306140605060895092E0394000C21
:1022E00011F4882352F0BB0F40F4BF2B11F460FFB0
:1022F00004C06F5F7F4F8F4F9F4F089557FD9058D9
:10230000440F551F59F05F3F71F04795880F97FBB9
:10231000991F61F09F3F79F0879508951216130673
:102320001406551FF2CF4695F1DF08C016161706A2
:102330001806991FF1CF86957105610508940895D7
:10234000E894BB2766277727CB0197F908958ADFA2
:1023500008F48FEF08950BD0C0CFB1DF28F0B6DFBF
:1023600018F0952309F0A2CFA7CF1124EACFC6DF3A
:10237000A0F3959FD1F3950F50E0551F629FF00198
:10238000729FBB27F00DB11D639FAA27F00DB11DF1
:10239000AA1F649F6627B00DA11D661F829F22277A
:1023A000B00DA11D621F739FB00DA11D621F839F01
:1023B000A00D611D221F749F3327A00D611D231FD7
:1023C000849F600D211D822F762F6A2F11249F5725
:1023D00050408AF0E1F088234AF0EE0FFF1FBB1F48
:1023E000661F771F881F91505040A9F79E3F5105E7
:1023F00070F05CCFA6CF5F3FECF3983EDCF38695A0
:1024000077956795B795F795E7959F5FC1F7FE2B91
:10241000880F911D9695879597F9089523DF880B6E
:10242000990B0895629FD001739FF001829FE00D88
:10243000F11D649FE00DF11D929FF00D839FF00D43
:10244000749FF00D659FF00D9927729FB00DE11DEF
:10245000F91F639FB00DE11DF91FBD01CF011124CC
:102460000895A1E21A2EAA1BBB1BFD010DC0AA1FD5
:10247000BB1FEE1FFF1FA217B307E407F50720F0ED
:10248000A21BB30BE40BF50B661F771F881F991F68
:102490001A9469F760957095809590959B01AC01B1
:1024A000BD01CF01089597FB092E05260ED057FDDB
:1024B00004D0D7DF0AD0001C38F4509540953095F1
:1024C00021953F4F4F4F5F4F0895F6F790958095B8
:1024D000709561957F4F8F4F9F4F0895EE0FFF1FAF
:1024E0000590F491E02D09942F923F924F925F92C4
:1024F0006F927F928F929F92AF92BF92CF92DF9214
:10250000EF92FF920F931F93CF93DF93CDB7DEB778
:10251000CA1BDB0B0FB6F894DEBF0FBECDBF09940C
:102520002A88398848885F846E847D848C849B8463
:10253000AA84B984C884DF80EE80FD800C811B8171
:10254000AA81B981CE0FD11D0FB6F894DEBF0FBEA0
:10255000CDBFED01089512E0C2EDD2E004C0FE014E
:102560000E9470122296C43DD107C9F7F894FFCF9C
:102570006E616E00696E66006F7666002E00010067
:1025800000000100E1000000000000010100000067
:1025900000DE07A6088D07A907990706080A0800A4
:0E25A000000000CC0EA6086E0F2B0F1E0F00C1
:00000001FF
