:100000000C9434000C9449000C9449000C94490061
:100010000C9449000C9449000C9449000C9449003C
:100020000C9449000C9449000C9449000C9449002C
:100030000C9449000C9449000C9449000C9449001C
:100040000C9449000C9449000C9449000C9449000C
:100050000C9449000C9449000C9449000C944900FC
:100060000C9449000C94490011241FBECFEFD4E03A
:10007000DEBFCDBF11E0A0E0B1E0EAEFFBE002C0DF
:1000800005900D92A031B107D9F70E949B050C9401
:10009000FB050C944E03F999FECF1FBA82E090E065
:1000A00092BD81BD8FEF80BD0FB6F894FA9AF99A90
:1000B0000FBEF999FECF1FBA84E090E092BD81BDDA
:1000C0008FEF80BD0FB6F894FA9AF99A0FBEF9999E
:1000D000FECF1FBA86E090E092BD81BD8FEF80BD5C
:1000E0000FB6F894FA9AF99A0FBEF999FECF1FBA93
:1000F00088E090E092BD81BD8FEF80BD0FB6F8948F
:10010000FA9AF99A0FBEF999FECF1FBA8AE090E0E9
:1001100092BD81BD8FEF80BD0FB6F894FA9AF99A1F
:100120000FBEF999FECF1FBA8CE090E092BD81BD61
:100130008FEF80BD0FB6F894FA9AF99A0FBEF9992D
:10014000FECF1FBA80E190E092BD81BD8FEF80BDF0
:100150000FB6F894FA9AF99A0FBEF999FECF1FBA22
:100160008EE090E092BD81BD8FEF80BD0FB6F89418
:10017000FA9AF99A0FBE0895F999FECF82E090E0BD
:1001800092BD81BDF89A80B590E08F3F910521F036
:100190009093010180930001F999FECF84E090E0F3
:1001A00092BD81BDF89A80B590E08F3F910521F016
:1001B0009093030180930201F999FECF86E090E0CD
:1001C00092BD81BDF89A80B590E08F3F910521F0F6
:1001D0009093050180930401F999FECF88E090E0A7
:1001E00092BD81BDF89A80B590E08F3F910521F0D6
:1001F0009093070180930601F999FECF8AE090E081
:1002000092BD81BDF89A80B590E08F3F910521F0B5
:100210009093090180930801F999FECF8CE090E05A
:1002200092BD81BDF89A80B590E08F3F910521F095
:1002300090930B0180930A01F999FECF80E190E041
:1002400092BD81BDF89A80B590E08F3F910521F075
:1002500090930D0180930C01F999FECF8EE090E010
:1002600092BD81BDF89A80B590E08F3F910521F055
:1002700090930F0180930E010895299A80910001B7
:1002800087BD409A8091020188BD0895299A89EB23
:1002900087BD409A8FEF88BD0895299A8091080103
:1002A00087BD409880910A0188BD0895299A8FEFF3
:1002B00087BD409A89EB88BD0895299880910E01E9
:1002C00087BD409A80910C0188BD0895299880913E
:1002D000040187BD40988091060188BD0895299842
:1002E00017BC409818BC089522E08835920769F53C
:1002F00080917C00807F80937C0080917C00826074
:1003000080937C0080E395E70197F1F780917A0074
:10031000806480937A0080917A0086FDFCCF2091E2
:100320007800309179005898509A80E58A95F1F7D5
:1003300080917A00806480937A0080917A0086FDB3
:10034000FCCFC901509858985CC08639910569F571
:1003500080917C00807F80937C0080917C00856010
:1003600080937C0080E395E70197F1F780917A0014
:10037000806480937A0080917A0086FDFCCF209182
:10038000780030917900549A5C9880E58A95F1F76D
:1003900080917A00806480937A0080917A0086FD53
:1003A000FCCFC90154985C982CC080917C00807F60
:1003B00080937C0080917C00866080937C0080E349
:1003C00095E70197F1F780917A00806480937A0035
:1003D00080917A0086FDFCCF2091780030917900E1
:1003E000209A289880E58A95F1F780917A008064B8
:1003F00080937A0080917A0086FDFCCFC901209815
:1004000028982091780030917900281B390BC90178
:10041000089522E088359207C1F480917C00807FA6
:1004200080937C0080917C00826080937C0088EBCC
:100430009BE00197F1F780917A00806480937A00C5
:1004400080917A0086FDFCCF32C080529340C1F487
:1004500080917C00807F80937C0080917C0085600F
:1004600080937C0088EB9BE00197F1F780917A0004
:10047000806480937A0080917A0086FDFCCF17C05B
:1004800080917C00807F80937C0080917C008660DE
:1004900080937C0088EB9BE00197F1F780917A00D4
:1004A000806480937A0080917A0086FDFCCF209151
:1004B000780030917900C901089580917C00807F97
:1004C00080937C0080917C00846080937C0088EB2A
:1004D0009BE00197F1F780917A00806480937A0025
:1004E00080917A0086FDFCCF609178007091790050
:1004F00080917C00807F80937C0080917C00816073
:1005000080937C0088EB9BE00197F1F780917A0063
:10051000806480937A0080917A0086FDFCCFE09120
:100520007800F091790080917C00807F80937C003E
:1005300080917C00846080937C0088EB9BE0019735
:10054000F1F7519A599A88E78A95F1F780917A00E4
:10055000806480937A0080917A0086FDFCCF2091A0
:100560007800309179005998519880917C00807F73
:1005700080937C0080917C00816080937C0088EB7C
:100580009BE00197F1F7519A599A88E78A95F1F71C
:1005900080917A00806480937A0080917A0086FD51
:1005A000FCCF409178005091790059985198C90139
:1005B000861B970BBC01485250404E1B5F0B88EBCB
:1005C0009BE00197F1F7CA01861B970B87968F3442
:1005D000910518F422E030E007C020E030E0461733
:1005E000570714F021E030E0C9010895EF92FF921F
:1005F0000F931F93DF93CF9300D000D0CDB7DEB71A
:100600009AE399838A834B836C83FE01319698E049
:10061000E92E8CE0F82EA0E8B0E008E214E1BE017B
:100620006B5F7F4F26C02A9A8E2D8A95F1F72A9804
:100630008F2D8A95F1F7CD01022E02C095958795F1
:100640000A94E2F784239523892B11F02A9A01C09A
:100650002A98802F8A95F1F72A98812F8A95F1F7A9
:100660002F5F3F4F28303105F1F63196E617F70737
:1006700031F08081482F50E020E030E0D4CF80EF8F
:1006800090E00197F1F70F900F900F900F90CF919E
:10069000DF911F910F91FF90EF9008951F920F929D
:1006A0000FB60F9211241F932F933F934F935F9395
:1006B0006F937F938F939F93AF93BF93CF93DF936A
:1006C000EF93FF93F89418BC17BC14B815B817B87B
:1006D00018B81AB81BB8579A5F9A229A14E6C0E65F
:1006E000DAEE812F60E040E00E94F602CE01019731
:1006F000F1F71550B1F757985F9829E088E190E03D
:100700000FB6F894A895809360000FBE2093600008
:10071000FFCF86E990E00E947401855F91400CF460
:100720003AC08091040190910501019690930501D2
:10073000809304018EE160E040E00E94F602299877
:100740008FEF87BD409888BD80E395E70197F1F76B
:1007500029982091040127BD40988091060188BD09
:10076000F999FECF1FBA86E090E092BD81BD20BD11
:100770000FB6F894FA9AF99A0FBE80E197E22CE24C
:1007800031E0F9013197F1F70197D9F780E060E0A6
:1007900040E00E94F60280E293E00E947401855FCF
:1007A00091400CF43AC080910601909107010196A6
:1007B000909307018093060180E06EE140E00E9483
:1007C000F60229988FEF87BD409888BD80E395E7B2
:1007D0000197F1F729988091040187BD40982091F5
:1007E000060128BDF999FECF1FBA88E090E092BDBE
:1007F00081BD20BD0FB6F894FA9AF99A0FBE80E138
:1008000097E22CE231E0F9013197F1F70197D9F73E
:1008100080E060E040E00E94F602089586E990E002
:100820000E947401855F91400CF43AC080910E01E2
:1008300090910F01019690930F0180930E018EE12C
:1008400060E040E00E94F60229988FEF87BD409A51
:1008500018BC80E395E70197F1F7299820910E01E4
:1008600027BD409A80910C0188BDF999FECF1FBA2F
:100870008EE090E092BD81BD20BD0FB6F894FA9A4B
:10088000F99A0FBE80E197E22CE231E0F90131974D
:10089000F1F70197D9F780E060E040E00E94F602AE
:1008A00080E293E00E947401855F91400CF43AC0AD
:1008B00080910C0190910D01019790930D0180930F
:1008C0000C0180E06EE140E00E94F60229988FEF73
:1008D00087BD409A18BC80E395E70197F1F7299806
:1008E00080910E0187BD409A20910C0128BDF99995
:1008F000FECF1FBA80E190E092BD81BD20BD0FB652
:10090000F894FA9AF99A0FBE80E197E22CE231E06E
:10091000F9013197F1F70197D9F780E060E040E005
:100920000E94F602089586E990E00E947401855FB6
:1009300091400CF43AC0809108019091090101970F
:1009400090930901809308018EE160E040E00E94ED
:10095000F602299A17BC40988FEF88BD80E395E78F
:100960000197F1F7299A2091080127BD40988091BD
:100970000A0188BDF999FECF1FBA8AE090E092BDC6
:1009800081BD20BD0FB6F894FA9AF99A0FBE80E1A6
:1009900097E22CE231E0F9013197F1F70197D9F7AD
:1009A00080E060E040E00E94F60280E293E00E9476
:1009B0007401855F91400CF43AC080910A019091D6
:1009C0000B01019690930B0180930A0180E06EE188
:1009D00040E00E94F602299A17BC40988FEF88BD2C
:1009E00080E395E70197F1F7299A8091080187BD87
:1009F000409820910A0128BDF999FECF1FBA8CE0DA
:100A000090E092BD81BD20BD0FB6F894FA9AF99A94
:100A10000FBE80E197E22CE231E0F9013197F1F766
:100A20000197D9F780E060E040E00E94F602089567
:100A300086E990E00E947401855F91400CF439C012
:100A400080910001909101010197909301018093A1
:100A500000018EE160E040E00E94F602299A17BC96
:100A6000409A18BC80E395E70197F1F7299A209105
:100A7000000127BD409A8091020188BDF999FECFFF
:100A80001FBA82E090E092BD81BD20BD0FB6F89400
:100A9000FA9AF99A0FBE80E197E22CE231E0F9016F
:100AA0003197F1F70197D9F780E060E040E00E94CC
:100AB000F60280E293E00E947401855F91400CF49D
:100AC00039C0809102019091030101979093030135
:100AD0008093020180E06EE140E00E94F602299AD4
:100AE00017BC409A18BC80E395E70197F1F7299A63
:100AF0008091000187BD409A2091020128BDF9999B
:100B0000FECF1FBA84E090E092BD81BD20BD0FB63C
:100B1000F894FA9AF99A0FBE80E197E22CE231E05C
:100B2000F9013197F1F70197D9F780E060E040E0F3
:100B30000E94F6020895CF93DF93F999FECF12BC7D
:100B400011BCF89A80B58823E9F4F999FECF1FBA51
:100B500012BC11BC81E080BD0FB6F894FA9AF99AE4
:100B60000FBE18BC17BC14B815B817B818B81AB807
:100B70001BB8789485E083BF889580E090E0DF9192
:100B8000CF910895F999FECF1FBA12BC11BC10BCC9
:100B90000FB6F894FA9AF99A0FBE0E94BC0081E051
:100BA00085BF15BE1DBA8093680080E280936B00FC
:100BB000789414B815B817B818B81AB81BB8579A5B
:100BC0005F9A229A82E480937C0081E880937A0085
:100BD000219A389A559A569A84B5816A84BD83E0E1
:100BE00085BD18BC17BCC0E3D5E70E941805CE012F
:0A0BF0000197F1F7FACFF894FFCF58
:100BFA00CA00CA0033003300CA002A00CA002A0009
:00000001FF
