:100000000C9434000C9451000C9451000C94510049
:100010000C9451000C9451000C9451000C9451001C
:100020000C9451000C9451000C9451000C9451000C
:100030000C9451000C9451000C9451000C945100FC
:100040000C9451000C9451000C9451000C945100EC
:100050000C9451000C9451000C9451000C945100DC
:100060000C9451000C94510011241FBECFEFD4E02A
:10007000DEBFCDBF12E0A0E0B1E0E0EBF9E102C0ED
:1000800005900D92AA31B107D9F712E0AAE1B2E0CA
:1000900001C01D92A032B107E1F70E9425050C9422
:1000A000D60C0C940000F999FECF1FBA82E090E0C4
:1000B00092BD81BD8FEF80BD0FB6F894FA9AF99A80
:1000C0000FBEF999FECF1FBA84E090E092BD81BDCA
:1000D0008FEF80BD0FB6F894FA9AF99A0FBEF9998E
:1000E000FECF1FBA86E090E092BD81BD8FEF80BD4C
:1000F0000FB6F894FA9AF99A0FBEF999FECF1FBA83
:1001000088E090E092BD81BD8FEF80BD0FB6F8947E
:10011000FA9AF99A0FBEF999FECF1FBA8AE090E0D9
:1001200092BD81BD8FEF80BD0FB6F894FA9AF99A0F
:100130000FBEF999FECF1FBA8CE090E092BD81BD51
:100140008FEF80BD0FB6F894FA9AF99A0FBEF9991D
:10015000FECF1FBA80E190E092BD81BD8FEF80BDE0
:100160000FB6F894FA9AF99A0FBEF999FECF1FBA12
:100170008EE090E092BD81BD8FEF80BD0FB6F89408
:10018000FA9AF99A0FBEF999FECF1FBA84E190E06E
:1001900092BD81BD8FEF80BD0FB6F894FA9AF99A9F
:1001A0000FBEF999FECF1FBA82E190E092BD81BDEA
:1001B0008FEF80BD0FB6F894FA9AF99A0FBEF999AD
:1001C000FECF1FBA85E190E092BD81BD8FEF80BD6B
:1001D0000FB6F894FA9AF99A0FBEF999FECF1FBAA2
:1001E00083E190E092BD81BD8FEF80BD0FB6F894A2
:1001F000FA9AF99A0FBE08952F923F924F925F920A
:100200006F927F928F929F92AF92BF92CF92DF9226
:10021000EF92FF920F931F93CF93DF930F2EF0E097
:100220006F2EF0E07F2EF0E08F2EF0E09F2EF02D6D
:10023000840173011301240164015301C0E0D0E083
:1002400080917C00807F80937C0080917C00846022
:1002500080937C0088EB9BE00197F1F780917A0016
:10026000806480937A0080917A0086FDFCCF609153
:1002700078007091790080E090E00E948A0A9B01EA
:10028000AC01C401B3010E945D093B014C018091A6
:100290007C00807F80937C0080917C0081608093D3
:1002A0007C0088EB9BE00197F1F780917A008064F5
:1002B00080937A0080917A0086FDFCCF609178006F
:1002C0007091790080E090E00E948A0A9B01AC0165
:1002D000C201B1010E945D091B012C0180917C00CB
:1002E000807F80937C0080917C00846080937C0080
:1002F00088EB9BE00197F1F7519A599A88E28A9529
:10030000F1F780917A00806480937A0080917A007E
:1003100086FDFCCF609178007091790080E090E0DC
:100320000E948A0A9B01AC01C801B7010E945D09C5
:100330007B018C015998519880917C00807F80933B
:100340007C0080917C00816080937C0088EB9BE046
:100350000197F1F7519A599A88E28A95F1F78091BD
:100360007A00806480937A0080917A0086FDFCCFC9
:10037000609178007091790080E090E00E948A0A94
:100380009B01AC01C601B5010E945D095B016C01D6
:10039000599851982196C530D10509F051CFC8011F
:1003A000B70120E030E040EA50E40E948A097B0176
:1003B0008C01C601B50120E030E040EA50E40E9423
:1003C0008A099B01AC01C801B7010E942C090E9457
:1003D000360AD62EC72EC401B30120E030E040EA31
:1003E00050E40E948A097B018C01C201B10120E026
:1003F00030E040EA50E40E948A099B01AC01C80148
:10040000B7010E942C090E94360A272FF999FECFC6
:100410001FBA84E190E092BD81BDD0BC0FB6F894C4
:10042000FA9AF99A0FBEF999FECF1FBA85E190E0CA
:1004300092BD81BDC0BC0FB6F894FA9AF99A0FBE6E
:10044000F999FECF1FBA82E190E092BD81BD60BDF7
:100450000FB6F894FA9AF99A0FBEF999FECF1FBA1F
:1004600083E190E092BD81BD20BD0FB6F894FA9A69
:10047000F99A0FBEDF91CF911F910F91FF90EF90EE
:10048000DF90CF90BF90AF909F908F907F906F90B4
:100490005F904F903F902F900895F999FECF84E19F
:1004A00090E092BD81BDF89A30B5F999FECF85E113
:1004B00090E092BD81BDF89A20B5922F80E0830F25
:1004C000911D90931B0280931A02F999FECF82E14D
:1004D00090E092BD81BDF89A30B5F999FECF83E1E5
:1004E00090E092BD81BDF89A20B5922F80E0830FF5
:1004F000911D90931F0280931E02F999FECF82E016
:1005000090E092BD81BDF89A80B590E08F3F910553
:1005100021F09093030180930201F999FECF84E0CA
:1005200090E092BD81BDF89A80B590E08F3F910533
:1005300021F09093050180930401F999FECF86E0A4
:1005400090E092BD81BDF89A80B590E08F3F910513
:1005500021F09093070180930601F999FECF88E07E
:1005600090E092BD81BDF89A80B590E08F3F9105F3
:1005700021F09093090180930801F999FECF8AE058
:1005800090E092BD81BDF89A80B590E08F3F9105D3
:1005900021F090930B0180930A01F999FECF8CE032
:1005A00090E092BD81BDF89A80B590E08F3F9105B3
:1005B00021F090930D0180930C01F999FECF80E119
:1005C00090E092BD81BDF89A80B590E08F3F910593
:1005D00021F090930F0180930E01F999FECF8EE0E8
:1005E00090E092BD81BDF89A80B590E08F3F910573
:1005F00021F090931101809310010895299A809120
:10060000020187BD409A8091040188BD0895299A0E
:1006100089EB87BD409A8FEF88BD0895299A809114
:100620000A0187BD409880910C0188BD0895299AE0
:100630008FEF87BD409A89EB88BD089529988091F6
:10064000100187BD409A80910E0188BD08952998B8
:100650008091060187BD40988091080188BD08956A
:10066000299817BC409818BC089522E08835920755
:1006700069F580917C00807F80937C0080917C0074
:10068000826080937C0080E395E70197F1F7809189
:100690007A00806480937A0080917A0086FDFCCF96
:1006A00020917800309179005898509A80E58A9589
:1006B000F1F780917A00806480937A0080917A00CB
:1006C00086FDFCCFC901509858985CC086399105C9
:1006D00069F580917C00807F80937C0080917C0014
:1006E000856080937C0080E395E70197F1F7809126
:1006F0007A00806480937A0080917A0086FDFCCF36
:100700002091780030917900549A5C9880E58A9520
:10071000F1F780917A00806480937A0080917A006A
:1007200086FDFCCFC90154985C982CC080917C0058
:10073000807F80937C0080917C00866080937C0029
:1007400080E395E70197F1F780917A0080648093C8
:100750007A0080917A0086FDFCCF2091780030915C
:100760007900209A289880E58A95F1F780917A009F
:10077000806480937A0080917A0086FDFCCFC90165
:10078000209828982091780030917900281B390B07
:10079000C901089522E088359207C1F480917C0058
:1007A000807F80937C0080917C00826080937C00BD
:1007B00088EB9BE00197F1F780917A008064809349
:1007C0007A0080917A0086FDFCCF32C0805293403F
:1007D000C1F480917C00807F80937C0080917C00BC
:1007E000856080937C0088EB9BE00197F1F7809116
:1007F0007A00806480937A0080917A0086FDFCCF35
:1008000017C080917C00807F80937C0080917C0069
:10081000866080937C0088EB9BE00197F1F78091E4
:100820007A00806480937A0080917A0086FDFCCF04
:100830002091780030917900C9010895EF92FF92DC
:100840000F931F93DF93CF9300D000D0CDB7DEB7C7
:100850009AE399838A834B836C83FE01319698E0F7
:10086000E92E8CE0F82EA0E8B0E008E214E1BE0129
:100870006B5F7F4F26C02A9A8E2D8A95F1F72A98B2
:100880008F2D8A95F1F7CD01022E02C0959587959F
:100890000A94E2F784239523892B11F02A9A01C048
:1008A0002A98802F8A95F1F72A98812F8A95F1F757
:1008B0002F5F3F4F28303105F1F63196E617F707E5
:1008C00031F08081482F50E020E030E0D4CF80EF3D
:1008D00090E00197F1F70F900F900F900F90CF914C
:1008E000DF911F910F91FF90EF90089580E060E0FD
:1008F00040E00E941E0488E592E00197F1F78091A4
:100900007C00807F80937C0080917C008460809359
:100910007C0088EB9BE00197F1F780917A0080647E
:1009200080937A0080917A0086FDFCCF80917800D8
:100930009091790080917C00807F80937C008091F1
:100940007C00816080937C0088EB9BE00197F1F74D
:1009500080917A00806480937A0080917A0086FD8D
:10096000FCCF809178009091790080917C00807F0D
:1009700080937C0080917C00846080937C0088EB75
:100980009BE00197F1F7519A599A88E28A95F1F71D
:1009900080917A00806480937A0080917A0086FD4D
:1009A000FCCF4091780050917900599851988091EE
:1009B0007C00807F80937C0080917C0081608093AC
:1009C0007C0088EB9BE00197F1F7519A599A88E2F5
:1009D0008A95F1F780917A00806480937A00809103
:1009E0007A0086FDFCCF20917800309179005998EB
:1009F000519880911A0290911B02280F391FCA0149
:100A0000821B930B0E964D9720F480E060E042E34A
:100A100006C02417350764F482E360E040E00E94DA
:100A20001E0480E69AEE0197F1F720E030E00BC05B
:100A300080E062E340E00E941E0480E69AEE0197A7
:100A4000F1F721E030E0C90108958F929F92AF92B3
:100A5000BF92CF92DF92EF92FF921F93CF93DF93DB
:100A6000F999FECF12BC11BCF89A80B5882331F5F4
:100A7000F999FECF1FBA12BC11BC81E080BD0FB640
:100A8000F894FA9AF99A0FBE18BC17BC14B815B8A6
:100A900017B818B81AB81BB8789485E083BF889542
:100AA00080E090E0DF91CF911F91FF90EF90DF9079
:100AB000CF90BF90AF909F908F900895F999FECFFF
:100AC0001FBA12BC11BC10BC0FB6F894FA9AF99A6E
:100AD0000FBE0E944D02789414B815B817B818B814
:100AE0001AB81BB8579A5F9A229A82E480937C00C6
:100AF00081E880937A00219A389A559A569A84B55B
:100B0000816A84BD83E085BD18BC17BC54E1852E85
:100B1000912C1FEF42E1A42EB12C35E1C32ED12C34
:100B200023E1E22EF12CCCE2D1E0F999FECF1FBAFD
:100B300092BC81BC10BD0FB6F894FA9AF99A0FBE18
:100B4000F999FECF1FBAB2BCA1BC10BD0FB6F89484
:100B5000FA9AF99A0FBEF999FECF1FBAD2BCC1BC5E
:100B600010BD0FB6F894FA9AF99A0FBEF999FECF14
:100B70001FBAF2BCE1BC10BD0FB6F894FA9AF99A0C
:100B80000FBE88EE93E0FE013197F1F70197D9F798
:100B900084E160E040E00E941E04C7CF86E990E057
:100BA0000E943503855F91400CF43AC080910601A4
:100BB00090910701019690930701809306018EE1C1
:100BC00060E040E00E941E0429988FEF87BD4098A6
:100BD00088BD80E395E70197F1F7299820910601F8
:100BE00027BD40988091080188BDF999FECF1FBAB2
:100BF00086E090E092BD81BD20BD0FB6F894FA9AD0
:100C0000F99A0FBE80E197E22CE231E0F9013197C9
:100C1000F1F70197D9F780E060E040E00E941E0400
:100C200080E293E00E943503855F91400CF43AC066
:100C30008091080190910901019690930901809398
:100C4000080180E06EE140E00E941E0429988FEFC9
:100C500087BD409888BD80E395E70197F1F7299813
:100C60008091060187BD40982091080128BDF9991F
:100C7000FECF1FBA88E090E092BD81BD20BD0FB6C7
:100C8000F894FA9AF99A0FBE80E197E22CE231E0EB
:100C9000F9013197F1F70197D9F780E060E040E082
:100CA0000E941E04089586E990E00E943503855F46
:100CB00091400CF43AC0809110019091110101967D
:100CC00090931101809310018EE160E040E00E945A
:100CD0001E0429988FEF87BD409A18BC80E395E7E2
:100CE0000197F1F729982091100127BD409A809132
:100CF0000E0188BDF999FECF1FBA8EE090E092BD3B
:100D000081BD20BD0FB6F894FA9AF99A0FBE80E122
:100D100097E22CE231E0F9013197F1F70197D9F729
:100D200080E060E040E00E941E0480E293E00E94C8
:100D30003503855F91400CF43AC080910E0190918B
:100D40000F01019790930F0180930E0180E06EE1F7
:100D500040E00E941E0429988FEF87BD409A18BC7E
:100D600080E395E70197F1F729988091100187BDFD
:100D7000409A20910E0128BDF999FECF1FBA80E15B
:100D800090E092BD81BD20BD0FB6F894FA9AF99A11
:100D90000FBE80E197E22CE231E0F9013197F1F7E3
:100DA0000197D9F780E060E040E00E941E040895BA
:100DB00086E990E00E943503855F91400CF43AC0CB
:100DC00080910A0190910B01019790930B01809300
:100DD0000A018EE160E040E00E941E04299A17BCDF
:100DE00040988FEF88BD80E395E70197F1F7299A46
:100DF00020910A0127BD409880910C0188BDF99986
:100E0000FECF1FBA8AE090E092BD81BD20BD0FB633
:100E1000F894FA9AF99A0FBE80E197E22CE231E059
:100E2000F9013197F1F70197D9F780E060E040E0F0
:100E30000E941E0480E293E00E943503855F91408A
:100E40000CF43AC080910C0190910D0101969093A1
:100E50000D0180930C0180E06EE140E00E941E04D1
:100E6000299A17BC40988FEF88BD80E395E70197DA
:100E7000F1F7299A80910A0187BD409820910C01D1
:100E800028BDF999FECF1FBA8CE090E092BD81BDDC
:100E900020BD0FB6F894FA9AF99A0FBE80E197E256
:100EA0002CE231E0F9013197F1F70197D9F780E0B1
:100EB00060E040E00E941E04089586E990E00E94F0
:100EC0003503855F91400CF439C080910201909107
:100ED0000301019790930301809302018EE160E08A
:100EE00040E00E941E04299A17BC409A18BC80E377
:100EF00095E70197F1F7299A2091020127BD409AC1
:100F00008091040188BDF999FECF1FBA82E090E07C
:100F100092BD81BD20BD0FB6F894FA9AF99A0FBE22
:100F200080E197E22CE231E0F9013197F1F7019786
:100F3000D9F780E060E040E00E941E0480E293E088
:100F40000E943503855F91400CF439C08091040103
:100F5000909105010197909305018093040180E031
:100F60006EE140E00E941E04299A17BC409A18BC0A
:100F700080E395E70197F1F7299A8091020187BDF7
:100F8000409A2091040128BDF999FECF1FBA84E050
:100F900090E092BD81BD20BD0FB6F894FA9AF99AFF
:100FA0000FBE80E197E22CE231E0F9013197F1F7D1
:100FB0000197D9F780E060E040E00E941E040895A8
:100FC000A0E0B0E0E6EEF7E00C949F0CDC012B0112
:100FD000FA019C91923008F439C1EB01888182308A
:100FE00008F433C1943069F4843009F02FC11196AC
:100FF0009C9111978981981709F428C1A2E1B1E069
:1010000025C1843009F421C18230A9F4923009F05D
:101010001DC19A01AD0188E0EA010990AE01E90124
:1010200009929E018150C1F7E201898111969C913C
:101030008923818308C1923009F407C112962D904B
:101040003C901397EB018A819B811496AD90BD90E3
:10105000CD90DC901797EC80FD800E811F8191016F
:10106000281B390BB90137FF04C066277727621B9D
:10107000730B603271050CF061C0121613066CF52B
:1010800037014801062E04C096948794779467949C
:101090000A94D2F721E030E040E050E004C0220F93
:1010A000331F441F551F6A95D2F7215030404040EE
:1010B00050402E213F214023512321153105410568
:1010C000510521F021E030E040E050E079018A0153
:1010D000E628F728082919293CC0232BD1F1260E30
:1010E000371E35014601062E04C0969487947794E6
:1010F00067940A94D2F721E030E040E050E004C069
:10110000220F331F441F551F6A95D2F721503040DC
:10111000404050402A213B214C215D2121153105C1
:101120004105510521F021E030E040E050E0590157
:101130006A01A628B728C828D9280BC082159305AC
:101140002CF01C01AA24BB24650103C0EE24FF245B
:10115000870111969C91D20111968C91981709F4F0
:1011600045C0992339F0A80197012A193B094C0978
:101170005D0906C0A60195012E193F09400B510BD0
:1011800057FD08C01182338222822483358346832F
:1011900057831DC081E0818333822282882799276B
:1011A000DC01821B930BA40BB50B84839583A68370
:1011B000B7830DC0220F331F441F551F248335836F
:1011C000468357838281938101979383828324810D
:1011D000358146815781DA01C9010197A109B10919
:1011E0008F5F9F4FAF4FBF4328F30BC09183338274
:1011F0002282EA0CFB1C0C1D1D1DE482F582068375
:10120000178383E08083248135814681578157FF8E
:101210001AC0C901AA2797FDA095BA2F81709070B6
:10122000A070B0705695479537952795822B932BD4
:10123000A42BB52B84839583A683B7838281938166
:10124000019693838283DF0101C0D201CD01CDB726
:10125000DEB7E2E10C94BB0CA0E2B0E0E2E3F9E01F
:101260000C94AB0C69837A838B839C832D833E83A0
:101270004F835887E9E0EE2EF12CEC0EFD1ECE01D7
:101280000196B7010E94270C8E010F5E1F4FCE0101
:101290000596B8010E94270C8A8991E089278A8BDC
:1012A000C701B801AE01475E5F4F0E94E0070E9490
:1012B000520BA096E6E00C94C70CA0E2B0E0E3E687
:1012C000F9E00C94AB0C69837A838B839C832D8328
:1012D0003E834F835887F9E0EF2EF12CEC0EFD1E74
:1012E000CE010196B7010E94270C8E010F5E1F4FA1
:1012F000CE010596B8010E94270CC701B801AE01C6
:10130000475E5F4F0E94E0070E94520BA096E6E006
:101310000C94C70CA8E1B0E0E0E9F9E00C94A70C4C
:1013200069837A838B839C832D833E834F83588785
:10133000B9E0EB2EF12CEC0EFD1ECE010196B701AB
:101340000E94270C8E010F5E1F4FCE010596B8013B
:101350000E94270C2985223008F47EC0398932305A
:1013600010F4B8017CC08A859A8989278A8724303D
:1013700011F0223031F4231709F06EC062E171E000
:101380006EC0343039F41D861E861F86188A1C866E
:101390001B8604C0323021F484E08987B7015FC026
:1013A0002B853C858B899C89281B390B3C872B8797
:1013B000ED84FE840F851889AD88BE88CF88D88CCF
:1013C000EA14FB040C051D0540F4EE0CFF1C001F85
:1013D000111F215030403C872B8720E030E040E057
:1013E00050E080E090E0A0E0B0E460E070E0EA145B
:1013F000FB040C051D0540F0282B392B4A2B5B2BD9
:10140000EA18FB080C091D09B695A79597958795CD
:10141000EE0CFF1C001F111F6F5F7F4F6F317105B6
:1014200031F7DA01C9018F779070A070B070803405
:101430009105A105B10561F427FD0AC0E114F1048D
:101440000105110529F0205C3F4F4F4F5F4F207879
:101450002D873E874F87588BBE01675F7F4FCB013B
:101460000E94520B6896EAE00C94C30CACE0B0E02A
:10147000ECE3FAE00C94AF0C69837A838B839C8352
:10148000CE010196BE016B5F7F4F0E94270C8D81BC
:10149000823061F1823050F1843021F48E818823D2
:1014A00051F12EC02F81388537FD20C06E812F313C
:1014B00031051CF06623F9F023C08EE190E0821B19
:1014C000930B29853A854B855C8504C056954795D5
:1014D000379527958A95D2F76623B1F050954095B8
:1014E000309521953F4F4F4F5F4F0EC020E030E0C9
:1014F00040E050E009C02FEF3FEF4FEF5FE704C03F
:1015000020E030E040E050E8B901CA012C96E2E06A
:101510000C94CB0CA8E0B0E0E0E9FAE00C94A70C46
:101520007B018C01611571058105910519F482E03B
:10153000898360C083E089838EE1C82ED12CDC8250
:10154000CB82ED82FE820F831887C801B7010E940B
:10155000030BFC013197F7FF3BC0222733272E1BDB
:101560003F0B57016801022E04C0D694C794B7946C
:10157000A7940A94D2F740E050E060E070E081E088
:1015800090E0A0E0B0E004C0880F991FAA1FBB1F25
:101590002A95D2F70197A109B1098E219F21A02395
:1015A000B1230097A105B10521F041E050E060E0D2
:1015B00070E04A295B296C297D294D835E836F8306
:1015C00078878EE190E08E1B9F0B9C838B8312C0EB
:1015D000309781F00E2E04C0EE0CFF1C001F111F6F
:1015E0000A94D2F7ED82FE820F831887CE1ADF0AA3
:1015F000DC82CB821A82CE0101960E94520B289681
:10160000EAE00C94C30CEF92FF920F931F937B01BF
:101610008C0180E0E81680E0F80681E0080780E0B1
:10162000180788F48FEFE816F1040105110531F071
:1016300028F088E090E0A0E0B0E017C080E090E003
:10164000A0E0B0E012C080E0E81680E0F80680E09C
:10165000080781E0180728F088E190E0A0E0B0E0FA
:1016600004C080E190E0A0E0B0E020E230E040E0A3
:1016700050E0281B390B4A0B5B0B04C016950795ED
:10168000F794E7948A95D2F7F701E65EFE4F8081E2
:10169000281B310941095109C9011F910F91FF9080
:1016A000EF900895DF92EF92FF920F931F93FC014A
:1016B000E480F58006811781D1808081823048F4F2
:1016C00080E090E0A0E1B0E0E82AF92A0A2B1B2B89
:1016D000A5C0843009F49FC0823021F4EE24FF2499
:1016E000870105C0E114F1040105110519F4E0E0DA
:1016F000F0E096C0628173819FEF623879070CF049
:101700005BC022E83FEF261B370B2A3131052CF056
:1017100020E030E040E050E02AC0B801A701022EEE
:1017200004C076956795579547950A94D2F781E05E
:1017300090E0A0E0B0E004C0880F991FAA1FBB1F73
:101740002A95D2F70197A109B1098E219F21A023E3
:10175000B1230097A105B10521F081E090E0A0E060
:10176000B0E09A01AB01282B392B4A2B5B2BDA0115
:10177000C9018F779070A070B07080349105A10579
:10178000B10539F427FF09C0205C3F4F4F4F5F4F31
:1017900004C0215C3F4F4F4F5F4FE0E0F0E020304E
:1017A000A0E03A07A0E04A07A0E45A0710F0E1E001
:1017B000F0E079018A0127C06038710564F5FB010A
:1017C000E158FF4FD801C7018F779070A070B070BB
:1017D00080349105A105B10539F4E7FE0DC080E420
:1017E00090E0A0E0B0E004C08FE390E0A0E0B0E0C3
:1017F000E80EF91E0A1F1B1F17FF05C01695079557
:10180000F794E794319687E016950795F794E79457
:101810008A95D1F705C0EE24FF248701EFEFF0E0B1
:101820006E2F679566276795902F9F77D794DD2455
:10183000D7948E2F8695492F462B582F5D29B701B7
:10184000CA011F910F91FF90EF90DF900895FC0166
:10185000DB01408151812281622F6F7770E0221F6E
:101860002227221F9381892F880F822B282F30E077
:10187000991F9927991F11969C931197211531054E
:10188000A9F5411551056105710511F482E037C0D4
:1018900082E89FEF13969C938E9312979A01AB0167
:1018A00067E0220F331F441F551F6A95D1F783E06D
:1018B0008C930DC0220F331F441F551F12968D911C
:1018C0009C911397019713969C938E9312972030B7
:1018D00080E0380780E0480780E4580758F3149602
:1018E0002D933D934D935C93179708952F3F3105AA
:1018F00079F4411551056105710519F484E08C9363
:10190000089564FF03C081E08C9312C01C9210C044
:101910002F57304013963C932E93129783E08C936D
:1019200087E0440F551F661F771F8A95D1F77064B3
:1019300014964D935D936D937C93179708952F9212
:101940003F924F925F926F927F928F929F92AF924F
:10195000BF92CF92DF92EF92FF920F931F93CF939C
:10196000DF93CDB7DEB7CA1BDB0B0FB6F894DEBF33
:101970000FBECDBF09942A88398848885F846E8459
:101980007D848C849B84AA84B984C884DF80EE80A3
:10199000FD800C811B81AA81B981CE0FD11D0FB6AC
:1019A000F894DEBF0FBECDBFED010895F894FFCFD0
:1019B0008813CA00CA0033003300CA002A00CA00D4
:1019C0002A000000000000000000000102020303E2
:1019D00003030404040404040404050505050505C3
:1019E00005050505050505050505060606060606A1
:1019F0000606060606060606060606060606060687
:101A00000606060606060606060607070707070770
:101A10000707070707070707070707070707070756
:101A20000707070707070707070707070707070746
:101A30000707070707070707070707070707070736
:101A40000707070707070707070708080808080820
:101A50000808080808080808080808080808080806
:101A600008080808080808080808080808080808F6
:101A700008080808080808080808080808080808E6
:101A800008080808080808080808080808080808D6
:101A900008080808080808080808080808080808C6
:101AA00008080808080808080808080808080808B6
:101AB00008080808080808080808080808080808A6
:0A1AC00008080808080808080808CC
:00000001FF
