:100000000C9466000C948E000C948E000C948E0060
:100010000C948E000C948E000C948E000C948E0028
:100020000C948E000C948E000C948E000C94CB01DA
:100030000C948E000C9405010C948E000C948E0090
:100040000C94A5060C948E000C9429050C948E003B
:100050000C948E000C948E000C948E000C948E00E8
:100060000C948E000C948E000000000024002700E9
:100070002A0000000000250028002B0000000000DE
:1000800023002600290004040404040404040202DA
:100090000202020203030303030301020408102007
:1000A0004080010204081020010204081020000012
:1000B0000007000201000003040600000000000029
:1000C0000000F100E60326042506DF0311241FBE0D
:1000D000CFEFD4E0DEBFCDBF11E0A0E0B1E0ECE9AE
:1000E000FFE002C005900D92A831B107D9F713E0E7
:1000F000A8E1B1E001C01D92AB30B107E1F710E01B
:10010000CAECD0E004C02297FE010E948607C23CE0
:10011000D107C9F70E945F060C94C1070C94000038
:10012000A0E0B0E0E6E9F0E00C949207EC01A880D2
:10013000B980CA80DB80A114B104C104D10441F4A8
:1001400084E2A82E89EDB82E8BE5C82E87E0D82E44
:10015000C601B5012DE133EF41E050E00E9469078F
:1001600027EA31E440E050E00E9428077B018C013F
:10017000C601B5012DE133EF41E050E00E9469076F
:10018000CA01B9012CEE34EF4FEF5FEF0E94280750
:100190006E0D7F1D801F911F97FF04C0615070403E
:1001A00080409048688379838A839B839B01AC015C
:1001B0005F77B901CA01CDB7DEB7EAE00C94AE07AC
:1001C0000E949000089580E091E00E9490000895C0
:1001D00060930001709301018093020190930301E9
:1001E000089580E090E0A8ECB2EC80931801909321
:1001F0001901A0931A01B0931B010895FC01138209
:1002000060931C0110921E0108951F920F920FB669
:100210000F9211242F933F934F935F936F937F938C
:100220008F939F93AF93BF93EF93FF9381EA9FEFD9
:10023000909385008093840080911C010E94D604D5
:10024000482F80911F0190912001019690932001E9
:1002500080931F018091B9018C3418F085E0809360
:100260001D0180911D018330D1F0843020F4823053
:1002700009F059C006C0843071F1853009F053C0CF
:100280004CC0442309F04FC080911F019091200180
:100290008436910508F443C01092B9011EC0413064
:1002A00009F041C08091B901E82FF0E020911F01D1
:1002B00030912001EE0FFF1FE45EFE4F3683258351
:1002C0008F5F8093B9011092200110921F0184E08A
:1002D00080931D0128C04423B9F48091B901E82F0F
:1002E000F0E020911F0130912001EE0FFF1FE45E2E
:1002F000FE4F368325838F5F8093B90110922001D2
:1003000010921F0183E0E4CF80911F0190912001A2
:100310008536910540F085E0DBCF442321F410922F
:10032000200110921F0180911E01882329F044238F
:1003300011F42D9A01C02D98FF91EF91BF91AF91CB
:100340009F918F917F916F915F914F913F912F91ED
:100350000F900FBE0F901F901895FC018FEF9FEF2D
:10036000918380838091BA018C3090F482838F5F77
:100370008093BA01815090E0FC01EE0FFF1FE80F5F
:10038000F91FE554FE4F88EB9BE09283818308952B
:100390008FEF828308951F920F920FB60F92112450
:1003A0002F933F934F935F936F937F938F939F937D
:1003B000AF93BF93EF93FF938091DF0187FF05C059
:1003C00010928500109284002BC02091DF0133270A
:1003D00027FD30958091BA0190E02817390704F580
:1003E0008091DF01992787FD9095FC01EE0FFF1F9B
:1003F000E80FF91FE554FE4F808186FF11C0809100
:10040000DF01992787FD9095FC01EE0FFF1FE80F94
:10041000F91FE554FE4F80818F7360E00E947E04D7
:100420008091DF018F5F8093DF012091DF0133270F
:1004300027FD30958091BA0190E0281739070CF01C
:100440004EC08091DF018C300CF049C020918400B7
:10045000309185008091DF01992787FD9095FC01FF
:10046000EE0FFF1FE80FF91FE554FE4F81819281C7
:10047000280F391F30938900209388008091DF0175
:10048000992787FD9095FC01EE0FFF1FE80FF91FDC
:10049000E554FE4F808186FF2AC08091DF019927B5
:1004A00087FD9095FC01EE0FFF1FE80FF91FE55443
:1004B000FE4F80818F7361E00E947E0418C080E44B
:1004C0009CE905C0809184009091850004969093EA
:1004D0008900809388008FEF8093DF0108C08091AE
:1004E00084009091850084549C4948F3EBCFFF91A0
:1004F000EF91BF91AF919F918F917F916F915F919C
:100500004F913F912F910F900FBE0F901F90189514
:10051000EF92FF920F931F93FC01162FF42EE22E01
:100520000083118280E090E0A0E0B0E082839383BA
:10053000A483B58386839783A087B1878DEC9CECD9
:10054000ACECBDE382879387A487B58766877787FE
:10055000408B518B228B338B862F61E00E94580495
:100560008F2D61E00E9458048E2D61E00E94580496
:10057000812F60E00E947E048F2D60E00E947E0447
:100580008E2D60E00E947E041F910F91FF90EF90EE
:100590000895EF92FF920F93CF93DF93EC017B01CD
:1005A0008130910509F005C18FEF6F3F780709F0A1
:1005B00000C180E090E0A8ECB2EC809363029093DD
:1005C0006402A0936502B093660280EE91E063E05E
:1005D00070E044E050E025E030E001E00E94880255
:1005E00084EF91E06BE070E04AE050E029E030E019
:1005F0000E94880288E092E00E94AD018DE092E0C6
:100600000E94AD0182E192E00E94AD0187E192E09B
:1006100062E070E00E94FE0010921C0210921B0229
:10062000D0931E02C0931D0225E020931F02F0927A
:100630003F02E0923E028DE292EBA6E6B1E48093A7
:10064000200290932102A0932202B093230284E21D
:1006500099EBACEDBFE38093240290932502A09325
:100660002602B093270280E090E0A0EAB1E48093F4
:10067000280290932902A0932A02B0932B0284EBC4
:1006800098ECA1E9B1E480932C0290932D02A09301
:100690002E02B0932F0283E49CE1ADEAB0E4809394
:1006A000300290933102A0933202B093330280E083
:1006B00090E0ACE8B2E48093340290933502A093CA
:1006C0003602B09337028EEF91E090933902809317
:1006D000380289EB90E090933B0280933A0285E6E2
:1006E00090E090933D0280933C02D0934102C093EE
:1006F000400220934202F0926202E092610286EE92
:100700009FE3A8ECB0E48093430290934402A0934B
:100710004502B09346028FE29DEDACEEBFE38093BD
:10072000470290934802A0934902B0934A0280E0A6
:1007300090E0A0E2B1E480934B0290934C02A0932E
:100740004D02B0934E028AEA92E8ACE0B1E48093A5
:100750004F0290935002A0935102B09352028AE14B
:1007600091E5A2ECB0E48093530290935402A093DD
:100770005502B093560280E090E0ACE0B2E4809382
:10078000570290935802A0935902B0935A0283E003
:1007900092E090935C0280935B0287EA90E09093F2
:1007A0005E0280935D028AE590E090936002809300
:1007B0005F02DF91CF910F91FF90EF90089580E05D
:1007C00090E06FEF7FEF0E94C902089581E090E012
:1007D0006FEF7FEF0E94C90208958FEE92E040E034
:1007E00052EC61E070E00E945A058EE060E00E94E9
:1007F00058048FE060E00E94580480E160E00E94AD
:10080000580481E160E00E94580482E160E00E94A7
:10081000580483E160E00E94580480E00E9436049E
:100820000E949D0686E090E0909309028093080262
:1008300087E090E090930E0280930D0288E090E0B4
:1008400090931302809312020895089580E090E03F
:10085000A8ECB2EC8093670290936802A0936902BF
:10086000B0936A0208950E94ED030895982F8E3088
:1008700008F09E509770809104018295880F880F30
:10088000807C892B80937C0080917A0080648093A7
:100890007A0080917A0086FDFCCF2091780040910B
:1008A0007900942F80E030E0282B392BC90108957E
:1008B000482F50E0CA0186569F4FFC0124914A57A9
:1008C0005F4FFA0184918823C1F0E82FF0E0EE0F2A
:1008D000FF1FE859FF4FA591B491662341F49FB7DC
:1008E000F8948C91209582238C939FBF08959FB795
:1008F000F8948C91822B8C939FBF0895482F50E0E1
:10090000CA0182559F4FFC012491CA0186569F4F10
:10091000FC0134914A575F4FFA019491992309F4ED
:1009200044C0222351F1233071F0243028F42130C7
:10093000A1F0223011F514C02630B1F02730C1F0FB
:100940002430D9F404C0809180008F7703C0809157
:1009500080008F7D8093800010C084B58F7702C0A7
:1009600084B58F7D84BD09C08091B0008F7703C0AE
:100970008091B0008F7D8093B000E92FF0E0EE0F02
:10098000FF1FEE58FF4FA591B491662341F49FB726
:10099000F8948C91309583238C939FBF08959FB7D3
:1009A000F8948C91832B8C939FBF0895682F70E0EF
:1009B000CB0182559F4FFC012491CB0186569F4F5E
:1009C000FC0144916A577F4FFB019491992319F4DC
:1009D00020E030E03CC0222351F1233071F024307C
:1009E00028F42130A1F0223011F514C02630B1F0E6
:1009F0002730C1F02430D9F404C0809180008F7773
:100A000003C0809180008F7D8093800010C084B5EA
:100A10008F7702C084B58F7D84BD09C08091B000FE
:100A20008F7703C08091B0008F7D8093B000892FB5
:100A300090E0880F991F84589F4FFC01A591B491B5
:100A40008C9120E030E0842311F021E030E0C901F6
:100A500008951F920F920FB60F9211242F933F9378
:100A60004F938F939F93EF93FF934091C600E09134
:100A7000EB02F091EC0231969F012F7730703197A5
:100A80008091ED029091EE022817390739F0E5596F
:100A9000FD4F40833093EC022093EB02FF91EF91E6
:100AA0009F918F914F913F912F910F900FBE0F907B
:100AB0001F901895CF93DF93EC019A01AB01E88565
:100AC000F985203081EE380780E0480780E058073C
:100AD00009F449C081E090E00A8802C0880F991F9C
:100AE0000A94E2F7808360E079E08DE390E00E9471
:100AF00069072150304040405040CA01B90122E00E
:100B000030E040E050E00E946907EC81FD813083D5
:100B1000EE81FF812083EA85FB85208141E050E062
:100B2000CA010E8402C0880F991F0A94E2F7282B8D
:100B30002083EA85FB852081CA010F8402C0880FCB
:100B4000991F0A94E2F7282B2083EA85FB85808190
:100B5000088802C0440F551F0A94E2F7842B808353
:100B6000DF91CF910895108220E130E0CECFDC01FB
:100B70001296ED91FC911397E058FF4F219131911E
:100B800080819181281B390B2F773070C90108951E
:100B9000DC011296ED91FC911397EE57FF4F2081E7
:100BA000318192918291E058F0408217930719F4B5
:100BB0002FEF3FEF05C0E20FF31F8081282F30E0B9
:100BC000C9010895DC011296ED91FC911397DF01A4
:100BD000AE57BF4F2D913C911197E058FF4F808148
:100BE0009181E058F0408217930719F42FEF3FEFFF
:100BF0000BC0E20FF31F80812F5F3F4F2F773070C4
:100C00002D933C93282F30E0C9010895DC01129602
:100C1000ED91FC911397EE57FF4F80819181929354
:100C200082930895FC01A085B18521898C9190E083
:100C3000022E02C0959587950A94E2F780FFF6CFC1
:100C40000484F585E02D6083089589E091E0909318
:100C5000F0028093EF028BE692E09093F202809391
:100C6000F10285EC90E09093F4028093F30284EC1F
:100C700090E09093F6028093F50280EC90E09093E0
:100C8000F8028093F70281EC90E09093FA0280934F
:100C9000F90286EC90E09093FC028093FB0284E0E2
:100CA0008093FD0283E08093FE0287E08093FF0241
:100CB00085E08093000381E08093010308950E9402
:100CC000ED060E9433040E942504FDCF0F931F936D
:100CD000CF93DF938C01EB0109C02196D801ED91F0
:100CE000FC910190F081E02DC8010995688166238F
:100CF000A1F7DF91CF911F910F910895EF92FF928D
:100D00000F931F93CF93DF938C017B01EA010CC0FB
:100D1000D7016D917D01D801ED91FC910190F08199
:100D2000E02DC80109952197209791F7DF91CF9188
:100D30001F910F91FF90EF900895009729F0BC014B
:100D400080E090E00E94E80008951F920F920FB695
:100D50000F9211242F933F938F939F93AF93BF9341
:100D60008091060390910703A0910803B0910903B5
:100D700030910A030196A11DB11D232F2D5F2D3740
:100D800020F02D570196A11DB11D20930A038093D9
:100D9000060390930703A0930803B093090380917F
:100DA000020390910303A0910403B09105030196FF
:100DB000A11DB11D8093020390930303A09304032C
:100DC000B0930503BF91AF919F918F913F912F9168
:100DD0000F900FBE0F901F901895789484B5826085
:100DE00084BD84B5816084BD85B5826085BD85B5CF
:100DF000816085BDEEE6F0E0808181608083E1E87E
:100E0000F0E01082808182608083808181608083B5
:100E1000E0E8F0E0808181608083E1EBF0E08081B8
:100E200084608083E0EBF0E0808181608083EAE78A
:100E3000F0E0808184608083808182608083808113
:100E4000816080838081806880831092C1000895D2
:100E5000629FD001739FF001829FE00DF11D649F9E
:100E6000E00DF11D929FF00D839FF00D749FF00D2A
:100E7000659FF00D9927729FB00DE11DF91F639FCB
:100E8000B00DE11DF91FBD01CF0111240895A1E2AC
:100E90001A2EAA1BBB1BFD010DC0AA1FBB1FEE1FF4
:100EA000FF1FA217B307E407F50720F0A21BB30B3F
:100EB000E40BF50B661F771F881F991F1A9469F7BB
:100EC00060957095809590959B01AC01BD01CF0117
:100ED000089597FB092E05260ED057FD04D0D7DFC5
:100EE0000AD0001C38F450954095309521953F4F1D
:100EF0004F4F5F4F0895F6F79095809570956195E7
:100F00007F4F8F4F9F4F0895EE0FFF1F0590F49175
:100F1000E02D09942F923F924F925F926F927F92B1
:100F20008F929F92AF92BF92CF92DF92EF92FF92F9
:100F30000F931F93CF93DF93CDB7DEB7CA1BDB0BA5
:100F40000FB6F894DEBF0FBECDBF09942A8839884A
:100F500048885F846E847D848C849B84AA84B98451
:100F6000C884DF80EE80FD800C811B81AA81B9815D
:100F7000CE0FD11D0FB6F894DEBF0FBECDBFED0171
:100F8000089510E0CAECD0E004C0FE010E9486077C
:0C0F90002296CC3CD107C9F7F894FFCFA3
:100F9C00010000000100000000120666067E06B784
:080FAC0005E205C80506060078
:00000001FF
