:100000000C94FA000C9422010C9422010C9422010D
:100010000C9422010C9422010C9422010C942201D4
:100020000C9422010C9422010C94C50C0C94220116
:100030000C941A120C9422010C9422010C942201AB
:100040000C9422010C94ED070C9422010C942201D3
:100050000C9422010C9488070C9422010C94440BFC
:100060000C9422010C9422010C9422010C94220184
:100070000C9422010C9422010C9422010C94220174
:100080000C941C030C9422010C9422010C94560233
:100090000C9422010C9422010C9422010C94220154
:1000A0000C9422010C9422010C9422010100000006
:1000B00000240027002A002D003000000000002549
:1000C0000028002B002E0031000000000023002635
:1000D0000029002C002F000404040204040304047B
:1000E00002020202020606060606060205030204D2
:1000F000050408014020804002408001040802807D
:1001000040201002011040802010040000000C006C
:100110000E000000010000000000000000000000D0
:10012000000B000000070605040100080E0F100078
:1001300001000004050607202122232425271E1F75
:100140000600FF0901A1010902150025FF750895A8
:100150000881020903150025FF750895089102C062
:100160001201100100000008EB034F200100010202
:10017000000109022900010100C032090400000247
:100180000300000009211101000122200007058160
:10019000030800010705020308000104030904180D
:1001A000034400650061006E002000430061006DA3
:1001B0000065007200610000002C034C00550046F1
:1001C0000041002000470065006E00650072006974
:1001D00000630020004800490044002000440065FE
:1001E000006D006F00000000850133055A053907D6
:1001F0001E0B2C0511241FBECFEFDAE0DEBFCDBFF2
:1002000011E0A0E0B1E0E0EBFAE202C005900D924F
:10021000A031B107D9F713E0A0E1B1E001C01D9210
:10022000A93AB107E1F711E0C2EFD1E004C022978B
:10023000FE010E941015C83ED107C9F70E9446076B
:100240000C944B150C940000A0E0B0E0EAE2F1E061
:100250000C941C15EC01A880B980CA80DB80A11425
:10026000B104C104D10441F484E2A82E89EDB82E72
:100270008BE5C82E87E0D82EC601B5012DE133EFFE
:1002800041E050E00E94DF1427EA31E440E050E012
:100290000E948B147B018C01C601B5012DE133EF67
:1002A00041E050E00E94DF14CA01B9012CEE34EFA6
:1002B0004FEF5FEF0E948B146E0D7F1D801F911F0B
:1002C00097FF04C0615070408040904868837983F4
:1002D0008A839B839B01AC015F77B901CA01CDB7CB
:1002E000DEB7EAE00C9438150E942401089580E0FE
:1002F00091E00E9424010895609300017093010130
:100300008093020190930301089580E090E0A8ECAF
:10031000B2EC8093100190931101A0931201B0935D
:1003200013010895AF92BF92CF92DF92EF92FF92A6
:100330000F931F93CF93DF93EC01D42EC52EB62ECF
:10034000A72EE0901001F090110100911201109180
:100350001301642F752F8B2D9A2DA80197010E94F0
:10036000121387FD1DC06D2D7C2D8B2D9A2D20E045
:1003700030E048EC52E40E94241418165CF40F2E6E
:10038000F0E0EF2EF0E0FF2EF8EC0F2FF2E41F2F3D
:10039000F02D06C08D2D9C2DAB2DBA2D7C018D012D
:1003A0008A819B81AC81BD818E839F83A887B98719
:1003B000EA82FB820C831D838881882321F417FB4A
:1003C000109517F91095C801B70120E030E048EC0E
:1003D00052E40E94161320E030E04FE753E40E94FD
:1003E00028145B016C01EA84FB840C851D85A8013F
:1003F00097010E94241418165CF4888961E00E9419
:10040000D4068A8960E00E94D406C601B50114C0F2
:10041000A80197015058C601B5010E941213882304
:10042000A4F4888960E00E94D4068A8961E00E9471
:10043000D406C601B50190580E947E139B01AC0101
:100440008E85B9010E94B20511C08E8560E070E012
:100450000E94B2058E8560E00E94D406888960E023
:100460000E94D4068A8960E00E94D4061982DF9136
:10047000CF911F910F91FF90EF90DF90CF90BF90A1
:10048000AF900895FC0160838181882339F4428113
:10049000538164817581CF010E9492010895FC010E
:1004A0001382609314011092160108951F920F9207
:1004B0000FB60F9211242F933F934F935F936F9337
:1004C0007F938F939F93AF93BF93EF93FF9381EAB3
:1004D0009FEF9093950080939400809114010E9467
:1004E0000907482F80911701909118010196909368
:1004F0001801809317018091B1018C3418F085E0C8
:1005000080931501809115018330D1F0843020F45F
:10051000823009F059C006C0843071F1853009F08D
:1005200053C04CC0442309F04FC0809117019091F3
:1005300018018436910508F443C01092B1011EC021
:10054000413009F041C08091B101E82FF0E02091E5
:10055000170130911801EE0FFF1FEC5EFE4F36833E
:1005600025838F5F8093B1011092180110921701BB
:1005700084E08093150128C04423B9F48091B1012F
:10058000E82FF0E02091170130911801EE0FFF1FC6
:10059000EC5EFE4F368325838F5F8093B10110920E
:1005A00018011092170183E0E4CF80911701909118
:1005B00018018536910540F085E0DBCF442321F416
:1005C000109218011092170180911601882329F0CA
:1005D000442311F42D9A01C02D98FF91EF91BF9102
:1005E000AF919F918F917F916F915F914F913F91CB
:1005F0002F910F900FBE0F901F901895FC018FEF59
:100600009FEF918380838091B2018C3090F482833C
:100610008F5F8093B201815090E0FC01EE0FFF1FCD
:10062000E80FF91FED54FE4F88EB9BE09283818326
:1006300008958FEF828308951F920F920FB60F9245
:1006400011242F933F934F935F936F937F938F93D7
:100650009F93AF93BF93EF93FF938091D70187FF51
:1006600005C010929500109294002BC02091D701E4
:10067000332727FD30958091B20190E02817390784
:1006800004F58091D701992787FD9095FC01EE0F25
:10069000FF1FE80FF91FED54FE4F808186FF11C048
:1006A0008091D701992787FD9095FC01EE0FFF1FE0
:1006B000E80FF91FED54FE4F80818F7360E00E94B8
:1006C000D4068091D7018F5F8093D7012091D70105
:1006D000332727FD30958091B20190E02817390724
:1006E0000CF04EC08091D7018C300CF049C02091A5
:1006F0009400309195008091D701992787FD9095BE
:10070000FC01EE0FFF1FE80FF91FED54FE4F818132
:100710009281280F391F309399002093980080917F
:10072000D701992787FD9095FC01EE0FFF1FE80F79
:10073000F91FED54FE4F808186FF2AC08091D701BA
:10074000992787FD9095FC01EE0FFF1FE80FF91F19
:10075000ED54FE4F80818F7361E00E94D40618C073
:1007600080E49CE905C080919400909195000496E6
:1007700090939900809398008FEF8093D70108C0E1
:10078000809194009091950084549C4948F3EBCF5C
:10079000FF91EF91BF91AF919F918F917F916F9159
:1007A0005F914F913F912F910F900FBE0F901F902F
:1007B0001895EF92FF920F931F93FC01162FF42EC2
:1007C000E22E0083118280E090E0A0E0B0E082831E
:1007D0009383A483B58386839783A087B1878DECA9
:1007E0009CECACECBDE382879387A487B5876687D2
:1007F0007787408B518B228B338B862F61E00E9451
:1008000057068F2D61E00E9457068E2D61E00E94F1
:100810005706812F60E00E94D4068F2D60E00E9471
:10082000D4068E2D60E00E94D4061F910F91FF9098
:10083000EF900895EF92FF920F93CF93DF93EC0127
:100840007B018130910509F001C18FEF6F3F78077F
:1008500009F0FCC080E090E0A8ECB2EC8093560276
:1008600090935702A0935802B093590288ED91E0FB
:1008700063E070E044E050E025E030E001E00E94F9
:10088000D9038CEE91E06BE070E04AE050E029E0A3
:1008900030E00E94D90380E092E00E94FE0285E0F1
:1008A00092E00E94FE028AE092E06EE070E00E9418
:1008B0004F0210920F0210920E02D0931102C093B9
:1008C000100225E020931202F0923202E0923102EF
:1008D0008DE292EBA6E6B1E48093130290931402AA
:1008E000A0931502B093160284E299EBACEDBFE33E
:1008F0008093170290931802A0931902B0931A02E2
:1009000080E090E0A0EAB1E480931B0290931C0287
:10091000A0931D02B0931E0284EB98ECA1E9B1E410
:1009200080931F0290932002A0932102B093220291
:1009300083E49CE1ADEAB0E4809323029093240227
:10094000A0932502B093260280E090E0ACE8B2E4E8
:100950008093270290932802A0932902B0932A0241
:100960008EEF91E090932C0280932B0289EB90E024
:1009700090932E0280932D0285E690E090933002B2
:1009800080932F02D0933402C09333022093350218
:10099000F0925502E092540286EE9FE3A8ECB0E498
:1009A0008093360290933702A0933802B0933902B5
:1009B0008FE29DEDACEEBFE380933A0290933B0251
:1009C000A0933C02B0933D0280E090E0A0E2B1E44D
:1009D00080933E0290933F02A0934002B093410265
:1009E0008AEA92E8ACE0B1E4809342029093430239
:1009F000A0934402B09345028AE191E5A2ECB0E4F1
:100A00008093460290934702A0934802B093490214
:100A100080E090E0ACE0B2E480934A0290934B0215
:100A2000A0934C02B0934D0283E092E090934F026A
:100A300080934E0287EA90E0909351028093500297
:100A40008AE590E09093530280935202DF91CF9118
:100A50000F91FF90EF90089580E090E06FEF7FEFAF
:100A60000E941A04089581E090E06FEF7FEF0E94EA
:100A70001A04089589E093E040E052EC61E070E0F0
:100A80000E941D0B80E00E9479050E945C0C8CEE98
:100A900091E060E00E94420280E190E090930102C8
:100AA0008093000281E190E090930602809305021A
:100AB0000895089580E090E0A8ECB2EC80935A028B
:100AC00090935B02A0935C02B0935D0208950E9434
:100AD0003A0587E168EB71E028EE33E040E050E052
:100AE0000E94520864E175E080E090E00E948C0B67
:100AF0000895E82FF0E0EB5DFE4FE491F0E0E15D5A
:100B0000FE4FE4918091040190E026E0880F991F48
:100B10002A95E1F780937C0090917C008E2F8F7155
:100B2000892B80937C00E5FF04C080917B0080626C
:100B300003C080917B008F7D80937B0080917A0041
:100B4000806480937A0080917A0086FDFCCF2091AA
:100B5000780040917900942F80E030E0282B392BE9
:100B6000C90108951F93CF93DF93182FEB0161E024
:100B70000E945706209709F48FC0CF3FD10509F492
:100B80008EC0E12FF0E0E55FFE4F8491873009F4DD
:100B90004AC0883080F4833051F1843030F48130A1
:100BA000E1F0823009F075C01DC0843051F186300B
:100BB00009F06FC030C08A3009F451C08B3030F476
:100BC0008830C9F1893009F064C03FC08B3009F426
:100BD00050C08C3009F05DC054C084B5806884BDBD
:100BE000C7BD61C084B5806284BDC8BD5CC0809152
:100BF0008000806880938000D0938900C093880033
:100C000052C080918000806280938000D0938B00DE
:100C1000C0938A0048C08091B00080688093B00083
:100C2000C093B30040C08091B00080628093B00058
:100C3000C093B40038C08091900080688093900089
:100C4000D0939900C09398002EC08091900080624C
:100C500080939000D0939B00C0939A0024C0809111
:100C60009000886080939000D0939D00C0939C007A
:100C70001AC08091C00080688093C000C093CF00EC
:100C800012C08091C00080628093C000C093D000E9
:100C90000AC0C038D1051CF4812F60E002C0812F4A
:100CA00061E00E94D406DF91CF911F910895482FF3
:100CB00050E0CA018F509F4FFC01249149525F4F71
:100CC000FA0184918823C1F0E82FF0E0EE0FFF1FB6
:100CD000E355FF4FA591B491662341F49FB7F89473
:100CE0008C91209582238C939FBF08959FB7F89491
:100CF0008C91822B8C939FBF08958730A9F1883007
:100D000080F48330E1F0843030F4813011F18230AE
:100D100009F049C021C08430B1F0863009F043C0E9
:100D20001FC08A3079F18B3028F4883019F189306E
:100D3000D1F524C08B3061F18C30A9F52FC08091A2
:100D400080008F7703C0809180008F7D809380002A
:100D5000089584B58F7702C084B58F7D84BD0895D2
:100D60008091B0008F7703C08091B0008F7D809319
:100D7000B0000895809190008F7707C08091900017
:100D80008F7D03C080919000877F809390000895AD
:100D90008091C0008F778093C00008958091C0003B
:100DA0008F7D8093C0000895FF920F931F93F62EBE
:100DB000482F50E0CA01855F9E4FFC012491CA0173
:100DC0008F509F4FFC01149149525F4FFA010491DB
:100DD0000023D9F0222319F0822F0E947D06E02FF4
:100DE000F0E0EE0FFF1FE554FF4FA591B491FF20F7
:100DF00031F49FB7F8948C911095812304C09FB76C
:100E0000F8948C91812B8C939FBF1F910F91FF9031
:100E100008950F931F93482F50E0CA01855F9E4F9E
:100E2000FC012491CA018F509F4FFC01049149524B
:100E30005F4FFA011491112319F420E030E015C03E
:100E4000222319F0822F0E947D06812F90E0880FC7
:100E5000991F87539F4FFC01A591B4918C9120E07D
:100E600030E0802311F021E030E0C9011F910F91A3
:100E7000089580E090E0A8ECB2EC80935E0290933D
:100E80005F02A0936002B093610208950E94E50B97
:100E900089E093E040E855E260E070E00E941D0BBD
:100EA0000E9467050E945905FDCF8230B9F083305A
:100EB00028F4882351F0813051F50AC0843011F1B3
:100EC0008430E8F0853019F520C010926E00089546
:100ED00080916F008D7F80936F00089580917000E6
:100EE0008D7F8093700081E08093B0008091B1008D
:100EF000887F84608093B1001092B30008951092AF
:100F00007100089510927200089510927300089570
:100F10001F920F920FB60F9211242F933F934F936E
:100F20005F936F937F938F939F93AF93BF93EF9351
:100F3000FF938091620290916302A0916402B0914C
:100F400065020097A105B10551F1E0916602F091AB
:100F50006702808190916802892780838091620274
:100F600090916302A0916402B0916502181619066F
:100F70001A061B060CF58091620290916302A09103
:100F80006402B09165020197A109B10980936202E0
:100F900090936302A0936402B09365020DC080E059
:100FA0000E945507E0916602F0916702908180915E
:100FB0006802809589238083FF91EF91BF91AF9163
:100FC0009F918F917F916F915F914F913F912F9161
:100FD0000F900FBE0F901F9018951F920F920FB693
:100FE0000F9211242F933F934F935F936F937F93AF
:100FF0008F939F93AF93BF93EF93FF938091690279
:1010000090916A02A0916B02B0916C020097A105C9
:10101000B10551F1E0916D02F0916E0280819091E5
:101020006F02892780838091690290916A02A09162
:101030006B02B0916C02181619061A061B060CF505
:101040008091690290916A02A0916B02B0916C024A
:101050000197A109B1098093690290936A02A09354
:101060006B02B0936C020DC081E00E945507E091C5
:101070006D02F0916E02908180916F0280958923BC
:101080008083FF91EF91BF91AF919F918F917F915D
:101090006F915F914F913F912F910F900FBE0F90E5
:1010A0001F9018952F923F925F926F927F928F922E
:1010B0009F92AF92BF92CF92DF92EF92FF920F93E7
:1010C0001F93DF93CF9300D000D0CDB7DEB7A82F0A
:1010D0001B0129833A834B835C83809105018A1726
:1010E00021F4ECEAF0E05490DAC08F3F09F074C2CA
:1010F000A0930501ECEAF0E054902FEF521609F4AA
:101100006BC282E0581609F458C085153CF0552092
:1011100071F091E0591609F0C2C029C0B3E05B1626
:1011200009F471C0E4E05E1609F0B9C092C014BCC5
:1011300015BC84B5826084BD85B5816085BD2A2FCC
:1011400030E0F901E952FF4FE491F0E0EE0FFF1FAC
:10115000E554FF4F859194919093670280936602C6
:101160002F503F4FF9018491809368029AC01092EA
:1011700080001092810080918100886080938100BE
:10118000809181008160809381002A2F30E0F901F5
:10119000E952FF4FE491F0E0EE0FFF1FE554FF4FDF
:1011A0008591949190936E0280936D022F503F4FE2
:1011B000F901849180936F0274C01092B000109274
:1011C000B1008091B00082608093B0008091B10046
:1011D00081608093B1002A2F30E0F901E952FF4F7E
:1011E000E491F0E0EE0FFF1FE554FF4F85919491DD
:1011F00090937502809374022F503F4FF9018491B0
:10120000809376024EC010929000109291008091CF
:10121000910088608093910080919100816080931B
:1012200091002A2F30E0F901E952FF4FE491F0E0FC
:10123000EE0FFF1FE554FF4F8591949190937C0230
:1012400080937B022F503F4FF901849180937D0260
:1012500028C01092C0001092C1008091C100886027
:101260008093C1008091C10081608093C1002A2FCA
:1012700030E0F901E952FF4FE491F0E0EE0FFF1F7B
:10128000E554FF4F8591949190938302809382025D
:101290002F503F4FF90184918093840202C057FC84
:1012A0009BC18A2F61E00E945706552021F0F2E091
:1012B0005F1609F0BEC031018824992460E072E114
:1012C0008AE790E0A40193010E94DF1459016A01AA
:1012D000860175010894E108F108010911092FEF51
:1012E000E216F1040105110509F008F499C060E463
:1012F00072E48FE090E0A40193010E94DF14790171
:101300008A010894E108F1080109110982E05816E0
:10131000C1F49FEFE916F1040105110509F008F485
:1013200084C060E970ED83E090E0A40193010E9425
:10133000DF1479018A010894E108F1080109110913
:1013400083E0AFEFEA16F1040105110509F008F496
:1013500068C068E478EE81E090E0A40193010E9407
:10136000DF1479018A010894E108F10801091109E3
:10137000552011F483E01DC0B2E05B1611F084E04B
:1013800018C0EFEFEE16F1040105110509F008F49D
:1013900021C164E274EF80E090E0A40193010E9417
:1013A000DF1479018A010894E108F10801091109A3
:1013B00085E0FFEFEF16F1040105110591F188F1C9
:1013C00062E17AE780E090E0A40193010E94DF14DB
:1013D00079018A010894E108F108010911095520F1
:1013E00011F086E001C084E02FEFE216F104010560
:1013F0001105B9F0B0F0C601B50120E034E040E0DD
:1014000050E00E94DF1479018A010894E108F10894
:1014100001091109552011F087E008C085E003C0DB
:1014200081E0552019F485BD4EC082E08093B10063
:101430004AC05101CC24DD2460E072E18AE790E0EB
:10144000A60195010E94DF1479018A010894E10840
:10145000F1080109110980E0E81680E0F80681E052
:10146000080780E0180710F491E010C068E478EEF7
:1014700081E090E0A60195010E94DF1479018A01C4
:101480000894E108F1080109110993E0A1E05A1656
:1014900039F480918100887F982B9093810013C04C
:1014A000B3E05B1639F480919100887F982B90937C
:1014B000910009C0E4E05E1631F48091C100887F9C
:1014C000982B9093C10089819A81AB81BC81009750
:1014D000A105B10529F48FEF9FEFAFEFBFEF13C068
:1014E000220C331CB10180E090E029813A814B81CC
:1014F0005C810E948B1428EE33E040E050E00E94B3
:10150000BD14C901DA01E2E05E1691F1E5153CF087
:10151000552069F0F1E05F1609F05EC017C023E0C6
:101520005216B1F1E4E05E1609F056C043C0E7BCC4
:101530008093620290936302A0936402B093650269
:1015400080916E00826080936E0046C0F0928900A8
:10155000E09288008093690290936A02A0936B02E4
:10156000B0936C0280916F00826080936F0034C0F2
:10157000E092B3008093700290937102A093720284
:10158000B09373028091700082608093700024C0D9
:10159000F0929900E09298008093770290937802FD
:1015A000A0937902B0937A02809171008260809357
:1015B000710012C0E092CF0080937E0290937F0270
:1015C000A0938002B0938102809172008064809326
:1015D000720002C084E02ACF0F900F900F900F90FE
:1015E000CF91DF911F910F91FF90EF90DF90CF90FF
:1015F000BF90AF909F908F907F906F905F903F9043
:101600002F900895462FE0910503F0910603CF0136
:10161000019660E870E00E94AA149C018091070383
:10162000909108032817390739F0EB57FD4F408395
:101630003093060320930503089508958AE091E00E
:1016400090930A038093090385E892E090930D0339
:1016500080930C030895CB010E94F1100895CB01F3
:101660000E94F1100895DF93CF9300D0CDB7DEB77D
:101670001A8219826983CE0101960E94F1100F909F
:101680000F90CF91DF9108951F920F920FB60F9296
:1016900011242F933F938F939F93AF93BF93809188
:1016A000120390911303A0911403B091150330918C
:1016B00016030196A11DB11D232F2D5F2D3720F09C
:1016C0002D570196A11DB11D20931603809312037F
:1016D00090931303A0931403B093150380910E030A
:1016E00090910F03A0911003B09111030196A11DD9
:1016F000B11D80930E0390930F03A0931003B0933A
:101700001103BF91AF919F918F913F912F910F90B6
:101710000FBE0F901F9018959B01AC017FB7F894F6
:1017200080910E0390910F03A0911003B0911103CB
:1017300066B5A89B05C06F3F19F00196A11DB11DAC
:101740007FBFBA2FA92F982F8827860F911DA11D23
:10175000B11D62E0880F991FAA1FBB1F6A95D1F7C0
:10176000BC012DC0FFB7F89480910E0390910F0338
:10177000A0911003B0911103E6B5A89B05C0EF3FFF
:1017800019F00196A11DB11DFFBFBA2FA92F982FE7
:1017900088278E0F911DA11DB11DE2E0880F991FB2
:1017A000AA1FBB1FEA95D1F7861B970B885E934053
:1017B000C8F2215030404040504068517C4F2115C4
:1017C00031054105510571F6089584B7877F84BFBF
:1017D00088E10FB6F89480936000109260000FBE0D
:1017E00080E090E020E80FB6F894209361008093A9
:1017F00061000FBE0E94AB0C789484B5826084BDFA
:1018000084B5816084BD85B58B7F85BD85B58260DB
:1018100085BD85B5816085BDEEE6F0E080818160A3
:10182000808384B58F7B84BD85B5877F85BDE0ECE3
:10183000F0E080818F7B808380818F7E80838081B8
:1018400082608083808181608083E1ECF0E0808130
:10185000877F808380818B7F808380818D7F808361
:10186000808181608083E3ECF0E080818B7F8083E6
:10187000A2ECB0E08C9181608C9380818D7F80831D
:10188000808181608083EAE7F0E0808184608083EA
:101890008081826080838081816080838081806894
:1018A000808390EC88E10FB6F894A895809360004F
:1018B000909360000FBE0895009729F0BC0180E06E
:1018C00090E00E947C010895EF92FF920F931F9386
:1018D0000E94B80C0E94C00C08ED10E0F801808155
:1018E000982F9F7790838068808380818F7D80830D
:1018F00019BC1092A00310929E0310929D031092A7
:101900009C0380EEE82EF12CF70180818B7F808391
:10191000F80180818160808380E060E042E00E9485
:101920008A12E1EEF0E080818E7F8083E2EEF0E0CB
:10193000808181608083808188608083F7018081DD
:101940008E7F8083F8018081806180831F910F9159
:10195000FF90EF900895E7EDF0E080818160808353
:101960008AE482BF81E080939F030E94640C089503
:10197000E8EDF0E080818E7F80831092E200089590
:101980001092DA001092E10008951F920F920FB6A4
:101990000F9211242F933F934F935F936F937F93F5
:1019A0008F939F93AF93BF93EF93FF938091E10049
:1019B00082FF0BC08091E20082FF07C08091E100AE
:1019C0008B7F8093E1000E94DC108091DA0080FF21
:1019D00020C08091D80080FF1CC08091DA008E7FEB
:1019E0008093DA008091D90080FF0EC080E189BD2C
:1019F00089B5826089BD09B400FEFDCF81E0809386
:101A0000A0030E941E1105C019BC1092A0030E94E1
:101A10001F118091E10080FF19C08091E20080FFDA
:101A200015C08091E2008E7F8093E2008091E200F9
:101A300080618093E2008091D80080628093D8001A
:101A400019BC85E08093A0030E94DC108091E10026
:101A500084FF2FC08091E20084FF2BC080E189BD0C
:101A600089B5826089BD09B400FEFDCF8091D800A0
:101A70008F7D8093D8008091E1008F7E8093E1007C
:101A80008091E2008F7E8093E2008091E20081608D
:101A90008093E20080919E03882331F48091E300DB
:101AA00087FD02C081E001C084E08093A0030E9412
:101AB000DC108091E10083FF24C08091E20083FF6D
:101AC00020C08091E100877F8093E10082E08093D5
:101AD000A00310929E038091E1008E7F8093E1002D
:101AE0008091E2008E7F8093E2008091E20080612D
:101AF0008093E20080E060E042E00E948A120E944F
:101B0000DC10FF91EF91BF91AF919F918F917F91E9
:101B10006F915F914F913F912F910F900FBE0F905A
:101B20001F9018950F931F93DF93CF93CDB7DEB718
:101B3000AC970FB6F894DEBF0FBECDBF8091F10019
:101B40008093A1038091F1008093A2038091F10022
:101B50009091F100E3EAF3E08093A3039093A40350
:101B60008091F1009091F1008093A503938380917F
:101B7000F1009091F1008093A70395830E94BE111C
:101B80008091E80083FF41C18091A1033091A203BD
:101B9000353009F487C0363040F43130C9F1313086
:101BA00070F0333009F031C133C0383009F4FCC073
:101BB000393009F40CC1363009F027C19AC0803899
:101BC00021F0823809F021C108C090919C038091D6
:101BD0009D03882399F0926011C08091A5038770BE
:101BE0008093E9008091EB0090E025E09695879541
:101BF0002A95E1F7982F91701092E9008091E80002
:101C0000877F8093E8009093F1001092F100D7C095
:101C1000882319F0823009F0F8C090E08F7190703D
:101C2000009721F0029709F0F0C00CC08091A30347
:101C3000813009F0EAC010929D03333069F580933A
:101C40009D032AC08091A303882331F52091A50329
:101C5000277009F4DAC02093E9008091EB0080FF3F
:101C60001BC0333021F48091EB00806213C080915F
:101C7000EB0080618093EB0081E090E002C0880F70
:101C8000991F2A95E2F78093EA001092EA0080916A
:101C9000EB0088608093EB001092E9008091E800EF
:101CA000877F90C0882309F0B0C01091A3031F77ED
:101CB0000FB7F8948091E800877F8093E8000E9436
:101CC000BF128091E80080FFFCCF8091E300807814
:101CD000812B8093E3008091E30080688093E30090
:101CE000112311F482E001C083E08093A0030FBFB1
:101CF0008CC08058823008F088C08091A3039091F6
:101D0000A40323E08C3D920709F034C083E08C8368
:101D10008AE28B837FB7F894DE0115966EE040E08F
:101D200050E011E2E62FF0E010935700849140FF5D
:101D300003C082958F706F5F8F70282F30E08A30DC
:101D400018F0C901C79602C0C901C0968D939D9332
:101D50004F5F5F4F4431510529F77FBF8091E80005
:101D6000877F8093E800CE0103966AE270E00E94CC
:101D70001E0F14C06091A503AE014F5F5F4F0E941C
:101D80004A12BC01009709F440C08091E800877FA7
:101D90008093E80089819A810E94CA0F8091E800AF
:101DA0008B778093E80031C0803879F58091E80026
:101DB000877F8093E80080919E038093F10080915B
:101DC000E8008E778093E8000E94BF121EC088232F
:101DD000E1F49091A3039230C0F48091E800877FF2
:101DE0008093E80090939E030E94BF1280919E030F
:101DF000882331F48091E30087FD02C081E001C0B7
:101E000084E08093A0030E940F128091E80083FF7A
:101E10000AC08091EB0080628093EB008091E80023
:101E2000877F8093E800AC960FB6F894DEBF0FBEB4
:101E3000CDBFCF91DF911F910F9108959C014091EB
:101E4000A7035091A8034617570718F4F90190E02B
:101E500045C06115710511F0AB01F8CF8091E80024
:101E60008E778093E80040E050E0F0CF8091A003AF
:101E7000882309F445C0853009F444C08091E80006
:101E800083FF02C081E008958091E80082FD32C0A6
:101E90008091E80080FF22C08091F3009091F200D1
:101EA000782F60E0292F30E0262B372B07C0819157
:101EB0008093F100415050402F5F3F4F4115510535
:101EC00019F02830310598F390E02830310509F4F5
:101ED00091E08091E8008E778093E80041155105EC
:101EE00029F6992319F606C08091A003882341F0B2
:101EF000853041F08091E80082FFF6CF80E00895C0
:101F000082E0089583E008959C016115710529F42C
:101F10008091E8008B778093E800F90127C08091D9
:101F2000A003882399F1853099F18091E80083FF1F
:101F300002C081E008958091E80082FFF0CF06C0E2
:101F40008091F10081936150704059F02091F3002D
:101F50008091F200322F20E090E0822B932B892B8E
:101F600079F78091E8008B778093E800611571051F
:101F7000B1F606C08091A003882341F0853041F07E
:101F80008091E80080FFF6CF80E0089582E0089518
:101F900083E008959C014091A7035091A803461740
:101FA000570718F4F90190E046C06115710511F06A
:101FB000AB01F8CF8091E8008E778093E80040E095
:101FC00050E0F0CF8091A003882309F447C085300A
:101FD00009F446C08091E80083FF02C081E00895C3
:101FE0008091E80082FD34C08091E80080FF23C02A
:101FF0008091F3009091F200782F60E0292F30E07B
:10200000262B372B08C084918093F10031964150E4
:1020100050402F5F3F4F4115510519F028303105D1
:1020200090F390E02830310509F491E08091E800C8
:102030008E778093E8004115510521F6992309F028
:10204000C1CF06C08091A003882341F0853041F0C4
:102050008091E80082FFF6CF80E0089582E0089545
:1020600083E00895BF92CF92DF92EF92FF920F9399
:102070001F93CF93DF93182F092F7B016A010E94D2
:10208000E012B82E8823C1F5812F902F9C01E90121
:10209000C114D10439F0F60180819181E81AF90A5E
:1020A000C80FD91F00E010E024C08091E80085FD32
:1020B00018C08091E8008B778093E800C114D104A8
:1020C00049F0F60180819181800F911F9183808377
:1020D00085E013C00E94DD100E94E012882349F0C1
:1020E0000CC08091F10089930894E108F1080F5F1A
:1020F0001F4FE114F104C9F68B2DDF91CF911F9191
:102100000F91FF90EF90DF90CF90BF900895BF9216
:10211000CF92DF92EF92FF920F931F93CF93DF93B3
:10212000182F092F7B016A010E94E012B82E882324
:10213000C1F5812F902F9C01E901C114D10439F020
:10214000F60180819181E81AF90AC80FD91F00E0D1
:1021500010E024C08091E80085FD18C08091E8005F
:102160008E778093E800C114D10449F0F601808194
:102170009181800F911F9183808385E013C00E941D
:10218000DD100E94E012882349F00CC089918093F1
:10219000F1000894E108F1080F5F1F4FE114F1040A
:1021A000C9F68B2DDF91CF911F910F91FF90EF908A
:1021B000DF90CF90BF90089508951F938091A00362
:1021C000882369F01091E9001092E9008091E800FD
:1021D00083FF02C00E94920D17701093E9001F91B7
:1021E0000895EF92FF921F93CF93DF937C01C091EC
:1021F0009903D0919A0340E015C0E0919703F091C4
:102200009803CF01019660E870E00E94AA148C1731
:102210009D0739F0E95EFC4F1083909398038093FB
:1022200097034F5FF701E40FF11D1081112329F788
:10223000DF91CF911F91FF90EF9008950895089539
:10224000CF93DF93EC0181EB888321E030E0E091D4
:102250009903F0919A038091970390919803DE017E
:10226000A20FB31F8E179F0711F41C9216C0E95ED0
:10227000FC4F80818C938091990390919A030196F1
:1022800060E870E00E94AA1490939A0380939903E7
:102290002F5F3F4F28303105D1F6DF91CF91089560
:1022A000FC018081813A19F0813BA9F40FC0818142
:1022B000813089F4F89498E088E10FB6F894A895F5
:1022C00080936000909360000FBEFFCF89E093E0A1
:1022D00061810E94020B08950F931F93DF93CF93A8
:1022E000CDB7DEB728970FB6F894DEBF0FBECDBFCF
:1022F00082E08093E9008091E80082FF19C080911C
:10230000E80085FF10C08E010F5F1F4FC80168E015
:1023100070E040E050E00E943210C8010E9450116D
:1023200081E080939B038091E8008B778093E800A5
:1023300081E08093E9008091E80080FF14C08E0165
:102340000F5F1F4FC8010E942011C80168E070E0B4
:1023500040E050E00E9487108091E8008E778093E3
:10236000E80010929B0328960FB6F894DEBF0FBECC
:10237000CDBFCF91DF911F910F9108950F931F93C0
:10238000DF93CF93CDB7DEB728970FB6F894DEBFB3
:102390000FBECDBF8091A203813019F08930A1F525
:1023A0001AC08091A103813A79F58E010F5F1F4F0A
:1023B000C8010E9420118091E800877F8093E80087
:1023C000C80168E070E00E941E0F8091E8008B77E2
:1023D0008093E80019C08091A1038132A9F4809113
:1023E000E800877F8093E8008E010F5F1F4FC801D0
:1023F00068E070E00E94840F8091E8008E778093FF
:10240000E800C8010E94501128960FB6F894DEBF6C
:102410000FBECDBFCF91DF911F910F91089581E045
:1024200061EC42E00E948A1282E060EC42E00E948D
:102430008A1208951F920F920FB60F9211242F93B4
:102440003F934F935F936F937F938F939F93AF933C
:10245000BF93EF93FF930E946C110E94DD1090ECEC
:1024600088E10FB6F894A89580936000909360007F
:102470000FBEFF91EF91BF91AF919F918F917F918F
:102480006F915F914F913F912F910F900FBE0F90E1
:102490001F901895DA019330B1F0943028F4913000
:1024A00041F0923079F50AC0913211F1923251F532
:1024B00024C0E0E6F1E022E130E028C0E2E7F1E00C
:1024C00029E230E023C0813049F0813018F08230B9
:1024D000C9F40AC0EBE9F1E0849103C0EFE9F1E04F
:1024E0008491282F30E012C0E9EBF1E08491F9CF1C
:1024F000E4E8F1E029E030E009C0E0E4F1E020E2C6
:1025000030E004C0E0E0F0E020E030E0ED93FC9348
:10251000C9010895382F282F2CC02093E9002317D4
:1025200021F4762F942F50E006C07091EC0090912A
:10253000ED005091F00091FF1BC08091EB008E7F69
:102540008093EB008091ED0082708093ED0080918C
:10255000EB0081608093EB007093EC009093ED00B2
:102560005093F0008091EE0087FD02C080E0089556
:102570002F5F273090F23093E90081E00895809139
:10258000A10388239CF404C08091A0038823B9F0A0
:102590008091E80082FFF8CF8091E8008B778093EC
:1025A000E80008958091A003882349F08091E80015
:1025B00080FFF8CF8091E8008E778093E80008953F
:1025C0004091E4005091E50024E68091EC0080FF0A
:1025D00005C08091E80080FF05C022C08091E8001E
:1025E00082FD1EC08091A003882311F482E008952B
:1025F000853011F483E008958091EB0085FF02C0DF
:1026000081E008958091E4009091E500841795079A
:10261000E1F2222311F484E008952150AC01D5CFDA
:1026200080E008959CD008F481E008950CD0D2C0D9
:10263000CAD040F0C1D030F021F45F3F19F0B3C0F0
:102640005111FCC0B6C0D7D098F39923C9F35523D4
:10265000B1F3951B550BBB27AA2762177307840795
:1026600038F09F5F5F4F220F331F441FAA1FA9F34B
:1026700033D00E2E3AF0E0E830D091505040E6953D
:10268000001CCAF729D0FE2F27D0660F771F881F9E
:10269000BB1F261737074807AB07B0E809F0BB0B8D
:1026A000802DBF01FF2793585F4F2AF09E3F5105B1
:1026B00068F079C0C3C05F3FECF3983EDCF38695C9
:1026C00077956795B795F7959F5FC9F7880F911D27
:1026D0009695879597F90895E1E0660F771F881F13
:1026E000BB1F621773078407BA0720F0621B730BC6
:1026F000840BBA0BEE1F88F7E095089504D0689418
:10270000B1119CC008957FD088F09F5790F0B92FE9
:102710009927B751A0F0D1F0660F771F881F991F36
:102720001AF0BA95C9F712C0B13081F086D0B1E085
:10273000089583C0672F782F8827B85F39F0B93F95
:10274000CCF3869577956795B395D9F73EF4909538
:102750008095709561957F4F8F4F9F4F0895990F8A
:102760000008550FAA0BE0E8FEEF16161706E8075B
:10277000F907C0F012161306E407F50798F0621B7C
:10278000730B840B950B39F40A2661F0232B242B51
:10279000252B21F408950A2609F4A140A6958FEF70
:1027A000811D811D089597F99F6780E870E060E0C2
:1027B00008959FEF80EC089500240A9416161706DA
:1027C00018060906089500240A9412161306140622
:1027D00005060895092E0394000C11F4882352F085
:1027E000BB0F40F4BF2B11F460FF04C06F5F7F4F3D
:1027F0008F4F9F4F089557FD9058440F551F59F024
:102800005F3F71F04795880F97FB991F61F09F3FDD
:1028100079F087950895121613061406551FF2CF06
:102820004695F1DF08C0161617061806991FF1CF56
:1028300086957105610508940895E894BB2766277D
:102840007727CB0197F908958ADF08F48FEF089571
:102850000BD0C0CFB1DF28F0B6DF18F0952309F018
:10286000A2CFA7CF1124EACFC6DFA0F3959FD1F363
:10287000950F50E0551F629FF001729FBB27F00D2E
:10288000B11D639FAA27F00DB11DAA1F649F662783
:10289000B00DA11D661F829F2227B00DA11D621FD2
:1028A000739FB00DA11D621F839FA00D611D221F8C
:1028B000749F3327A00D611D231F849F600D211D70
:1028C000822F762F6A2F11249F5750408AF0E1F013
:1028D00088234AF0EE0FFF1FBB1F661F771F881F5C
:1028E00091505040A9F79E3F510570F05CCFA6CFA4
:1028F0005F3FECF3983EDCF3869577956795B79547
:10290000F795E7959F5FC1F7FE2B880F911D969570
:10291000879597F90895629FD001739FF001829F78
:10292000E00DF11D649FE00DF11D929FF00D839F5E
:10293000F00D749FF00D659FF00D9927729FB00DFB
:10294000E11DF91F639FB00DE11DF91FBD01CF010E
:102950001124089597FB092E07260AD077FD04D08D
:1029600049D006D000201AF4709561957F4F0895E4
:10297000F6F7909581959F4F0895A1E21A2EAA1B14
:10298000BB1BFD010DC0AA1FBB1FEE1FFF1FA2171F
:10299000B307E407F50720F0A21BB30BE40BF50B1C
:1029A000661F771F881F991F1A9469F760957095A5
:1029B000809590959B01AC01BD01CF01089597FBD7
:1029C000092E05260ED057FD04D0D7DF0AD0001CF3
:1029D00038F450954095309521953F4F4F4F5F4FBC
:1029E0000895F6F790958095709561957F4F8F4F7C
:1029F0009F4F0895AA1BBB1B51E107C0AA1FBB1F15
:102A0000A617B70710F0A61BB70B881F991F5A957A
:102A1000A9F780959095BC01CD010895EE0FFF1F99
:102A20000590F491E02D09942F923F924F925F927E
:102A30006F927F928F929F92AF92BF92CF92DF92CE
:102A4000EF92FF920F931F93CF93DF93CDB7DEB733
:102A5000CA1BDB0B0FB6F894DEBF0FBECDBF0994C7
:102A60002A88398848885F846E847D848C849B841E
:102A7000AA84B984C884DF80EE80FD800C811B812C
:102A8000AA81B981CE0FD11D0FB6F894DEBF0FBE5B
:102A9000CDBFED01089511E0C2EFD1E004C0FE0109
:102AA0000E9410152296C43FD107C9F7F894FFCFB2
:102AB0000100000001FF00000000330B2B0B2F0B67
:00000001FF
