:100000000C946A010C9492010C9492010C9492014C
:100010000C9492010C9492010C9492010C94920114
:100020000C9492010C9492010C94C0090C94470A10
:100030000C9492010C9492010C9492010C949201F4
:100040000C9492010C9492010C9492010C949201E4
:100050000C9492010C9492010C9492010C949D0BBF
:100060000C9492010C9492010C9492010C949201C4
:100070000C9492010C9492010C9492010C949201B4
:100080000C94CF020C9492010C9492010C940902EE
:100090000C9492010C9492010C9492010C94920194
:1000A0000C9492010C9492010C94920100000000B7
:1000B000240027002A002D00300000000000250049
:1000C00028002B002E003100000000002300260035
:1000D00029002C002F000404040404030405020278
:1000E00002020403020202020606060606060404D1
:1000F00002020204040802011040804010204080E7
:10010000408008020401804020100201108010206D
:1001100040400000000200080E0000030401000B34
:1001200000000000000000000000000000000000CF
:10013000070605040100080A0B0C0D09080B000254
:10014000020201000904000001020200000524006F
:100150001001052401010104240206052406000102
:100160000705810310004009040100020A00000095
:100170000705020240000007058302400000040357
:10018000090441726475696E6F204C656F6E61720F
:10019000646F0041726475696E6F204C4C430012AD
:1001A00001000200000040412336800001010200EE
:1001B00001120100020200004041233680000101CB
:1001C00002000100C18081C105010902A1010901EC
:1001D000A1008501050919012903150025019503D1
:1001E0007501810295017505810305010930093109
:1001F00009381581257F750895038106C0C0050162
:100200000906A1018502050719E029E71500250166
:100210007501950881029501750881039506750899
:10022000150025650507190029658100C00904022C
:1002300000010300000009210101000122650007FF
:1002400005840340000100000000000000002A2B8C
:100250002800000000000000000000000000000076
:100260000000000000002C9EB4A0A1A2A434A6A708
:10027000A5AE362D3738271E1F2021222324252600
:10028000B333B62EB7B89F8485868788898A8B8CCE
:100290008D8E8F909192939495969798999A9B9C16
:1002A0009D2F3130A3AD350405060708090A0B0C54
:1002B0000D0E0F101112131415161718191A1B1CF6
:1002C0001DAFB1B0B500F501EA0428059B06FC0896
:1002D000DD0CE30411241FBECFEFDAE0DEBFCDBF9B
:1002E00011E0A0E0B1E0EAE1FDE102C005900D926D
:1002F000A033B107D9F712E0A0E3B1E001C01D922D
:10030000A03FB107E1F712E0C2EDD2E004C02297AE
:10031000FE010E94450EC63CD107C9F70E9467073F
:100320000C94800E0C940000A0E0B0E0EAE9F1E04B
:100330000C94510EEC01A880B980CA80DB80A11416
:10034000B104C104D10441F484E2A82E89EDB82E91
:100350008BE5C82E87E0D82EC601B5012DE133EF1D
:1003600041E050E00E94280E27EA31E440E050E0EE
:100370000E94E70D7B018C01C601B5012DE133EF31
:1003800041E050E00E94280ECA01B9012CEE34EF82
:100390004FEF5FEF0E94E70D6E0D7F1D801F911FD5
:1003A00097FF04C061507040804090486883798313
:1003B0008A839B839B01AC015F77B901CA01CDB7EA
:1003C000DEB7EAE00C946D0E0E949401089580E07F
:1003D00091E00E94940108956093000170930101DF
:1003E0008093020190930301089580E090E0A8ECCF
:1003F000B2EC8093300190933101A0933201B0931D
:1004000033010895FC011382609334011092360188
:1004100008951F920F920FB60F9211242F933F93BE
:100420004F935F936F937F938F939F93AF93BF93FC
:10043000EF93FF9381EA9FEF909395008093940050
:10044000809134010E943006482F809137019091AD
:100450003801019690933801809337018091D10142
:100460008C3418F085E0809335018091350183301C
:10047000D1F0843020F4823009F059C006C08430B5
:1004800071F1853009F053C04CC0442309F04FC0CE
:1004900080913701909138018436910508F443C06A
:1004A0001092D1011EC0413009F041C08091D101AC
:1004B000E82FF0E02091370130913801EE0FFF1F57
:1004C000EC5CFE4F368325838F5F8093D1011092C1
:1004D00038011092370184E08093350128C044230D
:1004E000B9F48091D101E82FF0E0209137013091EB
:1004F0003801EE0FFF1FEC5CFE4F368325838F5FC4
:100500008093D101109238011092370183E0E4CF3B
:1005100080913701909138018536910540F085E052
:10052000DBCF442321F410923801109237018091DF
:100530003601882329F0442311F42D9A01C02D9807
:10054000FF91EF91BF91AF919F918F917F916F91AB
:100550005F914F913F912F910F900FBE0F901F9081
:100560001895FC018FEF9FEF918380838091D201DA
:100570008C3090F482838F5F8093D201815090E021
:10058000FC01EE0FFF1FE80FF91FED52FE4F88EB45
:100590009BE09283818308958FEF828308951F9259
:1005A0000F920FB60F9211242F933F934F935F93A7
:1005B0006F937F938F939F93AF93BF93EF93FF932B
:1005C0008091F70187FF05C010929500109294006A
:1005D0002BC02091F701332727FD30958091D20160
:1005E00090E02817390704F58091F701992787FDD6
:1005F0009095FC01EE0FFF1FE80FF91FED52FE4F23
:10060000808186FF11C08091F701992787FD909521
:10061000FC01EE0FFF1FE80FF91FED52FE4F808126
:100620008F7360E00E94FD058091F7018F5F8093DA
:10063000F7012091F701332727FD30958091D201F2
:1006400090E0281739070CF04EC08091F7018C30EC
:100650000CF049C020919400309195008091F701F1
:10066000992787FD9095FC01EE0FFF1FE80FF91FFA
:10067000ED52FE4F81819281280F391F30939900EE
:10068000209398008091F701992787FD9095FC01B0
:10069000EE0FFF1FE80FF91FED52FE4F808186FF1E
:1006A0002AC08091F701992787FD9095FC01EE0FF4
:1006B000FF1FE80FF91FED52FE4F80818F7361E03D
:1006C0000E94FD0518C080E49CE905C0809194005B
:1006D00090919500049690939900809398008FEFE5
:1006E0008093F70108C08091940090919500845404
:1006F0009C4948F3EBCFFF91EF91BF91AF919F9150
:100700008F917F916F915F914F913F912F910F90BA
:100710000FBE0F901F901895EF92FF920F931F93AB
:10072000FC01162FF42EE22E0083118280E090E06F
:10073000A0E0B0E082839383A483B583868397830C
:10074000A087B1878DEC9CECACECBDE382879387EE
:10075000A487B58766877787408B518B228B338B35
:10076000862F61E00E9470058F2D61E00E94700568
:100770008E2D61E00E947005812F60E00E94FD05D2
:100780008F2D60E00E94FD058E2D60E00E94FD052A
:100790001F910F91FF90EF900895EF92FF920F93AA
:1007A000CF93DF93EC017B018130910509F005C106
:1007B0008FEF6F3F780709F000C180E090E0A8EC70
:1007C000B2EC80937B0290937C02A0937D02B09365
:1007D0007E0288EF91E063E070E044E050E025E0C5
:1007E00030E001E00E948C038CE092E06BE070E06E
:1007F0004AE050E029E030E00E948C0380E292E081
:100800000E94B10285E292E00E94B1028AE292E087
:100810000E94B1028FE292E062E070E00E94020268
:100820001092340210923302D0933602C0933502F4
:1008300025E020933702F0925702E09256028DE2B3
:1008400092EBA6E6B1E48093380290933902A0932C
:100850003A02B0933B0284E299EBACEDBFE38093A4
:100860003C0290933D02A0933E02B0933F0280E091
:1008700090E0A0EAB1E48093400290934102A093FB
:100880004202B093430284EB98ECA1E9B1E4809377
:10089000440290934502A0934602B093470283E43A
:1008A0009CE1ADEAB0E48093480290934902A093A2
:1008B0004A02B0934B0280E090E0ACE8B2E480934F
:1008C0004C0290934D02A0934E02B0934F028EEFD4
:1008D00091E0909351028093500289EB90E09093C5
:1008E00053028093520285E690E0909355028093E4
:1008F0005402D0935902C093580220935A02F092A6
:100900007A02E092790286EE9FE3A8ECB0E480934D
:100910005B0290935C02A0935D02B0935E028FE253
:100920009DEDACEEBFE380935F0290936002A093D5
:100930006102B093620280E090E0A0E2B1E48093B3
:10094000630290936402A0936502B09366028AEA00
:1009500092E8ACE0B1E48093670290936802A093C0
:100960006902B0936A028AE191E5A2ECB0E4809357
:100970006B0290936C02A0936D02B0936E0280E0C4
:1009800090E0ACE0B2E480936F0290937002A09389
:100990007102B093720283E092E0909374028093AC
:1009A000730287EA90E090937602809375028AE55D
:1009B00090E09093780280937702DF91CF910F912E
:1009C000FF90EF90089580E090E06FEF7FEF0E943E
:1009D000CD03089581E090E06FEF7FEF0E94CD039B
:1009E000089583E892E060E072EC0E94600682E184
:1009F00060E00E94700583E160E00E94700584E180
:100A000060E00E94700585E160E00E94700586E16B
:100A100060E00E94700587E160E00E94700580E060
:100A20000E9438050E94950B86E090E09093210289
:100A30008093200287E090E0909326028093250225
:100A400088E090E090932B0280932A020895089505
:100A500080E090E0A8ECB2EC80937F02909380025B
:100A6000A0938102B093820208950E94F104089538
:100A7000823108F08251E82FF0E0E05DFE4FE49112
:100A800020917B008E2F86958695869590E08170CB
:100A9000907035E0880F991F3A95E1F72F7D282B4C
:100AA00020937B00E770809104018295880F880F66
:100AB000807C8E2B80937C0080917A008064809370
:100AC0007A0080917A0086FDFCCF209178004091D9
:100AD0007900942F80E030E0282B392BC90108954C
:100AE000CF93DF93482F50E0CA018C509F4FFC01F9
:100AF00034914A525F4FFA018491882369F190E062
:100B0000880F991FFC01E455FF4FA591B491FC019A
:100B1000E654FF4FC591D491662351F42FB7F89452
:100B20008C91932F909589238C93888189230BC076
:100B3000623061F42FB7F8948C91932F90958923AC
:100B40008C938881832B88832FBF06C09FB7F8942E
:100B50008C91832B8C939FBFDF91CF910895883028
:100B600071F1893068F4823031F1833020F48130C2
:100B700009F042C01DC0833089F08430E9F512C00D
:100B80008B3059F18C3028F48930E9F08A30A1F5A6
:100B90001EC08C3031F18E3079F529C080918000F3
:100BA0008F7703C0809180008F7D809380000895AF
:100BB00084B58F7702C084B58F7D84BD0895809100
:100BC00090008F7707C0809190008F7D03C0809147
:100BD0009000877F8093900008958091C0008F7768
:100BE00003C08091C0008F7D8093C00008958091E4
:100BF000C200877F8093C2000895FF920F931F93D6
:100C0000F62E482F50E0CA018E5E9E4FFC012491C3
:100C1000CA018C509F4FFC0114914A525F4FFA0158
:100C200004910023C9F0222319F0822F0E94AF05FE
:100C3000E02FF0E0EE0FFF1FE654FF4FA591B491B7
:100C40009FB7F894FF2021F48C911095812302C066
:100C50008C91812B8C939FBF1F910F91FF900895D2
:100C60000F931F93482F50E0CA018E5E9E4FFC01E8
:100C70002491CA018C509F4FFC0104914A525F4F4E
:100C8000FA011491112319F420E030E015C0222359
:100C900019F0822F0E94AF05812F90E0880F991FD5
:100CA00088539F4FFC01A591B4918C9120E030E0D6
:100CB000802311F021E030E0C9011F910F910895C8
:100CC0000895FC012485858530E0205C3F4F281B7A
:100CD00031092F733070C9010895FC019485858511
:100CE000981719F42FEF3FEF06C08585E80FF11D27
:100CF0008685282F30E0C9010895DC011C969C915F
:100D00001C971D968C911D97981719F42FEF3FEFA4
:100D100010C01D968C911D97FD01E80FF11D968561
:100D20001D968C911D978F5F8F731D968C93292F25
:100D300030E0C9010895109286021092850288EE73
:100D400093E0A0E0B0E08093870290938802A093A4
:100D50008902B0938A0283E191E0909384028093A8
:100D6000830208950F931F93DF93CF930F92CDB714
:100D7000DEB78C01698380910C01882369F083E0E0
:100D8000BE016F5F7F4F41E050E00E941B091816C3
:100D9000190614F49C0107C081E090E0F8019383E8
:100DA000828320E030E0C9010F90CF91DF911F9145
:100DB0000F91089583E00E94F20808950F931F9306
:100DC000CF93DF938C01FC010FC082E00E94D80713
:100DD0009C01FFEF8F3F9F0799F0F8018485E80F92
:100DE000F11D2687F801C4878485C82FD0E021969D
:100DF000CF73D070F801858590E0C817D90729F71F
:100E0000DF91CF911F910F910895FC0180818E5F3A
:100E1000808380E86CE371E042E450E00E94F107D7
:100E20000895FC0181819081913A59F4813209F051
:100E30004CC080E065E071E047E050E00E94F107BF
:100E400042C0913209F041C0803239F485E091E02E
:100E500067E070E00E94DA0836C0823209F035C0DF
:100E6000828180930C018091050190910601A091EF
:100E70000701B0910801805B9440A040B04019F593
:100E800080910C0180FD12C087E797E790930108DD
:100E9000809300082BE088E190E00FB6F894A895C5
:100EA000809360000FBE209360000DC088E10FB6F4
:100EB000F89480936000109260000FBEA895109285
:100EC00001081092000881E0089580E00895CF9312
:100ED000DF930E94E50B89ED92E00E94FD080E94DD
:100EE0003505C0E0D0E00E9427052097E1F30E947D
:100EF0000000F9CFCF92DF92EF92FF920F931F93F2
:100F0000CF93DF937C016B018A01C0E0D0E00FC07A
:100F1000D6016D916D01D701ED91FC910190F081A9
:100F2000E02DC7010995C80FD91F015010400115C8
:100F3000110571F7CE01DF91CF911F910F91FF90B5
:100F4000EF90DF90CF900895282F8091D3028823CF
:100F5000C1F057FF1AC015C028989093D202809113
:100F6000F1008193E217F307B9F74115510539F004
:100F70008091F200882319F48BE68093E800AFBFDC
:100F800002C04FEF5FEFCA010895AFB7F894277022
:100F90002093E9008091F200282F30E024173507D4
:100FA0000CF4A901FB019B01240F311D94E6DACF5B
:100FB000DF93CF930F92CDB7DEB7BE016F5F7F4F48
:100FC00041E050E00E94A407019719F02FEF3FEF96
:100FD00003C08981282F30E0C9010F90CF91DF91A4
:100FE0000895FF920F931F93F82E142F052F409111
:100FF000D6025091D702212F302FC901DC01FB010D
:101000006EEF29C0F7FE02C0949101C0908120913B
:10101000D4023091D50224173507ACF48091E80052
:101020008570E1F38091E80082FF03C02FEF3FEF6E
:1010300017C09093F100C90101968F739070892BAE
:1010400011F46093E8002F5F3F4F3093D502209357
:10105000D402119731961097A9F6812F902F9C01F9
:10106000C9011F910F91FF9008951F93782FE92FC9
:10107000162F2091D4023091D502A091D602B091C2
:10108000D7022A173B07C4F48091E8008570E1F38A
:101090008091E80082FD16C0812F90E00196880FB4
:1010A000991F8093F100C90101968F739070892B6D
:1010B00019F48EEF8093E8002F5F3F4F3093D502F5
:1010C0002093D4022091D4023091D5022A173B07F5
:1010D000A4F48091E8008570E1F38091E80082FD3E
:1010E00012C083E08093F100C90101968F73907064
:1010F000892B19F48EEF8093E8002F5F3F4F3093D8
:10110000D5022093D4024091D4025091D502872F6A
:101110009E2FFC0170E06EEF43C094914A175B076D
:10112000A4F48091E8008570E1F38091E80082FFEB
:1011300002C020E00DC09093F100CA0101968F73A8
:101140009070892B11F46093E8004F5F5F4F21E0AE
:101150004A175B07A4F48091E8008570E1F3809161
:10116000E80082FF02C080E00DC01092F100CA01C9
:1011700001968F739070892B11F46093E8004F5F94
:101180005F4F81E0319690E030E082239323892BFA
:1011900031F45093D5024093D40280E009C07F5FC0
:1011A000711708F4BACF5093D5024093D40281E06E
:1011B0001F9108959C018091E80082FFFCCFF90106
:1011C000260F311D03C08091F1008193E217F307D0
:1011D000D1F7289884E68093D2028BEF8093E800C1
:1011E000CB0108958093E9008091F200882319F0E3
:1011F0008AE38093E800089508951092D30281E075
:101200008093D70080EA8093D80082E189BD09B439
:1012100000FEFDCF61E070E080E090E00E943B0CBA
:1012200080E98093D8008CE08093E2001092E00087
:10123000559A209A08955F926F927F928F929F9213
:10124000AF92BF92CF92DF92EF92FF920F931F93D4
:10125000CF93DF93E82E842E752E8091D3028823BE
:1012600071F18B01242F352FC901EC01AAEFFA2E61
:10127000F7E09F2E9E20E0E45E2E8E2D90E070E23F
:10128000A72EB12CA822B9226AE3662E50E4C52EFF
:10129000D12CC822D92258C09FB7F8949092E90067
:1012A0008091E80085FD02C020E004C08091F2003A
:1012B000252D281B9FBF222361F4FA9419F42FEFE8
:1012C0003FEF4DC061E070E080E090E00E943B0C99
:1012D0003BC0822F90E0C817D9070CF42C2FC21BFB
:1012E000D1094FB7F8949092E900A114B10421F408
:1012F00006C01092F10021502223D9F719C0E7FC53
:1013000003C0F801922F10C0C801322F06C0FC01A3
:101310000196E491E093F10031503323C1F706C008
:1013200081918093F10091509923D1F7020F111D03
:101330008091E80085FF05C0209729F4C114D104ED
:1013400011F06092E8004FBF209709F0A5CF5D989B
:1013500084E68093D102282D372DC9019C01C90153
:10136000DF91CF911F910F91FF90EF90DF90CF9081
:10137000BF90AF909F908F907F906F905F900895F7
:101380001F920F920FB60F9211242F933F934F93FA
:101390005F936F937F938F939F93AF93BF93EF93DD
:1013A000FF938091E1001092E100982F83FF0FC01E
:1013B0001092E90081E08093EB001092EC0082E350
:1013C0008093ED001092D30288E08093F00092FFAA
:1013D00034C083E08093E9008091F200882319F003
:1013E0008AE38093E8008FB7F89492E09093E90045
:1013F0009091F2008FBF992321F083E892E00E9440
:10140000DE068091D102882351F08091D102815073
:101410008093D1028091D102882309F45D9A809152
:10142000D202882351F08091D20281508093D2025F
:101430008091D202882309F4289AFF91EF91BF91FD
:10144000AF919F918F917F916F915F914F913F915C
:101450002F910F900FBE0F901F9018950F931F9311
:10146000DF93CF930F92CDB7DEB719828E010F5F56
:101470001F4FC8010E940507C8010E94DA0D89812B
:1014800090E00F90CF91DF911F910F9108951F92DF
:101490000F920FB60F921124EF92FF921F932F938A
:1014A0003F934F935F936F937F938F939F93AF93EC
:1014B000BF93EF93FF93DF93CF93CDB7DEB76197E1
:1014C000DEBFCDBF1092E9008091E80083FF14C118
:1014D000FE0131969E01275F3F4F03C08091F100CE
:1014E0008193E217F307D1F7289884E68093D2021C
:1014F00082EF8093E800998197FF05C08091E80012
:1015000080FFFCCF03C08EEF8093E800292F30E0EE
:10151000C90180769070892B09F0C7C08A81882321
:1015200029F41092F1001092F100DBC0813009F42F
:10153000D8C0833009F4D5C0853049F48091E800E3
:1015400080FFFCCF8B8180688093E300CAC0863027
:1015500009F081C01C81EF80F8841230C1F510922F
:10156000E9001092D5021092D4021092D702109284
:10157000D6020E942E0A99E0FE013996DF01292F3A
:101580001D922A95E9F799871A8791E09E8790E83E
:10159000988B9AEF998B2091D4023091D502275FD6
:1015A0003F4F3C872B878D871092E9001092D50220
:1015B0001092D402F092D702E092D60280E0BF01EE
:1015C00049E050E00E94F1070E942E0A8AC0109262
:1015D000E9001092D5021092D402F092D702E09264
:1015E000D602123241F482E290E00E94D20D892BA1
:1015F00009F47BC076C0113079F488E0E816F10474
:1016000019F481E08093D8028091D802882309F0F0
:1016100070C0EFE9F1E018C0133009F066C08B81AB
:10162000882319F4EEE7F1E00FC0823021F482E85C
:1016300091E060E106C0813009F057C083E991E094
:101640006BE00E9435084BC0449180E8BF0150E038
:101650000E94F10746C0873009F447C0883021F462
:1016600081E08093F1003DC08930D9F5237030705E
:10167000232BD9F5E4ECF1E091E031E026E39093FF
:10168000E9003093EB0084918093EC002093ED000F
:101690009F5F3196953099F78EE78093EA0010921C
:1016A000EA008B818093D3021CC08F8198851092B1
:1016B000E9001092D5021092D4029093D702809341
:1016C000D6028D81882329F4CE0101960E9411074C
:1016D00006C0823051F4CE0101960E94A30C8823EB
:1016E00021F08EEF8093E80007C081E28093EB0049
:1016F00003C0E1EBF1E0A8CF6196DEBFCDBFCF9193
:10170000DF91FF91EF91BF91AF919F918F917F9169
:101710006F915F914F913F912F911F91FF90EF90AB
:101720000F900FBE0F901F901895009729F0BC01E5
:1017300080E090E00E94EC0108951F920F920FB696
:101740000F9211242F933F938F939F93AF93BF9347
:101750008091DE029091DF02A091E002B091E1025F
:101760003091E2020196A11DB11D232F2D5F2D376F
:1017700020F02D570196A11DB11D2093E202809308
:10178000DE029093DF02A093E002B093E102809129
:10179000DA029091DB02A091DC02B091DD020196A9
:1017A000A11DB11D8093DA029093DB02A093DC02AD
:1017B000B093DD02BF91AF919F918F913F912F9197
:1017C0000F900FBE0F901F901895789484B582608B
:1017D00084BD84B5816084BD85B5826085BD85B5D5
:1017E000816085BDEEE6F0E0808181608083E1E884
:1017F000F0E01082808182608083808181608083BC
:10180000E0E8F0E0808181608083E1E9F0E08081C0
:1018100082608083808181608083E0E9F0E0808164
:1018200081608083E1ECF0E080818460808380814E
:1018300082608083808181608083E3ECF0E080813E
:1018400081608083E0ECF0E0808182608083E2EC64
:10185000F0E0808181608083EAE7F0E0808184604D
:1018600080838081826080838081816080838081A9
:10187000806880830895EF92FF920F931F93CF9318
:10188000DF937B018C013FB7F8948091DA0290914D
:10189000DB02A091DC02B091DD0226B5A89B05C059
:1018A0002F3F19F00196A11DB11D3FBFBA2FA92FDF
:1018B000982F8827820F911DA11DB11D52E0880F1E
:1018C000991FAA1FBB1F5A95D1F7EC0130C00E9487
:1018D000E60D3FB7F8948091DA029091DB02A09177
:1018E000DC02B091DD0226B5A89B05C02F3F19F0A0
:1018F0000196A11DB11D3FBFBA2FA92F982F882790
:10190000820F911DA11DB11D32E0880F991FAA1FE2
:10191000BB1F3A95D1F78C1B9D0B885E9340B8F2A4
:101920000894E108F10801091109C851DC4FE114DC
:10193000F1040105110559F6DF91CF911F910F9127
:10194000FF90EF900895FC0191818081813A31F4FC
:10195000913089F080E0933089F40DC0813269F4D0
:101960009B3021F4828180930D0105C09A3029F4C7
:10197000828180930E0181E0089580E00895EF92C6
:10198000FF920F931F938C01E62EDC01ED91FC91E9
:101990000480F581E02D0995F82ED801ED91FC9198
:1019A0000680F781E02DC8016E2D09958F2D90E0FE
:1019B0001F910F91FF90EF9008951092E302109203
:1019C000E7021092E60285E291E09093E5028093AF
:1019D000E4020895EF92FF920F931F93DF93CF934A
:1019E0000F92CDB7DEB789838B017A0184E0BE0107
:1019F0006F5F7F4F41E050E00E941B0984E4B80113
:101A0000A7010E941B090F90CF91DF911F910F91A9
:101A1000FF90EF90089582E048E050E00E94EA0CC9
:101A20000895FC011682178210861186128613868D
:101A300014823496BF010E940B0D0895DC016838B2
:101A400010F0685829C0E62FF0E067FF13C0E05897
:101A5000F04081E090E002C0880F991FEA95E2F71C
:101A6000809514962C911497282314962C931497F0
:101A700060E012C0EA5BFD4F6491662319F420E038
:101A800030E01DC067FF08C014968C9114978D7FBD
:101A900014968C9314976F77FD0190E0662321F0E4
:101AA0008681861709F416829F5F31969630B1F7CA
:101AB000CD011496BD010E940B0D21E030E0C9015B
:101AC0000895CF93DF93DC01683810F0685825C083
:101AD000E62FF0E067FF12C0E058F04081E090E0B0
:101AE00002C0880F991FEA95E2F714962C9114977B
:101AF000282B14962C93149760E00FC0EA5BFD4FDF
:101B000064916623D9F167FF08C014968C911497ED
:101B1000826014968C9314976F7716968C91169713
:101B20008617A9F117968C911797861781F1189649
:101B30008C911897861759F119968C9119978617D9
:101B400031F11A968C911A97861709F11B968C9190
:101B50001B978617E1F0ED01E0E0F0E09E2F8E810B
:101B6000882321F4EA0FFB1F668306C09F5F31962E
:101B70002196E630F10591F7963049F481E090E046
:101B800013969C938E93129720E030E007C0CD010E
:101B90001496BD010E940B0D21E030E0C901DF91D8
:101BA000CF91089580E868EC71E045E650E00E942E
:101BB000F1070895FC0180818F5F808380E86DE2EA
:101BC00072E049E150E00E94F10708950895629F94
:101BD000D001739FF001829FE00DF11D649FE00D25
:101BE000F11D929FF00D839FF00D749FF00D659F86
:101BF000F00D9927729FB00DE11DF91F639FB00D85
:101C0000E11DF91FBD01CF0111240895A1E21A2E93
:101C1000AA1BBB1BFD010DC0AA1FBB1FEE1FFF1F90
:101C2000A217B307E407F50720F0A21BB30BE40BE0
:101C3000F50B661F771F881F991F1A9469F7609527
:101C40007095809590959B01AC01BD01CF010895E1
:101C500097FB092E05260ED057FD04D0D7DF0AD0FA
:101C6000001C38F450954095309521953F4F4F4FCB
:101C70005F4F0895F6F790958095709561957F4F29
:101C80008F4F9F4F0895EE0FFF1F0590F491E02DA9
:101C900009942F923F924F925F926F927F928F9210
:101CA0009F92AF92BF92CF92DF92EF92FF920F93EB
:101CB0001F93CF93DF93CDB7DEB7CA1BDB0B0FB6F5
:101CC000F894DEBF0FBECDBF09942A8839884888B2
:101CD0005F846E847D848C849B84AA84B984C88448
:101CE000DF80EE80FD800C811B81AA81B981CE0F3F
:101CF000D11D0FB6F894DEBF0FBECDBFED01089524
:101D000012E0C2EDD2E004C0FE010E94450E229610
:0A1D1000C43DD107C9F7F894FFCFD6
:101D1A00010000000100E1000000000000010100D4
:101D2A00000000B2067A0761067D066D06DA06DE55
:101D3A000600000000BF0C7A07610D1E0D110D0090
:00000001FF
