:100000000C9465000C948D000C948D000C948D0064
:100010000C948D000C948D000C948D000C948D002C
:100020000C948D000C948D000C948D000C9479022E
:100030000C948D000C94B3010C948D000C948D00E5
:100040000C94F7040C948D000C9426070C948D00EE
:100050000C948D000C948D000C948D000C948D00EC
:100060000C948D000C948D000000000024002700EB
:100070002A0000000000250028002B0000000000DE
:1000800023002600290004040404040404040202DA
:100090000202020203030303030301020408102007
:1000A0004080010204081020010204081020000012
:1000B0000007000201000003040600000000000029
:1000C0000000F0008D042208860411241FBECFEF2B
:1000D000D4E0DEBFCDBF11E0A0E0B1E0E0E7FAE19F
:1000E00002C005900D92AA31B107D9F713E0AAE139
:1000F000B1E001C01D92A130B107E1F710E0C8ECFA
:10010000D0E004C02297FE010E94F00CC23CD1074F
:10011000C9F70E945C080C942B0D0C940000A0E021
:10012000B0E0E5E9F0E00C94FC0CEC01A880B980AB
:10013000CA80DB80A114B104C104D10441F484E27B
:10014000A82E89EDB82E8BE5C82E87E0D82EC601E3
:10015000B5012DE133EF41E050E00E94D30C27EAD6
:1001600031E440E050E00E94920C7B018C01C6011A
:10017000B5012DE133EF41E050E00E94D30CCA01FC
:10018000B9012CEE34EF4FEF5FEF0E94920C6E0D31
:100190007F1D801F911F97FF04C0615070408040F9
:1001A0009048688379838A839B839B01AC015F7746
:1001B000B901CA01CDB7DEB7EAE00C94180D0E9470
:1001C0008F00089582E091E00E948F00089560936F
:1001D0000201709303018093040190930501089537
:1001E00080E090E0A8ECB2EC80931A0190931B01A0
:1001F000A0931C01B0931D010895AF92BF92CF92BE
:10020000DF92EF92FF920F931F93CF93DF93EC0156
:10021000D42EC52EB62EA72EE0901A01F0901B0109
:1002200000911C0110911D01642F752F8B2D9A2DAB
:10023000A80197010E94DC0A87FD1DC06D2D7C2D51
:100240008B2D9A2D20E030E048EC52E40E942B0CDC
:1002500018165CF40F2EF0E0EF2EF0E0FF2EF8EC15
:100260000F2FF2E41F2FF02D06C08D2D9C2DAB2DEE
:10027000BA2D7C018D018A819B81AC81BD818E83E9
:100280009F83A887B987EA82FB820C831D838881BC
:10029000882321F417FB109517F91095C801B701B1
:1002A00020E030E048EC52E40E94E00A20E030E038
:1002B0004FE753E40E942F0C7B018C012DEC3CECAA
:1002C0004CEC5DE30E942B0C18165CF48C8561E00D
:1002D0000E947B068E8560E00E947B06C801B70104
:1002E00015C0C801B7012DEC3CEC4CEC5DEB0E9455
:1002F000DC0A8823A4F48C8560E00E947B068E854E
:1003000061E00E947B06C801B70190580E94480B2B
:100310009B01AC018A85B9010E94F50511C08A854F
:1003200060E070E00E94F5058A8560E00E947B062F
:100330008C8560E00E947B068E8560E00E947B06D3
:100340001982DF91CF911F910F91FF90EF90DF9075
:10035000CF90BF90AF900895FC01138260931E016F
:100360001092200108951F920F920FB60F92112440
:100370002F933F934F935F936F937F938F939F93AD
:10038000AF93BF93EF93FF9381EA9FEF9093850024
:100390008093840080911E010E94D306482F809193
:1003A00021019091220101969093220180932101D5
:1003B0008091BB018C3418F085E080931F018091FF
:1003C0001F018330D1F0843020F4823009F059C00D
:1003D00006C0843071F1853009F053C04CC044230D
:1003E00009F04FC08091210190912201843691053E
:1003F00008F443C01092BB011EC0413009F041C057
:100400008091BB01E82FF0E0209121013091220181
:10041000EE0FFF1FE25EFE4F368325838F5F8093D2
:10042000BB01109222011092210184E080931F01F0
:1004300028C04423B9F48091BB01E82FF0E020915B
:10044000210130912201EE0FFF1FE25EFE4F368345
:1004500025838F5F8093BB011092220110922101AE
:1004600083E0E4CF809121019091220185369105AE
:1004700040F085E0DBCF442321F41092220110925A
:10048000210180912001882329F0442311F42D9A21
:1004900001C02D98FF91EF91BF91AF919F918F91E6
:1004A0007F916F915F914F913F912F910F900FBE70
:1004B0000F901F901895FC018FEF9FEF9183808321
:1004C0008091BC018C3090F482838F5F8093BC015B
:1004D000815090E0FC01EE0FFF1FE80FF91FE3547D
:1004E000FE4F88EB9BE09283818308958FEF828398
:1004F00008951F920F920FB60F9211242F933F93DE
:100500004F935F936F937F938F939F93AF93BF931B
:10051000EF93FF938091E10187FF05C01092850062
:10052000109284002BC02091E101332727FD3095E4
:100530008091BC0190E02817390704F58091E10112
:10054000992787FD9095FC01EE0FFF1FE80FF91F1B
:10055000E354FE4F808186FF11C08091E10199270D
:1005600087FD9095FC01EE0FFF1FE80FF91FE35484
:10057000FE4F80818F7360E00E947B068091E101D5
:100580008F5F8093E1012091E101332727FD3095B2
:100590008091BC0190E0281739070CF04EC0809183
:1005A000E1018C300CF049C020918400309185002D
:1005B0008091E101992787FD9095FC01EE0FFF1FC7
:1005C000E80FF91FE354FE4F81819281280F391FF4
:1005D00030938900209388008091E101992787FD5D
:1005E0009095FC01EE0FFF1FE80FF91FE354FE4F3B
:1005F000808186FF2AC08091E101992787FD90952F
:10060000FC01EE0FFF1FE80FF91FE354FE4F80813E
:100610008F7361E00E947B0618C080E49CE905C0EE
:100620008091840090918500049690938900809336
:1006300088008FEF8093E10108C080918400909141
:10064000850084549C4948F3EBCFFF91EF91BF9113
:10065000AF919F918F917F916F915F914F913F915A
:100660002F910F900FBE0F901F9018950895EF9245
:10067000FF920F931F93FC01162FF42EE22E00839E
:10068000118280E090E0A0E0B0E082839383A483B5
:10069000B58386839783A087B187628773874487F2
:1006A000558726873787862F61E00E9455068F2D54
:1006B00061E00E9455068E2D61E00E945506812F53
:1006C00060E00E947B068F2D60E00E947B068E2DED
:1006D00060E00E947B061F910F91FF90EF900895BC
:1006E000EF92FF920F93CF93DF93EC017B01813068
:1006F000910509F005C18FEF6F3F780709F000C140
:1007000080E090E0A8ECB2EC80935D0290935E02F2
:10071000A0935F02B093600282EE91E062E070E02D
:100720000E94AC0186EE91E063E070E044E050E0AE
:1007300025E030E001E00E94370386EF91E06BE0B6
:1007400070E04AE050E029E030E00E943703109268
:10075000070210920602D0930902C093080225E016
:1007600020930A02F0922A02E09229028DE292EB93
:10077000A6E6B1E480930B0290930C02A0930D02C5
:10078000B0930E0284E299EBACEDBFE380930F02CD
:1007900090931002A0931102B093120280E090E0B7
:1007A000A0EAB1E48093130290931402A09315027F
:1007B000B093160284EB98ECA1E9B1E480931702A0
:1007C00090931802A0931902B0931A0283E49CE15B
:1007D000ADEAB0E480931B0290931C02A0931D022B
:1007E000B0931E0280E090E0ACE8B2E480931F0278
:1007F00090932002A0932102B09322028EEF91E009
:10080000909324028093230289EB90E09093260238
:100810008093250285E690E090932802809327023A
:10082000D0932C02C0932B0220932D02F0924D0204
:10083000E0924C0286EE9FE3A8ECB0E480932E0297
:1008400090932F02A0933002B09331028FE29DED7E
:10085000ACEEBFE38093320290933302A093340254
:10086000B093350280E090E0A0E2B1E480933602DC
:1008700090933702A0933802B09339028AEA92E843
:10088000ACE0B1E480933A0290933B02A0933C0227
:10089000B0933D028AE191E5A2ECB0E480933E0280
:1008A00090933F02A0934002B093410280E090E019
:1008B000ACE0B2E48093420290934302A0934402DE
:1008C000B093450283E092E0909347028093460202
:1008D00087EA90E090934902809348028AE590E08D
:1008E00090934B0280934A028EE492E00E945B0256
:1008F00083E592E00E945B0288E592E00E945B0241
:10090000DF91CF910F91FF90EF90089580E090E0FC
:100910006FEF7FEF0E947003089581E090E06FEF2A
:100920007FEF0E94700308958EEE92E040E052EC5B
:1009300061E070E00E9457078EE060E00E9455067B
:100940008FE060E00E94550680E160E00E9455065D
:1009500081E160E00E94550682E160E00E94550658
:1009600083E160E00E94550680E00E94D3050E946A
:100970006F0A86E090E090934F0280934E0287E0EA
:1009800090E0909354028093530288E090E090931B
:1009900059028093580208950E94940486EE91E0D3
:1009A00040E050E060E070E00E94FD0060E070E038
:1009B00080E090E020E137E240E050E00E94510A00
:1009C0000E947B0B2AE037ED43E25CE30E942F0C90
:1009D000AB01BC018EEE92E022E030E00E94240ADE
:1009E0006CE271E080E090E00E943F05DFCF1F9253
:1009F0000F920FB60F9211242F933F938F939F93D3
:100A0000AF93BF938091650290916602A0916702B7
:100A1000B0916802309169020196A11DB11D232F8A
:100A20002D5F2D3720F02D570196A11DB11D20936C
:100A300069028093650290936602A0936702B09367
:100A400068028091610290916202A0916302B0916C
:100A500064020196A11DB11D809361029093620210
:100A6000A0936302B0936402BF91AF919F918F9165
:100A70003F912F910F900FBE0F901F9018959B01E3
:100A8000AC017FB7F8948091610290916202A091CD
:100A90006302B091640266B5A89B05C06F3F19F070
:100AA0000196A11DB11D7FBFBA2FA92F982F8827AE
:100AB000860F911DA11DB11D62E0880F991FAA1F0D
:100AC000BB1F6A95D1F7BC012DC0FFB7F894809188
:100AD000610290916202A0916302B0916402E6B556
:100AE000A89B05C0EF3F19F00196A11DB11DFFBFE6
:100AF000BA2FA92F982F88278E0F911DA11DB11DE8
:100B0000E2E0880F991FAA1FBB1FEA95D1F7861B49
:100B1000970B885E9340C8F22150304040405040CF
:100B200068517C4F211531054105510571F6089535
:100B3000789484B5826084BD84B5816084BD85B5B8
:100B4000826085BD85B5816085BDEEE6F0E080817F
:100B500081608083E1E8F0E01082808182608083A0
:100B6000808181608083E0E8F0E080818160808323
:100B7000E1EBF0E0808184608083E0EBF0E0808155
:100B800081608083EAE7F0E08081846080838081F7
:100B9000826080838081816080838081806880839F
:100BA0001092C1000895982F8E3008F09E509770D3
:100BB000809106018295880F880F807C892B809315
:100BC0007C0080917A00806480937A0080917A0022
:100BD00086FDFCCF2091780040917900942F80E031
:100BE00030E0282B392BC90108951F93CF93DF9351
:100BF000182FEB0161E00E945506209709F44AC0C6
:100C0000CF3FD10509F449C0E12FF0E0E255FF4F95
:100C100084918330C1F0843028F4813051F08230E7
:100C2000B1F50CC0863019F1873049F1843079F57F
:100C300014C084B5806884BDC7BD33C084B58062EC
:100C400084BDC8BD2EC080918000806880938000E4
:100C5000D0938900C093880024C080918000806276
:100C600080938000D0938B00C0938A001AC080913B
:100C7000B00080688093B000C093B30012C0809130
:100C8000B00080628093B000C093B4000AC0C03846
:100C9000D1051CF4812F60E002C0812F61E00E9429
:100CA0007B06DF91CF911F910895482F50E0CA0134
:100CB00086569F4FFC0124914A575F4FFA01849159
:100CC0008823C1F0E82FF0E0EE0FFF1FE859FF4F37
:100CD000A591B491662341F49FB7F8948C91209527
:100CE00082238C939FBF08959FB7F8948C91822B99
:100CF0008C939FBF0895482F50E0CA0182559F4FA3
:100D0000FC012491CA0186569F4FFC0134914A5739
:100D10005F4FFA019491992309F444C0222351F1C1
:100D2000233071F0243028F42130A1F0223011F565
:100D300014C02630B1F02730C1F02430D9F404C0FB
:100D4000809180008F7703C0809180008F7D809399
:100D5000800010C084B58F7702C084B58F7D84BDBC
:100D600009C08091B0008F7703C08091B0008F7D63
:100D70008093B000E92FF0E0EE0FFF1FEE58FF4F19
:100D8000A591B491662341F49FB7F8948C91309566
:100D900083238C939FBF08959FB7F8948C91832BE6
:100DA0008C939FBF0895682F70E0CB0182559F4FB1
:100DB000FC012491CB0186569F4FFC0144916A5758
:100DC0007F4FFB019491992319F420E030E03CC05F
:100DD000222351F1233071F0243028F42130A1F086
:100DE000223011F514C02630B1F02730C1F0243084
:100DF000D9F404C0809180008F7703C08091800077
:100E00008F7D8093800010C084B58F7702C084B539
:100E10008F7D84BD09C08091B0008F7703C0809121
:100E2000B0008F7D8093B000892F90E0880F991FCC
:100E300084589F4FFC01A591B4918C9120E030E043
:100E4000842311F021E030E0C90108951F920F9230
:100E50000FB60F9211242F933F934F938F939F932D
:100E6000EF93FF934091C600E091EA02F091EB020C
:100E700031969F012F77307031978091EC029091DD
:100E8000ED022817390739F0E659FD4F40833093BA
:100E9000EB022093EA02FF91EF919F918F914F9186
:100EA0003F912F910F900FBE0F901F901895CF93E9
:100EB000DF93EC019A01AB01E885F985203081EEE2
:100EC000380780E0480780E0580709F449C081E00E
:100ED00090E00A8802C0880F991F0A94E2F7808385
:100EE00060E079E08DE390E00E94D30C2150304027
:100EF00040405040CA01B90122E030E040E050E0FB
:100F00000E94D30CEC81FD813083EE81FF81208330
:100F1000EA85FB85208141E050E0CA010E8402C0D1
:100F2000880F991F0A94E2F7282B2083EA85FB8516
:100F30002081CA010F8402C0880F991F0A94E2F72A
:100F4000282B2083EA85FB858081088802C0440F16
:100F5000551F0A94E2F7842B8083DF91CF91089587
:100F6000108220E130E0CECFDC011296ED91FC91B1
:100F70001397E058FF4F2191319180819181281B77
:100F8000390B2F773070C9010895DC011296ED916D
:100F9000FC911397EE57FF4F2081318192918291FE
:100FA000E058F0408217930719F42FEF3FEF05C088
:100FB000E20FF31F8081282F30E0C9010895DC0182
:100FC0001296ED91FC911397DF01AE57BF4F2D9113
:100FD0003C911197E058FF4F80819181E058F0409B
:100FE0008217930719F42FEF3FEF0BC0E20FF31FA7
:100FF00080812F5F3F4F2F7730702D933C93282FA8
:1010000030E0C9010895DC011296ED91FC9113972F
:10101000EE57FF4F80819181929382930895FC0156
:10102000A085B18521898C9190E0022E02C0959512
:1010300087950A94E2F780FFF6CF0484F585E02DCA
:10104000608308958BE091E09093EF028093EE022D
:101050008AE692E09093F1028093F00285EC90E0B2
:101060009093F3028093F20284EC90E09093F50267
:101070008093F40280EC90E09093F7028093F60264
:1010800081EC90E09093F9028093F80286EC90E076
:101090009093FB028093FA0284E08093FC0283E049
:1010A0008093FD0287E08093FE0285E08093FF023B
:1010B00081E08093000308950E9498050E94CC046B
:1010C0000E943603FDCF0F931F93CF93DF938C01C4
:1010D000EB0109C02196D801ED91FC910190F081BE
:1010E000E02DC801099568816623A1F7DF91CF91B2
:1010F0001F910F910895EF92FF920F931F93CF933B
:10110000DF938C017B01EA010CC0D7016D917D0159
:10111000D801ED91FC910190F081E02DC801099575
:101120002197209791F7DF91CF911F910F91FF9019
:10113000EF900895DC01ED91FC910280F381E02DA8
:10114000099508952F923F924F925F926F927F92EE
:101150008F929F92AF92BF92CF92DF92EF92FF92C7
:101160000F931F93DF93CF93CDB7DEB7A0970FB642
:10117000F894DEBF0FBECDBF1C016A017B01411593
:1011800051056105710549F440E350E060E070E00D
:1011900020E030E00E944B0956C088249924540175
:1011A000422E55246624772401E010E00C0F1D1F09
:1011B000080D191DC701B601A30192010E94B10CCF
:1011C000F80160830894811C911CA11CB11CC7010B
:1011D000B601A30192010E94B10CC901DA016C01B0
:1011E0007D01C114D104E104F104F1F681E0E82E9F
:1011F000F12CEC0EFD1EE80CF91C3E010894611C5C
:10120000711CD501C4010197A109B1096C01C8186D
:10121000D90816C0F601EE0DFF1D40814A3010F4CA
:10122000405D01C0495C552747FD5095652F752FDE
:10123000C10120E030E00E944B090894E108F10868
:101240006E147F0439F7A0960FB6F894DEBF0FBE78
:10125000CDBFCF91DF911F910F91FF90EF90DF9065
:10126000CF90BF90AF909F908F907F906F905F9046
:101270004F903F902F900895DC012115310541F4E6
:10128000ED91FC910190F081E02D642F0995089576
:101290000E94A2080895EF92FF920F931F93CF939D
:1012A000DF93EC017A018B012115310541F4E881CE
:1012B000F9810190F081E02D642F09951BC02A303F
:1012C0003105B1F477FF10C04DE250E060E070E00E
:1012D00020E030E00E944B0910950095F094E094D6
:1012E000E11CF11C011D111DCE01B801A7012AE06E
:1012F0000E94A208DF91CF911F910F91FF90EF9074
:1013000008950F931F938C014DE050E060E070E072
:1013100020E030E00E944B09C8014AE050E060E064
:1013200070E020E030E00E944B091F910F9108957A
:101330009F92AF92BF92CF92DF92EF92FF920F9364
:101340001F93CF93DF93EC017A018B01922ECB0197
:10135000BA0120E030E040E050E00E94DC0A88233F
:101360006CF4CE014DE250E060E070E020E030E04F
:101370000E944B0917FB109517F9109520E030E0FB
:1013800040E05FE3AA240BC0CA01B90120E030E0CD
:1013900040E251E40E94E00A9B01AC01A394A9142D
:1013A00098F3C801B7010E94780A5B016C010E94A2
:1013B0004D0B7B018C01CE01B801A7012AE030E082
:1013C0000E943C09992029F0CE0160E071E00E9462
:1013D0009A08C801B7010E94790B9B01AC01C601B4
:1013E000B5010E94770A22C020E030E040E251E4DB
:1013F0000E942F0C7B018C010E94480B5B016C0149
:10140000CC24B7FCC094DC2CCE01B601A5012AE0A7
:1014100030E00E944B09C601B5010E947B0B9B0185
:10142000AC01C801B7010E94770A9A949920E1F6AD
:10143000DF91CF911F910F91FF90EF90DF90CF90B0
:10144000BF90AF909F9008950F931F938C010E94BF
:101450009809C8010E9481091F910F910895EF9288
:10146000FF920F931F937B018C016115710581051C
:10147000910529F420E030E040E050E00BC00E94EC
:10148000E200A80197010E94D30CAC01CB01DA0164
:101490009C01AD01B901CA011F910F91FF90EF901E
:1014A0000895EF92FF920F931F937B018C016217B7
:1014B00073078407950764F4261B370B480B590BF9
:1014C000CA01B9010E942F0AE60EF71E081F191F54
:1014D000B701C8011F910F91FF90EF9008950097F9
:1014E00029F0BC0180E090E00E94E7000895505888
:1014F000BB27AA270ED075C166D130F06BD120F082
:1015000031F49F3F11F41EF45BC10EF4E095E7FB4C
:1015100051C1E92F77D180F3BA17620773078407A7
:10152000950718F071F49EF58FC10EF4E0950B2E1F
:10153000BA2FA02D0B01B90190010C01CA01A00125
:101540001124FF27591B99F0593F50F4503E68F180
:101550001A16F040A22F232F342F4427585FF3CFC1
:10156000469537952795A795F0405395C9F77EF492
:101570001F16BA0B620B730B840BBAF09150A1F0DB
:10158000FF0FBB1F661F771F881FC2F70EC0BA0F61
:10159000621F731F841F48F4879577956795B795E9
:1015A000F7959E3F08F0B3CF9395880F08F09927E1
:1015B000EE0F979587950895D9D008F481E00895A6
:1015C0000CD00FC107D140F0FED030F021F45F3FC6
:1015D00019F0F0C0511139C1F3C014D198F3992317
:1015E000C9F35523B1F3951B550BBB27AA276217E7
:1015F0007307840738F09F5F5F4F220F331F441F2C
:10160000AA1FA9F333D00E2E3AF0E0E830D0915063
:101610005040E695001CCAF729D0FE2F27D0660F50
:10162000771F881FBB1F261737074807AB07B0E88F
:1016300009F0BB0B802DBF01FF2793585F4F2AF0A5
:101640009E3F510568F0B6C000C15F3FECF3983E85
:10165000DCF3869577956795B795F7959F5FC9F702
:10166000880F911D9695879597F90895E1E0660F8B
:10167000771F881FBB1F621773078407BA0720F004
:10168000621B730B840BBA0BEE1F88F7E09508956D
:1016900004D06894B111D9C00895BCD088F09F5788
:1016A00090F0B92F9927B751A0F0D1F0660F771FAE
:1016B000881F991F1AF0BA95C9F712C0B13081F08E
:1016C000C3D0B1E00895C0C0672F782F8827B85FD6
:1016D00039F0B93FCCF3869577956795B395D9F7EF
:1016E0003EF490958095709561957F4F8F4F9F4FF9
:1016F0000895E89409C097FB3EF490958095709505
:1017000061957F4F8F4F9F4F9923A9F0F92F96E94D
:10171000BB279395F695879577956795B795F111C2
:10172000F8CFFAF4BB0F11F460FF1BC06F5F7F4F5F
:101730008F4F9F4F16C0882311F096E911C0772371
:1017400021F09EE8872F762F05C0662371F096E87A
:10175000862F70E060E02AF09A95660F771F881F49
:10176000DAF7880F9695879597F90895990F0008ED
:10177000550FAA0BE0E8FEEF16161706E807F90763
:10178000C0F012161306E407F50798F0621B730BFE
:10179000840B950B39F40A2661F0232B242B252B7F
:1017A00021F408950A2609F4A140A6958FEF811D22
:1017B000811D089597F99F6780E870E060E00895C3
:1017C0009FEF80EC089500240A9416161706180659
:1017D0000906089500240A94121613061406050635
:1017E0000895092E0394000C11F4882352F0BB0FC6
:1017F00040F4BF2B11F460FF04C06F5F7F4F8F4F29
:101800009F4F089557FD9058440F551F59F05F3F63
:1018100071F04795880F97FB991F61F09F3F79F012
:1018200087950895121613061406551FF2CF469594
:10183000F1DF08C0161617061806991FF1CF869516
:101840007105610508940895E894BB2766277727FA
:10185000CB0197F908958ADF08F48FEF08950BD034
:10186000C0CFB1DF28F0B6DF18F0952309F0A2CF82
:10187000A7CF1124EACFC6DFA0F3959FD1F3950F30
:1018800050E0551F629FF001729FBB27F00DB11D04
:10189000639FAA27F00DB11DAA1F649F6627B00D94
:1018A000A11D661F829F2227B00DA11D621F739F7D
:1018B000B00DA11D621F839FA00D611D221F749F8B
:1018C0003327A00D611D231F849F600D211D822FD2
:1018D000762F6A2F11249F5750408AF0E1F0882319
:1018E0004AF0EE0FFF1FBB1F661F771F881F915026
:1018F0005040A9F79E3F510570F05CCFA6CF5F3FE7
:10190000ECF3983EDCF3869577956795B795F79558
:10191000E7959F5FC1F7FE2B880F911D96958795E0
:1019200097F90895629FD001739FF001829FE00DA7
:10193000F11D649FE00DF11D929FF00D839FF00D4E
:10194000749FF00D659FF00D9927729FB00DE11DFA
:10195000F91F639FB00DE11DF91FBD01CF011124D7
:101960000895A1E21A2EAA1BBB1BFD010DC0AA1FE0
:10197000BB1FEE1FFF1FA217B307E407F50720F0F8
:10198000A21BB30BE40BF50B661F771F881F991F73
:101990001A9469F760957095809590959B01AC01BC
:1019A000BD01CF01089597FB092E05260ED057FDE6
:1019B00004D0D7DF0AD0001C38F4509540953095FC
:1019C00021953F4F4F4F5F4F0895F6F790958095C3
:1019D000709561957F4F8F4F9F4F0895EE0FFF1FBA
:1019E0000590F491E02D09942F923F924F925F92CF
:1019F0006F927F928F929F92AF92BF92CF92DF921F
:101A0000EF92FF920F931F93CF93DF93CDB7DEB783
:101A1000CA1BDB0B0FB6F894DEBF0FBECDBF099417
:101A20002A88398848885F846E847D848C849B846E
:101A3000AA84B984C884DF80EE80FD800C811B817C
:101A4000AA81B981CE0FD11D0FB6F894DEBF0FBEAB
:101A5000CDBFED01089510E0C8ECD0E004C0FE0158
:101A60000E94F00C2296CA3CD107C9F7F894FFCF28
:101A70002E000100000001000000000F0863087B39
:0A1A800008B407DF07C507030800DC
:00000001FF
