:100000000C9466000C948E000C948E000C948E0060
:100010000C948E000C948E000C948E000C948E0028
:100020000C948E000C948E000C948E000C94CB01DA
:100030000C948E000C9405010C948E000C948E0090
:100040000C9436040C948E000C94C2050C94090692
:100050000C948E000C948E000C948E000C948E00E8
:100060000C948E000C948E000000000024002700E9
:100070002A0000000000250028002B0000000000DE
:1000800023002600290004040404040404040202DA
:100090000202020203030303030301020408102007
:1000A0004080010204081020010204081020000012
:1000B0000007000201000003040600000000000029
:1000C0000000F100E60326044607DF0311241FBEEB
:1000D000CFEFD8E0DEBFCDBF11E0A0E0B1E0E6E0B9
:1000E000F1E102C005900D92A631B107D9F713E0F6
:1000F000A6E1B1E001C01D92A431B107E1F710E023
:10010000CAECD0E004C02297FE010E943B08C23C2A
:10011000D107C9F70E949C070C9476080C94000044
:10012000A0E0B0E0E6E9F0E00C944708EC01A8801C
:10013000B980CA80DB80A114B104C104D10441F4A8
:1001400084E2A82E89EDB82E8BE5C82E87E0D82E44
:10015000C601B5012DE133EF41E050E00E941E08D9
:1001600027EA31E440E050E00E94DD077B018C018A
:10017000C601B5012DE133EF41E050E00E941E08B9
:10018000CA01B9012CEE34EF4FEF5FEF0E94DD079B
:100190006E0D7F1D801F911F97FF04C0615070403E
:1001A00080409048688379838A839B839B01AC015C
:1001B0005F77B901CA01CDB7DEB7EAE00C946308F6
:1001C0000E949000089580E091E00E9490000895C0
:1001D00060930001709301018093020190930301E9
:1001E000089580E090E0A8ECB2EC80931601909323
:1001F0001701A0931801B09319010895FC0113820F
:1002000060931A0110921C0108951F920F920FB66D
:100210000F9211242F933F934F935F936F937F938C
:100220008F939F93AF93BF93EF93FF9381EA9FEFD9
:10023000909385008093840080911A010E946E053E
:10024000482F80911D0190911E01019690931E01EF
:1002500080931D018091B7018C3418F085E0809364
:100260001B0180911B018330D1F0843020F4823057
:1002700009F059C006C0843071F1853009F053C0CF
:100280004CC0442309F04FC080911D0190911E0184
:100290008436910508F443C01092B7011EC0413066
:1002A00009F041C08091B701E82FF0E020911D01D5
:1002B00030911E01EE0FFF1FE65EFE4F3683258351
:1002C0008F5F8093B70110921E0110921D0184E090
:1002D00080931B0128C04423B9F48091B701E82F13
:1002E000F0E020911D0130911E01EE0FFF1FE65E30
:1002F000FE4F368325838F5F8093B70110921E01D6
:1003000010921D0183E0E4CF80911D0190911E01A8
:100310008536910540F085E0DBCF442321F410922F
:100320001E0110921D0180911C01882329F0442395
:1003300011F42D9A01C02D98FF91EF91BF91AF91CB
:100340009F918F917F916F915F914F913F912F91ED
:100350000F900FBE0F901F901895FC018FEF9FEF2D
:10036000918380838091B8018C3090F482838F5F79
:100370008093B801815090E0FC01EE0FFF1FE80F61
:10038000F91FE754FE4F88EB9BE092838183089529
:100390008FEF828308951F920F920FB60F92112450
:1003A0002F933F934F935F936F937F938F939F937D
:1003B000AF93BF93EF93FF938091DD0187FF05C05B
:1003C00010928500109284002BC02091DD0133270C
:1003D00027FD30958091B80190E02817390704F582
:1003E0008091DD01992787FD9095FC01EE0FFF1F9D
:1003F000E80FF91FE754FE4F808186FF11C08091FE
:10040000DD01992787FD9095FC01EE0FFF1FE80F96
:10041000F91FE754FE4F80818F7360E00E941A0538
:100420008091DD018F5F8093DD012091DD01332715
:1004300027FD30958091B80190E0281739070CF01E
:100440004EC08091DD018C300CF049C020918400B9
:10045000309185008091DD01992787FD9095FC0101
:10046000EE0FFF1FE80FF91FE754FE4F81819281C5
:10047000280F391F30938900209388008091DD0177
:10048000992787FD9095FC01EE0FFF1FE80FF91FDC
:10049000E754FE4F808186FF2AC08091DD019927B5
:1004A00087FD9095FC01EE0FFF1FE80FF91FE75441
:1004B000FE4F80818F7361E00E941A0518C080E4AE
:1004C0009CE905C0809184009091850004969093EA
:1004D0008900809388008FEF8093DD0108C08091B0
:1004E00084009091850084549C4948F3EBCFFF91A0
:1004F000EF91BF91AF919F918F917F916F915F919C
:100500004F913F912F910F900FBE0F901F90189514
:10051000EF92FF920F931F93FC01162FF42EE22E01
:100520000083118280E090E0A0E0B0E082839383BA
:10053000A483B58386839783A087B1878DEC9CECD9
:10054000ACECBDE382879387A487B58766877787FE
:10055000408B518B228B338B862F61E00E94DB0412
:100560008F2D61E00E94DB048E2D61E00E94DB0490
:10057000812F60E00E941A058F2D60E00E941A050D
:100580008E2D60E00E941A051F910F91FF90EF9051
:100590000895EF92FF920F93CF93DF93EC017B01CD
:1005A0008130910509F005C18FEF6F3F780709F0A1
:1005B00000C180E090E0A8ECB2EC809361029093DF
:1005C0006202A0936302B09364028EED91E063E057
:1005D00070E044E050E025E030E001E00E94880255
:1005E00082EF91E06BE070E04AE050E029E030E01B
:1005F0000E94880286E092E00E94AD018BE092E0CA
:100600000E94AD0180E192E00E94AD0185E192E09F
:1006100062E070E00E94FE0010921A02109219022D
:10062000D0931C02C0931B0225E020931D02F09280
:100630003D02E0923C028DE292EBA6E6B1E48093AB
:100640001E0290931F02A0932002B093210284E225
:1006500099EBACEDBFE38093220290932302A09329
:100660002402B093250280E090E0A0EAB1E48093F8
:10067000260290932702A0932802B093290284EBCC
:1006800098ECA1E9B1E480932A0290932B02A09305
:100690002C02B0932D0283E49CE1ADEAB0E4809398
:1006A0002E0290932F02A0933002B093310280E08B
:1006B00090E0ACE8B2E48093320290933302A093CE
:1006C0003402B09335028EEF91E09093370280931D
:1006D000360289EB90E0909339028093380285E6E8
:1006E00090E090933B0280933A02D0933F02C093F4
:1006F0003E0220934002F0926002E0925F0286EE9A
:100700009FE3A8ECB0E48093410290934202A0934F
:100710004302B09344028FE29DEDACEEBFE38093C1
:10072000450290934602A0934702B093480280E0AE
:1007300090E0A0E2B1E48093490290934A02A09332
:100740004B02B0934C028AEA92E8ACE0B1E48093A9
:100750004D0290934E02A0934F02B09350028AE153
:1007600091E5A2ECB0E48093510290935202A093E1
:100770005302B093540280E090E0ACE0B2E4809386
:10078000550290935602A0935702B093580283E00B
:1007900092E090935A028093590287EA90E09093F6
:1007A0005C0280935B028AE590E090935E02809306
:1007B0005D02DF91CF910F91FF90EF90089580E05F
:1007C00090E06FEF7FEF0E94C902089581E090E012
:1007D0006FEF7FEF0E94C902089582E792E040E048
:1007E00052EC61E070E00E9439068EE060E00E9409
:1007F000DB048FE060E00E94DB0480E160E00E94A7
:10080000DB0481E160E00E94DB0482E160E00E94A1
:10081000DB0483E160E00E94DB0480E00E94B90415
:100820000E94D50786E090E090930702809306022D
:1008300087E090E090930C0280930B0288E090E0B8
:1008400090931102809310020895089580E090E043
:10085000A8ECB2EC8093650290936602A0936702C5
:10086000B093680208950E94ED0308951F920F92BD
:100870000FB60F9211242F933F938F939F93AF93B3
:10088000BF9380916D0290916E02A0916F02B09122
:100890007002309171020196A11DB11D232F2D5FB1
:1008A0002D3720F02D570196A11DB11D2093710207
:1008B00080936D0290936E02A0936F02B0937002CA
:1008C0008091690290916A02A0916B02B0916C02D2
:1008D0000196A11DB11D8093690290936A02A093B5
:1008E0006B02B0936C02BF91AF919F918F913F913A
:1008F0002F910F900FBE0F901F901895789484B58C
:10090000826084BD84B5816084BD85B5826085BD0B
:1009100085B5816085BDEEE6F0E0808181608083F1
:10092000E1E8F0E0108280818260808380818160D4
:100930008083E0E8F0E0808181608083E1EBF0E09B
:10094000808184608083E0EBF0E08081816080833F
:10095000EAE7F0E080818460808380818260808328
:100960008081816080838081806880831092C10053
:100970000895982F8E3008F09E5097708091040152
:100980008295880F880F807C892B80937C008091D2
:100990007A00806480937A0080917A0086FDFCCF93
:1009A0002091780040917900942F80E030E0282B4E
:1009B000392BC9010895CF93DF93482F50E0CA0126
:1009C00086569F4FFC0134914A575F4FFA0184913C
:1009D000882369F190E0880F991FFC01E859FF4FC7
:1009E000A591B491FC01EE58FF4FC591D4916623B7
:1009F00051F42FB7F8948C91932F909589238C9371
:100A0000888189230BC0623061F42FB7F8948C91F0
:100A1000932F909589238C938881832B88832FBF74
:100A200006C09FB7F8948C91832B8C939FBFDF9166
:100A3000CF910895482F50E0CA0182559F4FFC0185
:100A40002491CA0186569F4FFC0194914A575F4FEB
:100A5000FA013491332309F440C0222351F12330A9
:100A600071F0243028F42130A1F0223011F514C0A7
:100A70002630B1F02730C1F02430D9F404C0809181
:100A800080008F7703C0809180008F7D80938000ED
:100A900010C084B58F7702C084B58F7D84BD09C036
:100AA0008091B0008F7703C08091B0008F7D8093DC
:100AB000B000E32FF0E0EE0FFF1FEE58FF4FA591BF
:100AC000B4912FB7F894662321F48C9190958923E3
:100AD00002C08C91892B8C932FBF0895682F70E0F2
:100AE000CB0182559F4FFC012491CB0186569F4F2D
:100AF000FC0144916A577F4FFB019491992319F4AB
:100B000020E030E03CC0222351F1233071F024304A
:100B100028F42130A1F0223011F514C02630B1F0B4
:100B20002730C1F02430D9F404C0809180008F7741
:100B300003C0809180008F7D8093800010C084B5B9
:100B40008F7702C084B58F7D84BD09C08091B000CD
:100B50008F7703C08091B0008F7D8093B000892F84
:100B600090E0880F991F84589F4FFC01A591B49184
:100B70008C9120E030E0842311F021E030E0C901C5
:100B8000089508951F920F920FB60F9211242F937C
:100B90003F934F938F939F93EF93FF938091C00068
:100BA00082FD19C04091C60080919002282F30E04C
:100BB0002F5F3F4F2F7330708091910290E0281784
:100BC000390759F0E0919002F0E0EE58FD4F42A352
:100BD0002093900202C08091C600FF91EF919F91F7
:100BE0008F914F913F912F910F900FBE0F901F90BB
:100BF0001895809190022091910290E0805C9F4F27
:100C0000821B91098F739070892B11F00E94C1058E
:100C100008951F920F920FB60F9211242F938F9366
:100C20009F93EF93FF939091920280919302981774
:100C300031F48091C1008F7D8093C10010C0E0919C
:100C40009302F0E0EC52FD4F20818091930290E0FE
:100C500001968F739070809393022093C600FF914A
:100C6000EF919F918F912F910F900FBE0F901F903A
:100C70001895AF92BF92DF92EF92FF920F931F935E
:100C8000CF93DF93EC017A018B01DD24403081EEBC
:100C9000580780E0680780E0780711F0DD24D394DE
:100CA00091E0A92EB12CE889F989DD2069F0C50110
:100CB0000C8C02C0880F991F0A94E2F7808360E0D1
:100CC00079E08DE390E005C0108260E874E88EE181
:100CD00090E0A80197010E94FC072150304040405D
:100CE0005040569547953795279580E12030380735
:100CF00020F0DD2011F0DD24D6CFEC85FD8530839A
:100D0000EE85FF8520831D8EEA89FB89408121E0E5
:100D100030E0C901088C02C0880F991F0A94E2F7DD
:100D2000482B4083EA89FB894081C901098C02C0B4
:100D3000880F991F0A94E2F7482B4083EA89FB89C0
:100D40004081C9010A8C02C0880F991F0A94E2F7FA
:100D5000482B4083EA89FB8980810B8C02C0220FDB
:100D6000331F0A94E2F7209528232083DF91CF9147
:100D70001F910F91FF90EF90DF90BF90AF9008957B
:100D8000FC01268D878D30E0205C3F4F281B310908
:100D90002F733070C9010895FC01968D878D9817C7
:100DA00019F42FEF3FEF06C0878DE80FF11D82A1E8
:100DB000282F30E0C9010895DC015E969C915E9772
:100DC0005F968C915F97981719F42FEF3FEF10C043
:100DD0005F968C915F97FD01E80FF11D92A15F96E0
:100DE0008C915F978F5F8F735F968C93292F30E084
:100DF000C9010895DC015D968C915D97882339F0D7
:100E00005096ED91FC915197808186FFF9CF5D96C8
:100E10001C920895DC0190968C919097282F30E0D9
:100E20002F5F3F4F2F73307091968C91919790E088
:100E300028173907C9F390968C919097FD01E80F18
:100E4000F11DEE59FF4F608390962C939097529628
:100E5000ED91FC915397208181E090E05B960C909E
:100E60005B9702C0880F991F0A94E2F7282B208312
:100E700081E05D968C935D975096ED91FC91519732
:100E800080818064808381E090E0089510927502F3
:100E90001092740288EE93E0A0E0B0E080937602B6
:100EA00090937702A0937802B093790289E091E061
:100EB0009093730280937202109293028091930236
:100EC00080939202109291028091910280939002FD
:100ED00085EC90E090937F0280937E0284EC90E01A
:100EE000909381028093800280EC90E09093830243
:100EF0008093820281EC90E090938502809384023B
:100F000082EC90E0909387028093860286EC90E0DA
:100F1000909389028093880284E080938A0283E020
:100F200080938B0287E080938C0285E080938D0212
:100F300081E080938E020895CF93DF930E947E0418
:100F40000E943304C9EFD5E00E9425042097E1F305
:100F50000E94F905F9CFCF92DF92EF92FF920F93A3
:100F60001F93CF93DF937C016B018A01C0E0D0E037
:100F70000FC0D6016D916D01D701ED91FC910190EB
:100F8000F081E02DC7010995C80FD91F015010400D
:100F90000115110571F7CE01DF91CF911F910F91CE
:100FA000FF90EF90DF90CF900895009729F0BC015B
:100FB00080E090E00E94E8000895629FD001739F56
:100FC000F001829FE00DF11D649FE00DF11D929FE5
:100FD000F00D839FF00D749FF00D659FF00D992724
:100FE000729FB00DE11DF91F639FB00DE11DF91F48
:100FF000BD01CF0111240895A1E21A2EAA1BBB1B2B
:10100000FD010DC0AA1FBB1FEE1FFF1FA217B307D4
:10101000E407F50720F0A21BB30BE40BF50B661FEA
:10102000771F881F991F1A9469F7609570958095AE
:1010300090959B01AC01BD01CF01089597FB092E4E
:1010400005260ED057FD04D0D7DF0AD0001C38F497
:1010500050954095309521953F4F4F4F5F4F0895E4
:10106000F6F790958095709561957F4F8F4F9F4FC4
:101070000895EE0FFF1F0590F491E02D09942F9233
:101080003F924F925F926F927F928F929F92AF9218
:10109000BF92CF92DF92EF92FF920F931F93CF9365
:1010A000DF93CDB7DEB7CA1BDB0B0FB6F894DEBFFC
:1010B0000FBECDBF09942A88398848885F846E8422
:1010C0007D848C849B84AA84B984C884DF80EE806C
:1010D000FD800C811B81AA81B981CE0FD11D0FB675
:1010E000F894DEBF0FBECDBFED01089510E0CAEC4D
:1010F000D0E004C0FE010E943B082296CC3CD10700
:06110000C9F7F894FFCFCF
:101106000100000001000000000A07AB07C006DC72
:0611160006CC06FA0600FB
:00000001FF
